{
  "_format": "hh-sol-artifact-1",
  "contractName": "MockHederaPrecompile",
  "sourceName": "contracts/MockHhederaPrecompile.sol",
  "abi": [
    {
      "inputs": [
        {
          "internalType": "address",
          "name": "token",
          "type": "address"
        },
        {
          "internalType": "address",
          "name": "account",
          "type": "address"
        }
      ],
      "name": "balanceOf",
      "outputs": [
        {
          "internalType": "uint256",
          "name": "",
          "type": "uint256"
        }
      ],
      "stateMutability": "view",
      "type": "function"
    },
    {
      "inputs": [
        {
          "internalType": "address",
          "name": "",
          "type": "address"
        },
        {
          "internalType": "address",
          "name": "",
          "type": "address"
        }
      ],
      "name": "balances",
      "outputs": [
        {
          "internalType": "uint256",
          "name": "",
          "type": "uint256"
        }
      ],
      "stateMutability": "view",
      "type": "function"
    },
    {
      "inputs": [
        {
          "internalType": "address",
          "name": "token",
          "type": "address"
        },
        {
          "internalType": "address",
          "name": "account",
          "type": "address"
        }
      ],
      "name": "grantTokenKyc",
      "outputs": [
        {
          "internalType": "int256",
          "name": "",
          "type": "int256"
        }
      ],
      "stateMutability": "nonpayable",
      "type": "function"
    },
    {
      "inputs": [
        {
          "internalType": "address",
          "name": "token",
          "type": "address"
        },
        {
          "internalType": "address",
          "name": "account",
          "type": "address"
        }
      ],
      "name": "isKyc",
      "outputs": [
        {
          "internalType": "int256",
          "name": "",
          "type": "int256"
        },
        {
          "internalType": "bool",
          "name": "",
          "type": "bool"
        }
      ],
      "stateMutability": "view",
      "type": "function"
    },
    {
      "inputs": [
        {
          "internalType": "address",
          "name": "",
          "type": "address"
        },
        {
          "internalType": "address",
          "name": "",
          "type": "address"
        }
      ],
      "name": "kyc",
      "outputs": [
        {
          "internalType": "bool",
          "name": "",
          "type": "bool"
        }
      ],
      "stateMutability": "view",
      "type": "function"
    },
    {
      "inputs": [
        {
          "internalType": "address",
          "name": "token",
          "type": "address"
        },
        {
          "internalType": "uint64",
          "name": "amount",
          "type": "uint64"
        }
      ],
      "name": "mintToken",
      "outputs": [
        {
          "internalType": "int256",
          "name": "",
          "type": "int256"
        }
      ],
      "stateMutability": "nonpayable",
      "type": "function"
    },
    {
      "inputs": [
        {
          "internalType": "address",
          "name": "token",
          "type": "address"
        },
        {
          "internalType": "address",
          "name": "account",
          "type": "address"
        }
      ],
      "name": "revokeTokenKyc",
      "outputs": [
        {
          "internalType": "int256",
          "name": "",
          "type": "int256"
        }
      ],
      "stateMutability": "nonpayable",
      "type": "function"
    },
    {
      "inputs": [
        {
          "internalType": "address",
          "name": "token",
          "type": "address"
        },
        {
          "internalType": "address",
          "name": "account",
          "type": "address"
        },
        {
          "internalType": "uint256",
          "name": "amount",
          "type": "uint256"
        }
      ],
      "name": "setBalance",
      "outputs": [],
      "stateMutability": "nonpayable",
      "type": "function"
    },
    {
      "inputs": [
        {
          "internalType": "address",
          "name": "",
          "type": "address"
        }
      ],
      "name": "totalSupply",
      "outputs": [
        {
          "internalType": "uint64",
          "name": "",
          "type": "uint64"
        }
      ],
      "stateMutability": "view",
      "type": "function"
    },
    {
      "inputs": [
        {
          "internalType": "address",
          "name": "token",
          "type": "address"
        },
        {
          "internalType": "address",
          "name": "from",
          "type": "address"
        },
        {
          "internalType": "address",
          "name": "to",
          "type": "address"
        },
        {
          "internalType": "uint64",
          "name": "amount",
          "type": "uint64"
        }
      ],
      "name": "transferToken",
      "outputs": [
        {
          "internalType": "int256",
          "name": "",
          "type": "int256"
        }
      ],
      "stateMutability": "nonpayable",
      "type": "function"
    }
  ],
  "bytecode": "0x6080604052348015600f57600080fd5b50610de78061001f6000396000f3fe608060405234801561001057600080fd5b506004361061009e5760003560e01c8063b5c9cbbe11610066578063b5c9cbbe14610193578063c23f001f146101af578063e4dc2aa4146101df578063f2c31ff41461020f578063f7888aec146102405761009e565b806312aedc7f146100a3578063382fd819146100d35780638f8d7f9914610103578063af99c63314610133578063b3ed32b114610163575b600080fd5b6100bd60048036038101906100b891906109b7565b610270565b6040516100ca9190610a37565b60405180910390f35b6100ed60048036038101906100e89190610a52565b61047e565b6040516100fa9190610aad565b60405180910390f35b61011d60048036038101906101189190610a52565b6104ad565b60405161012a9190610a37565b60405180910390f35b61014d60048036038101906101489190610a52565b61054d565b60405161015a9190610a37565b60405180910390f35b61017d60048036038101906101789190610ac8565b6105ed565b60405161018a9190610a37565b60405180910390f35b6101ad60048036038101906101a89190610b3e565b61071d565b005b6101c960048036038101906101c49190610a52565b6107a2565b6040516101d69190610ba0565b60405180910390f35b6101f960048036038101906101f49190610bbb565b6107c7565b6040516102069190610bf7565b60405180910390f35b61022960048036038101906102249190610a52565b6107ee565b604051610237929190610c12565b60405180910390f35b61025a60048036038101906102559190610a52565b61088e565b6040516102679190610ba0565b60405180910390f35b60008167ffffffffffffffff166000808773ffffffffffffffffffffffffffffffffffffffff1673ffffffffffffffffffffffffffffffffffffffff16815260200190815260200160002060008673ffffffffffffffffffffffffffffffffffffffff1673ffffffffffffffffffffffffffffffffffffffff16815260200190815260200160002054101561033a576040517f08c379a000000000000000000000000000000000000000000000000000000000815260040161033190610cbe565b60405180910390fd5b8167ffffffffffffffff166000808773ffffffffffffffffffffffffffffffffffffffff1673ffffffffffffffffffffffffffffffffffffffff16815260200190815260200160002060008673ffffffffffffffffffffffffffffffffffffffff1673ffffffffffffffffffffffffffffffffffffffff16815260200190815260200160002060008282546103cf9190610d0d565b925050819055508167ffffffffffffffff166000808773ffffffffffffffffffffffffffffffffffffffff1673ffffffffffffffffffffffffffffffffffffffff16815260200190815260200160002060008573ffffffffffffffffffffffffffffffffffffffff1673ffffffffffffffffffffffffffffffffffffffff168152602001908152602001600020600082825461046b9190610d41565b9250508190555060169050949350505050565b60016020528160005260406000206020528060005260406000206000915091509054906101000a900460ff1681565b600060018060008573ffffffffffffffffffffffffffffffffffffffff1673ffffffffffffffffffffffffffffffffffffffff16815260200190815260200160002060008473ffffffffffffffffffffffffffffffffffffffff1673ffffffffffffffffffffffffffffffffffffffff16815260200190815260200160002060006101000a81548160ff0219169083151502179055506016905092915050565b600080600160008573ffffffffffffffffffffffffffffffffffffffff1673ffffffffffffffffffffffffffffffffffffffff16815260200190815260200160002060008473ffffffffffffffffffffffffffffffffffffffff1673ffffffffffffffffffffffffffffffffffffffff16815260200190815260200160002060006101000a81548160ff0219169083151502179055506016905092915050565b600081600260008573ffffffffffffffffffffffffffffffffffffffff1673ffffffffffffffffffffffffffffffffffffffff16815260200190815260200160002060008282829054906101000a900467ffffffffffffffff166106519190610d75565b92506101000a81548167ffffffffffffffff021916908367ffffffffffffffff1602179055508167ffffffffffffffff166000808573ffffffffffffffffffffffffffffffffffffffff1673ffffffffffffffffffffffffffffffffffffffff16815260200190815260200160002060008573ffffffffffffffffffffffffffffffffffffffff1673ffffffffffffffffffffffffffffffffffffffff168152602001908152602001600020600082825461070c9190610d41565b925050819055506016905092915050565b806000808573ffffffffffffffffffffffffffffffffffffffff1673ffffffffffffffffffffffffffffffffffffffff16815260200190815260200160002060008473ffffffffffffffffffffffffffffffffffffffff1673ffffffffffffffffffffffffffffffffffffffff16815260200190815260200160002081905550505050565b6000602052816000526040600020602052806000526040600020600091509150505481565b60026020528060005260406000206000915054906101000a900467ffffffffffffffff1681565b6000806000600160008673ffffffffffffffffffffffffffffffffffffffff1673ffffffffffffffffffffffffffffffffffffffff16815260200190815260200160002060008573ffffffffffffffffffffffffffffffffffffffff1673ffffffffffffffffffffffffffffffffffffffff16815260200190815260200160002060009054906101000a900460ff16905060168192509250509250929050565b60008060008473ffffffffffffffffffffffffffffffffffffffff1673ffffffffffffffffffffffffffffffffffffffff16815260200190815260200160002060008373ffffffffffffffffffffffffffffffffffffffff1673ffffffffffffffffffffffffffffffffffffffff16815260200190815260200160002054905092915050565b600080fd5b600073ffffffffffffffffffffffffffffffffffffffff82169050919050565b600061094482610919565b9050919050565b61095481610939565b811461095f57600080fd5b50565b6000813590506109718161094b565b92915050565b600067ffffffffffffffff82169050919050565b61099481610977565b811461099f57600080fd5b50565b6000813590506109b18161098b565b92915050565b600080600080608085870312156109d1576109d0610914565b5b60006109df87828801610962565b94505060206109f087828801610962565b9350506040610a0187828801610962565b9250506060610a12878288016109a2565b91505092959194509250565b6000819050919050565b610a3181610a1e565b82525050565b6000602082019050610a4c6000830184610a28565b92915050565b60008060408385031215610a6957610a68610914565b5b6000610a7785828601610962565b9250506020610a8885828601610962565b9150509250929050565b60008115159050919050565b610aa781610a92565b82525050565b6000602082019050610ac26000830184610a9e565b92915050565b60008060408385031215610adf57610ade610914565b5b6000610aed85828601610962565b9250506020610afe858286016109a2565b9150509250929050565b6000819050919050565b610b1b81610b08565b8114610b2657600080fd5b50565b600081359050610b3881610b12565b92915050565b600080600060608486031215610b5757610b56610914565b5b6000610b6586828701610962565b9350506020610b7686828701610962565b9250506040610b8786828701610b29565b9150509250925092565b610b9a81610b08565b82525050565b6000602082019050610bb56000830184610b91565b92915050565b600060208284031215610bd157610bd0610914565b5b6000610bdf84828501610962565b91505092915050565b610bf181610977565b82525050565b6000602082019050610c0c6000830184610be8565b92915050565b6000604082019050610c276000830185610a28565b610c346020830184610a9e565b9392505050565b600082825260208201905092915050565b7f4d6f636b507265636f6d70696c653a20696e73756666696369656e742062616c60008201527f616e636500000000000000000000000000000000000000000000000000000000602082015250565b6000610ca8602483610c3b565b9150610cb382610c4c565b604082019050919050565b60006020820190508181036000830152610cd781610c9b565b9050919050565b7f4e487b7100000000000000000000000000000000000000000000000000000000600052601160045260246000fd5b6000610d1882610b08565b9150610d2383610b08565b9250828203905081811115610d3b57610d3a610cde565b5b92915050565b6000610d4c82610b08565b9150610d5783610b08565b9250828201905080821115610d6f57610d6e610cde565b5b92915050565b6000610d8082610977565b9150610d8b83610977565b9250828201905067ffffffffffffffff811115610dab57610daa610cde565b5b9291505056fea264697066735822122054a0108bc99540839193040a9d3bb64ffa622378ad45ca967181ff1cc9e4fc4564736f6c634300081c0033",
  "linkReferences": {},
  "deployedLinkReferences": {}
}