{
  "_format": "hh-sol-artifact-1",
  "contractName": "MockUSDT",
  "sourceName": "contracts/MockUSDT.sol",
  "abi": [
    {
      "inputs": [],
      "stateMutability": "nonpayable",
      "type": "constructor"
    },
    {
      "inputs": [
        {
          "internalType": "address",
          "name": "owner",
          "type": "address"
        }
      ],
      "name": "OwnableInvalidOwner",
      "type": "error"
    },
    {
      "inputs": [
        {
          "internalType": "address",
          "name": "account",
          "type": "address"
        }
      ],
      "name": "OwnableUnauthorizedAccount",
      "type": "error"
    },
    {
      "anonymous": false,
      "inputs": [
        {
          "indexed": true,
          "internalType": "address",
          "name": "user",
          "type": "address"
        },
        {
          "indexed": false,
          "internalType": "uint256",
          "name": "amount",
          "type": "uint256"
        }
      ],
      "name": "FaucetClaimed",
      "type": "event"
    },
    {
      "anonymous": false,
      "inputs": [
        {
          "indexed": true,
          "internalType": "address",
          "name": "token",
          "type": "address"
        }
      ],
      "name": "FungibleCreated",
      "type": "event"
    },
    {
      "anonymous": false,
      "inputs": [
        {
          "indexed": true,
          "internalType": "address",
          "name": "account",
          "type": "address"
        }
      ],
      "name": "KYCGranted",
      "type": "event"
    },
    {
      "anonymous": false,
      "inputs": [
        {
          "indexed": true,
          "internalType": "address",
          "name": "account",
          "type": "address"
        }
      ],
      "name": "KYCRevoked",
      "type": "event"
    },
    {
      "anonymous": false,
      "inputs": [
        {
          "indexed": true,
          "internalType": "address",
          "name": "previousOwner",
          "type": "address"
        },
        {
          "indexed": true,
          "internalType": "address",
          "name": "newOwner",
          "type": "address"
        }
      ],
      "name": "OwnershipTransferred",
      "type": "event"
    },
    {
      "inputs": [],
      "name": "createFungibleToken",
      "outputs": [],
      "stateMutability": "payable",
      "type": "function"
    },
    {
      "inputs": [],
      "name": "decimals",
      "outputs": [
        {
          "internalType": "uint8",
          "name": "",
          "type": "uint8"
        }
      ],
      "stateMutability": "view",
      "type": "function"
    },
    {
      "inputs": [
        {
          "internalType": "address",
          "name": "to",
          "type": "address"
        }
      ],
      "name": "faucet",
      "outputs": [],
      "stateMutability": "nonpayable",
      "type": "function"
    },
    {
      "inputs": [],
      "name": "faucetAmount",
      "outputs": [
        {
          "internalType": "uint256",
          "name": "",
          "type": "uint256"
        }
      ],
      "stateMutability": "view",
      "type": "function"
    },
    {
      "inputs": [],
      "name": "faucetCooldown",
      "outputs": [
        {
          "internalType": "uint256",
          "name": "",
          "type": "uint256"
        }
      ],
      "stateMutability": "view",
      "type": "function"
    },
    {
      "inputs": [
        {
          "internalType": "address",
          "name": "account",
          "type": "address"
        }
      ],
      "name": "grantKYC",
      "outputs": [],
      "stateMutability": "nonpayable",
      "type": "function"
    },
    {
      "inputs": [
        {
          "internalType": "address",
          "name": "",
          "type": "address"
        }
      ],
      "name": "lastClaim",
      "outputs": [
        {
          "internalType": "uint256",
          "name": "",
          "type": "uint256"
        }
      ],
      "stateMutability": "view",
      "type": "function"
    },
    {
      "inputs": [],
      "name": "name",
      "outputs": [
        {
          "internalType": "string",
          "name": "",
          "type": "string"
        }
      ],
      "stateMutability": "view",
      "type": "function"
    },
    {
      "inputs": [],
      "name": "owner",
      "outputs": [
        {
          "internalType": "address",
          "name": "",
          "type": "address"
        }
      ],
      "stateMutability": "view",
      "type": "function"
    },
    {
      "inputs": [],
      "name": "renounceOwnership",
      "outputs": [],
      "stateMutability": "nonpayable",
      "type": "function"
    },
    {
      "inputs": [
        {
          "internalType": "address",
          "name": "account",
          "type": "address"
        }
      ],
      "name": "revokeKYC",
      "outputs": [],
      "stateMutability": "nonpayable",
      "type": "function"
    },
    {
      "inputs": [],
      "name": "symbol",
      "outputs": [
        {
          "internalType": "string",
          "name": "",
          "type": "string"
        }
      ],
      "stateMutability": "view",
      "type": "function"
    },
    {
      "inputs": [],
      "name": "tokenAddress",
      "outputs": [
        {
          "internalType": "address",
          "name": "",
          "type": "address"
        }
      ],
      "stateMutability": "view",
      "type": "function"
    },
    {
      "inputs": [
        {
          "internalType": "address",
          "name": "newOwner",
          "type": "address"
        }
      ],
      "name": "transferOwnership",
      "outputs": [],
      "stateMutability": "nonpayable",
      "type": "function"
    }
  ],
  "bytecode": "0x6080604052633b9aca006003556201518060045534801561001f57600080fd5b5033600073ffffffffffffffffffffffffffffffffffffffff168173ffffffffffffffffffffffffffffffffffffffff16036100935760006040517f1e4fbdf700000000000000000000000000000000000000000000000000000000815260040161008a91906101ad565b60405180910390fd5b6100a2816100a860201b60201c565b506101c8565b60008060009054906101000a900473ffffffffffffffffffffffffffffffffffffffff169050816000806101000a81548173ffffffffffffffffffffffffffffffffffffffff021916908373ffffffffffffffffffffffffffffffffffffffff1602179055508173ffffffffffffffffffffffffffffffffffffffff168173ffffffffffffffffffffffffffffffffffffffff167f8be0079c531659141344cd1fd0a4f28419497f9722a3daafe3b4186f6b6457e060405160405180910390a35050565b600073ffffffffffffffffffffffffffffffffffffffff82169050919050565b60006101978261016c565b9050919050565b6101a78161018c565b82525050565b60006020820190506101c2600083018461019e565b92915050565b611b21806101d76000396000f3fe6080604052600436106100dd5760003560e01c80638da5cb5b1161007f5780639d76ea58116100595780639d76ea581461026b578063b86d1d6314610296578063d9ca93ff146102bf578063f2fde38b146102e8576100dd565b80638da5cb5b146101ea57806395d89b41146102155780639c28143014610240576100dd565b80635b030f21116100bb5780635b030f21146101615780635c16e15e1461016b578063715018a6146101a85780637e36320b146101bf576100dd565b806306fdde03146100e2578063313ce5671461010d57806339ba645b14610138575b600080fd5b3480156100ee57600080fd5b506100f7610311565b60405161010491906111a3565b60405180910390f35b34801561011957600080fd5b5061012261034a565b60405161012f91906111e1565b60405180910390f35b34801561014457600080fd5b5061015f600480360381019061015a919061125f565b61034f565b005b610169610523565b005b34801561017757600080fd5b50610192600480360381019061018d919061125f565b6108c9565b60405161019f91906112a5565b60405180910390f35b3480156101b457600080fd5b506101bd6108e1565b005b3480156101cb57600080fd5b506101d46108f5565b6040516101e191906112a5565b60405180910390f35b3480156101f657600080fd5b506101ff6108fb565b60405161020c91906112cf565b60405180910390f35b34801561022157600080fd5b5061022a610924565b60405161023791906111a3565b60405180910390f35b34801561024c57600080fd5b5061025561095d565b60405161026291906112a5565b60405180910390f35b34801561027757600080fd5b50610280610963565b60405161028d91906112cf565b60405180910390f35b3480156102a257600080fd5b506102bd60048036038101906102b8919061125f565b610989565b005b3480156102cb57600080fd5b506102e660048036038101906102e1919061125f565b610d71565b005b3480156102f457600080fd5b5061030f600480360381019061030a919061125f565b610f3a565b005b6040518060400160405280601181526020017f486564657261205553442054657468657200000000000000000000000000000081525081565b600681565b610357610fc0565b600073ffffffffffffffffffffffffffffffffffffffff16600160009054906101000a900473ffffffffffffffffffffffffffffffffffffffff1673ffffffffffffffffffffffffffffffffffffffff16036103e8576040517f08c379a00000000000000000000000000000000000000000000000000000000081526004016103df90611336565b60405180910390fd5b600061016773ffffffffffffffffffffffffffffffffffffffff1663af99c633600160009054906101000a900473ffffffffffffffffffffffffffffffffffffffff16846040518363ffffffff1660e01b8152600401610449929190611356565b6020604051808303816000875af1158015610468573d6000803e3d6000fd5b505050506040513d601f19601f8201168201806040525081019061048c91906113b5565b9050601681148061049d5750602c81145b6104dc576040517f08c379a00000000000000000000000000000000000000000000000000000000081526004016104d39061142e565b60405180910390fd5b8173ffffffffffffffffffffffffffffffffffffffff167ffb4ca6a2470de95e9f648557fae63380f22c4b760bd27b0571caf5977a30278a60405160405180910390a25050565b61052b610fc0565b600073ffffffffffffffffffffffffffffffffffffffff16600160009054906101000a900473ffffffffffffffffffffffffffffffffffffffff1673ffffffffffffffffffffffffffffffffffffffff16146105bc576040517f08c379a00000000000000000000000000000000000000000000000000000000081526004016105b39061149a565b60405180910390fd5b60008067ffffffffffffffff8111156105d8576105d76114ba565b5b60405190808252806020026020018201604052801561060b57816020015b60608152602001906001900390816105f65790505b50905060008061016773ffffffffffffffffffffffffffffffffffffffff166389c4b4fd6040518060400160405280601181526020017f48656465726120555344205465746865720000000000000000000000000000008152506040518060400160405280600581526020017f6855534454000000000000000000000000000000000000000000000000000000815250677fffffffffffffff600660ff166000896040518763ffffffff1660e01b81526004016106cd9695949392919061169f565b60408051808303816000875af11580156106eb573d6000803e3d6000fd5b505050506040513d601f19601f8201168201806040525081019061070f919061173d565b9150915060168214610756576040517f08c379a000000000000000000000000000000000000000000000000000000000815260040161074d906117c9565b60405180910390fd5b80600160006101000a81548173ffffffffffffffffffffffffffffffffffffffff021916908373ffffffffffffffffffffffffffffffffffffffff160217905550600061016773ffffffffffffffffffffffffffffffffffffffff16638f8d7f99600160009054906101000a900473ffffffffffffffffffffffffffffffffffffffff16306040518363ffffffff1660e01b81526004016107f8929190611356565b6020604051808303816000875af1158015610817573d6000803e3d6000fd5b505050506040513d601f19601f8201168201806040525081019061083b91906113b5565b905060168114610880576040517f08c379a000000000000000000000000000000000000000000000000000000000815260040161087790611835565b60405180910390fd5b8173ffffffffffffffffffffffffffffffffffffffff167f96b86f1e48b08784aac536d074f242d418f82243ad3f3ca2d579d6c03228aa4560405160405180910390a250505050565b60026020528060005260406000206000915090505481565b6108e9610fc0565b6108f36000611047565b565b60045481565b60008060009054906101000a900473ffffffffffffffffffffffffffffffffffffffff16905090565b6040518060400160405280600581526020017f685553445400000000000000000000000000000000000000000000000000000081525081565b60035481565b600160009054906101000a900473ffffffffffffffffffffffffffffffffffffffff1681565b600073ffffffffffffffffffffffffffffffffffffffff16600160009054906101000a900473ffffffffffffffffffffffffffffffffffffffff1673ffffffffffffffffffffffffffffffffffffffff1603610a1a576040517f08c379a0000000000000000000000000000000000000000000000000000000008152600401610a1190611336565b60405180910390fd5b600454600260008373ffffffffffffffffffffffffffffffffffffffff1673ffffffffffffffffffffffffffffffffffffffff1681526020019081526020016000205442610a689190611884565b1015610aa9576040517f08c379a0000000000000000000000000000000000000000000000000000000008152600401610aa090611904565b60405180910390fd5b42600260008373ffffffffffffffffffffffffffffffffffffffff1673ffffffffffffffffffffffffffffffffffffffff1681526020019081526020016000208190555060008067ffffffffffffffff811115610b0957610b086114ba565b5b604051908082528060200260200182016040528015610b3c57816020015b6060815260200190600190039081610b275790505b509050600061016773ffffffffffffffffffffffffffffffffffffffff1663e0f4059a600160009054906101000a900473ffffffffffffffffffffffffffffffffffffffff16600354856040518463ffffffff1660e01b8152600401610ba493929190611924565b6020604051808303816000875af1158015610bc3573d6000803e3d6000fd5b505050506040513d601f19601f82011682018060405250810190610be791906113b5565b905060168114610c2c576040517f08c379a0000000000000000000000000000000000000000000000000000000008152600401610c23906119ae565b60405180910390fd5b600061016773ffffffffffffffffffffffffffffffffffffffff1663eca36917600160009054906101000a900473ffffffffffffffffffffffffffffffffffffffff1630876003546040518563ffffffff1660e01b8152600401610c9394939291906119ce565b6020604051808303816000875af1158015610cb2573d6000803e3d6000fd5b505050506040513d601f19601f82011682018060405250810190610cd691906113b5565b905060168114610d1b576040517f08c379a0000000000000000000000000000000000000000000000000000000008152600401610d1290611a5f565b60405180910390fd5b8373ffffffffffffffffffffffffffffffffffffffff167f5d4f415c63cd8a5874d9d291cdd64cec37e5dc236d90d659c958d109d78074b3600354604051610d6391906112a5565b60405180910390a250505050565b610d79610fc0565b600073ffffffffffffffffffffffffffffffffffffffff16600160009054906101000a900473ffffffffffffffffffffffffffffffffffffffff1673ffffffffffffffffffffffffffffffffffffffff1603610e0a576040517f08c379a0000000000000000000000000000000000000000000000000000000008152600401610e0190611336565b60405180910390fd5b600061016773ffffffffffffffffffffffffffffffffffffffff16638f8d7f99600160009054906101000a900473ffffffffffffffffffffffffffffffffffffffff16846040518363ffffffff1660e01b8152600401610e6b929190611356565b6020604051808303816000875af1158015610e8a573d6000803e3d6000fd5b505050506040513d601f19601f82011682018060405250810190610eae91906113b5565b905060168114610ef3576040517f08c379a0000000000000000000000000000000000000000000000000000000008152600401610eea90611acb565b60405180910390fd5b8173ffffffffffffffffffffffffffffffffffffffff167fc93dbb01ba50217e82ab5ba9468c3b231c601e65a967356ed4b71e5fac95ea7960405160405180910390a25050565b610f42610fc0565b600073ffffffffffffffffffffffffffffffffffffffff168173ffffffffffffffffffffffffffffffffffffffff1603610fb45760006040517f1e4fbdf7000000000000000000000000000000000000000000000000000000008152600401610fab91906112cf565b60405180910390fd5b610fbd81611047565b50565b610fc861110b565b73ffffffffffffffffffffffffffffffffffffffff16610fe66108fb565b73ffffffffffffffffffffffffffffffffffffffff16146110455761100961110b565b6040517f118cdaa700000000000000000000000000000000000000000000000000000000815260040161103c91906112cf565b60405180910390fd5b565b60008060009054906101000a900473ffffffffffffffffffffffffffffffffffffffff169050816000806101000a81548173ffffffffffffffffffffffffffffffffffffffff021916908373ffffffffffffffffffffffffffffffffffffffff1602179055508173ffffffffffffffffffffffffffffffffffffffff168173ffffffffffffffffffffffffffffffffffffffff167f8be0079c531659141344cd1fd0a4f28419497f9722a3daafe3b4186f6b6457e060405160405180910390a35050565b600033905090565b600081519050919050565b600082825260208201905092915050565b60005b8381101561114d578082015181840152602081019050611132565b60008484015250505050565b6000601f19601f8301169050919050565b600061117582611113565b61117f818561111e565b935061118f81856020860161112f565b61119881611159565b840191505092915050565b600060208201905081810360008301526111bd818461116a565b905092915050565b600060ff82169050919050565b6111db816111c5565b82525050565b60006020820190506111f660008301846111d2565b92915050565b600080fd5b600073ffffffffffffffffffffffffffffffffffffffff82169050919050565b600061122c82611201565b9050919050565b61123c81611221565b811461124757600080fd5b50565b60008135905061125981611233565b92915050565b600060208284031215611275576112746111fc565b5b60006112838482850161124a565b91505092915050565b6000819050919050565b61129f8161128c565b82525050565b60006020820190506112ba6000830184611296565b92915050565b6112c981611221565b82525050565b60006020820190506112e460008301846112c0565b92915050565b7f4e6f742063726561746564000000000000000000000000000000000000000000600082015250565b6000611320600b8361111e565b915061132b826112ea565b602082019050919050565b6000602082019050818103600083015261134f81611313565b9050919050565b600060408201905061136b60008301856112c0565b61137860208301846112c0565b9392505050565b6000819050919050565b6113928161137f565b811461139d57600080fd5b50565b6000815190506113af81611389565b92915050565b6000602082840312156113cb576113ca6111fc565b5b60006113d9848285016113a0565b91505092915050565b7f4854533a207265766f6b65204b5943206661696c656400000000000000000000600082015250565b600061141860168361111e565b9150611423826113e2565b602082019050919050565b600060208201905081810360008301526114478161140b565b9050919050565b7f416c726561647920696e697469616c697a656400000000000000000000000000600082015250565b600061148460138361111e565b915061148f8261144e565b602082019050919050565b600060208201905081810360008301526114b381611477565b9050919050565b7f4e487b7100000000000000000000000000000000000000000000000000000000600052604160045260246000fd5b7f4d6f636b205553445420666f722074657374696e670000000000000000000000600082015250565b600061151f60158361111e565b915061152a826114e9565b602082019050919050565b60008160070b9050919050565b61154b81611535565b82525050565b60008160030b9050919050565b61156781611551565b82525050565b60008115159050919050565b6115828161156d565b82525050565b600081519050919050565b600082825260208201905092915050565b6000819050602082019050919050565b600081519050919050565b600082825260208201905092915050565b60006115db826115b4565b6115e581856115bf565b93506115f581856020860161112f565b6115fe81611159565b840191505092915050565b600061161583836115d0565b905092915050565b6000602082019050919050565b600061163582611588565b61163f8185611593565b935083602082028501611651856115a4565b8060005b8581101561168d578484038952815161166e8582611609565b94506116798361161d565b925060208a01995050600181019050611655565b50829750879550505050505092915050565b600060e08201905081810360008301526116b9818961116a565b905081810360208301526116cd818861116a565b905081810360408301526116e081611512565b90506116ef6060830187611542565b6116fc608083018661155e565b61170960a0830185611579565b81810360c083015261171b818461162a565b9050979650505050505050565b60008151905061173781611233565b92915050565b60008060408385031215611754576117536111fc565b5b6000611762858286016113a0565b925050602061177385828601611728565b9150509250929050565b7f4854533a206372656174652066756e6769626c65206661696c65640000000000600082015250565b60006117b3601b8361111e565b91506117be8261177d565b602082019050919050565b600060208201905081810360008301526117e2816117a6565b9050919050565b7f4854533a207472656173757279204b5943206661696c65640000000000000000600082015250565b600061181f60188361111e565b915061182a826117e9565b602082019050919050565b6000602082019050818103600083015261184e81611812565b9050919050565b7f4e487b7100000000000000000000000000000000000000000000000000000000600052601160045260246000fd5b600061188f8261128c565b915061189a8361128c565b92508282039050818111156118b2576118b1611855565b5b92915050565b7f436f6f6c646f776e206163746976650000000000000000000000000000000000600082015250565b60006118ee600f8361111e565b91506118f9826118b8565b602082019050919050565b6000602082019050818103600083015261191d816118e1565b9050919050565b600060608201905061193960008301866112c0565b6119466020830185611542565b8181036040830152611958818461162a565b9050949350505050565b7f4854533a206d696e74206661696c656400000000000000000000000000000000600082015250565b600061199860108361111e565b91506119a382611962565b602082019050919050565b600060208201905081810360008301526119c78161198b565b9050919050565b60006080820190506119e360008301876112c0565b6119f060208301866112c0565b6119fd60408301856112c0565b611a0a6060830184611542565b95945050505050565b7f4854533a207472616e73666572206661696c6564000000000000000000000000600082015250565b6000611a4960148361111e565b9150611a5482611a13565b602082019050919050565b60006020820190508181036000830152611a7881611a3c565b9050919050565b7f4854533a206772616e74204b5943206661696c65640000000000000000000000600082015250565b6000611ab560158361111e565b9150611ac082611a7f565b602082019050919050565b60006020820190508181036000830152611ae481611aa8565b905091905056fea26469706673582212205d3818033a719a3ed45779a3c9551d7418eb3c4a753c278b2084c3797916f8ec64736f6c634300081c0033",
  "linkReferences": {},
  "deployedLinkReferences": {}
}