{"contracts/Marketplace.sol":{"Marketplace":{"abi":[{"inputs":[{"internalType":"address","name":"_stableToken","type":"address"},{"internalType":"address","name":"_agriYield","type":"address"}],"stateMutability":"nonpayable","type":"constructor"},{"inputs":[],"name":"ReentrancyGuardReentrantCall","type":"error"},{"anonymous":false,"inputs":[{"indexed":true,"internalType":"uint256","name":"orderId","type":"uint256"},{"indexed":false,"internalType":"string","name":"reasonCID","type":"string"}],"name":"DisputeOpened","type":"event"},{"anonymous":false,"inputs":[{"indexed":true,"internalType":"uint256","name":"orderId","type":"uint256"},{"indexed":false,"internalType":"bool","name":"sellerFavor","type":"bool"}],"name":"DisputeResolved","type":"event"},{"anonymous":false,"inputs":[{"indexed":true,"internalType":"uint256","name":"orderId","type":"uint256"},{"indexed":true,"internalType":"address","name":"seller","type":"address"},{"indexed":false,"internalType":"uint256","name":"amount","type":"uint256"}],"name":"FundsReleased","type":"event"},{"anonymous":false,"inputs":[{"indexed":true,"internalType":"uint256","name":"listingId","type":"uint256"},{"indexed":true,"internalType":"uint256","name":"farmId","type":"uint256"},{"indexed":true,"internalType":"address","name":"farmer","type":"address"},{"indexed":false,"internalType":"uint256","name":"price","type":"uint256"},{"indexed":false,"internalType":"uint256","name":"quantity","type":"uint256"},{"indexed":false,"internalType":"string","name":"metadataCID","type":"string"}],"name":"ListingCreated","type":"event"},{"anonymous":false,"inputs":[{"indexed":true,"internalType":"uint256","name":"listingId","type":"uint256"}],"name":"ListingDeactivated","type":"event"},{"anonymous":false,"inputs":[{"indexed":true,"internalType":"uint256","name":"listingId","type":"uint256"},{"indexed":false,"internalType":"uint256","name":"price","type":"uint256"},{"indexed":false,"internalType":"uint256","name":"quantity","type":"uint256"}],"name":"ListingUpdated","type":"event"},{"anonymous":false,"inputs":[{"indexed":true,"internalType":"uint256","name":"orderId","type":"uint256"},{"indexed":true,"internalType":"uint256","name":"listingId","type":"uint256"},{"indexed":true,"internalType":"address","name":"buyer","type":"address"},{"indexed":false,"internalType":"address","name":"seller","type":"address"},{"indexed":false,"internalType":"uint256","name":"price","type":"uint256"},{"indexed":false,"internalType":"uint256","name":"quantity","type":"uint256"}],"name":"OrderCreated","type":"event"},{"anonymous":false,"inputs":[{"indexed":true,"internalType":"uint256","name":"orderId","type":"uint256"},{"indexed":false,"internalType":"string","name":"proofCID","type":"string"}],"name":"OrderReceived","type":"event"},{"anonymous":false,"inputs":[{"indexed":true,"internalType":"uint256","name":"orderId","type":"uint256"},{"indexed":false,"internalType":"string","name":"shippingCID","type":"string"}],"name":"OrderShipped","type":"event"},{"inputs":[],"name":"agriYield","outputs":[{"internalType":"contract IAgriYield","name":"","type":"address"}],"stateMutability":"view","type":"function"},{"inputs":[{"internalType":"uint256","name":"orderId","type":"uint256"},{"internalType":"string","name":"proofCID","type":"string"}],"name":"confirmReceived","outputs":[],"stateMutability":"nonpayable","type":"function"},{"inputs":[{"internalType":"uint256","name":"listingId","type":"uint256"}],"name":"deactivateListing","outputs":[],"stateMutability":"nonpayable","type":"function"},{"inputs":[{"internalType":"uint256","name":"listingId","type":"uint256"}],"name":"getListing","outputs":[{"components":[{"internalType":"uint256","name":"farmId","type":"uint256"},{"internalType":"address","name":"farmer","type":"address"},{"internalType":"uint256","name":"price","type":"uint256"},{"internalType":"uint256","name":"quantity","type":"uint256"},{"internalType":"uint256","name":"quantityRemaining","type":"uint256"},{"internalType":"string","name":"metadataCID","type":"string"},{"internalType":"bool","name":"isActive","type":"bool"}],"internalType":"struct Marketplace.Listing","name":"","type":"tuple"}],"stateMutability":"view","type":"function"},{"inputs":[{"internalType":"uint256","name":"orderId","type":"uint256"}],"name":"getOrder","outputs":[{"components":[{"internalType":"uint256","name":"listingId","type":"uint256"},{"internalType":"address","name":"buyer","type":"address"},{"internalType":"address","name":"seller","type":"address"},{"internalType":"uint256","name":"price","type":"uint256"},{"internalType":"uint256","name":"quantity","type":"uint256"},{"internalType":"string","name":"shippingCID","type":"string"},{"internalType":"string","name":"proofCID","type":"string"},{"internalType":"enum Marketplace.OrderStatus","name":"status","type":"uint8"},{"internalType":"bool","name":"isDisputed","type":"bool"},{"internalType":"string","name":"disputeReasonCID","type":"string"}],"internalType":"struct Marketplace.Order","name":"","type":"tuple"}],"stateMutability":"view","type":"function"},{"inputs":[{"internalType":"uint256","name":"farmId","type":"uint256"},{"internalType":"uint256","name":"price","type":"uint256"},{"internalType":"uint256","name":"quantity","type":"uint256"},{"internalType":"string","name":"metadataCID","type":"string"}],"name":"listItem","outputs":[{"internalType":"uint256","name":"","type":"uint256"}],"stateMutability":"nonpayable","type":"function"},{"inputs":[{"internalType":"uint256","name":"","type":"uint256"}],"name":"listings","outputs":[{"internalType":"uint256","name":"farmId","type":"uint256"},{"internalType":"address","name":"farmer","type":"address"},{"internalType":"uint256","name":"price","type":"uint256"},{"internalType":"uint256","name":"quantity","type":"uint256"},{"internalType":"uint256","name":"quantityRemaining","type":"uint256"},{"internalType":"string","name":"metadataCID","type":"string"},{"internalType":"bool","name":"isActive","type":"bool"}],"stateMutability":"view","type":"function"},{"inputs":[],"name":"nextListingId","outputs":[{"internalType":"uint256","name":"","type":"uint256"}],"stateMutability":"view","type":"function"},{"inputs":[],"name":"nextOrderId","outputs":[{"internalType":"uint256","name":"","type":"uint256"}],"stateMutability":"view","type":"function"},{"inputs":[{"internalType":"uint256","name":"orderId","type":"uint256"},{"internalType":"string","name":"reasonCID","type":"string"}],"name":"openDispute","outputs":[],"stateMutability":"nonpayable","type":"function"},{"inputs":[{"internalType":"uint256","name":"","type":"uint256"}],"name":"orders","outputs":[{"internalType":"uint256","name":"listingId","type":"uint256"},{"internalType":"address","name":"buyer","type":"address"},{"internalType":"address","name":"seller","type":"address"},{"internalType":"uint256","name":"price","type":"uint256"},{"internalType":"uint256","name":"quantity","type":"uint256"},{"internalType":"string","name":"shippingCID","type":"string"},{"internalType":"string","name":"proofCID","type":"string"},{"internalType":"enum Marketplace.OrderStatus","name":"status","type":"uint8"},{"internalType":"bool","name":"isDisputed","type":"bool"},{"internalType":"string","name":"disputeReasonCID","type":"string"}],"stateMutability":"view","type":"function"},{"inputs":[{"internalType":"uint256","name":"listingId","type":"uint256"},{"internalType":"uint256","name":"quantity","type":"uint256"}],"name":"purchase","outputs":[{"internalType":"uint256","name":"","type":"uint256"}],"stateMutability":"nonpayable","type":"function"},{"inputs":[{"internalType":"uint256","name":"orderId","type":"uint256"}],"name":"releaseFunds","outputs":[],"stateMutability":"nonpayable","type":"function"},{"inputs":[{"internalType":"uint256","name":"orderId","type":"uint256"},{"internalType":"bool","name":"sellerFavor","type":"bool"}],"name":"resolveDispute","outputs":[],"stateMutability":"nonpayable","type":"function"},{"inputs":[{"internalType":"uint256","name":"orderId","type":"uint256"},{"internalType":"string","name":"shippingCID","type":"string"}],"name":"shipOrder","outputs":[],"stateMutability":"nonpayable","type":"function"},{"inputs":[],"name":"stableToken","outputs":[{"internalType":"address","name":"","type":"address"}],"stateMutability":"view","type":"function"},{"inputs":[{"internalType":"uint256","name":"listingId","type":"uint256"},{"internalType":"uint256","name":"price","type":"uint256"},{"internalType":"uint256","name":"quantity","type":"uint256"}],"name":"updateListing","outputs":[],"stateMutability":"nonpayable","type":"function"}],"evm":{"bytecode":{"linkReferences":{},"object":"60c060405260018055600160025534801561001957600080fd5b506040516146c13803806146c1833981810160405281019061003b91906101f3565b6001600081905550600073ffffffffffffffffffffffffffffffffffffffff168273ffffffffffffffffffffffffffffffffffffffff16036100b2576040517f08c379a00000000000000000000000000000000000000000000000000000000081526004016100a990610290565b60405180910390fd5b600073ffffffffffffffffffffffffffffffffffffffff168173ffffffffffffffffffffffffffffffffffffffff1603610121576040517f08c379a0000000000000000000000000000000000000000000000000000000008152600401610118906102fc565b60405180910390fd5b8173ffffffffffffffffffffffffffffffffffffffff1660808173ffffffffffffffffffffffffffffffffffffffff16815250508073ffffffffffffffffffffffffffffffffffffffff1660a08173ffffffffffffffffffffffffffffffffffffffff1681525050505061031c565b600080fd5b600073ffffffffffffffffffffffffffffffffffffffff82169050919050565b60006101c082610195565b9050919050565b6101d0816101b5565b81146101db57600080fd5b50565b6000815190506101ed816101c7565b92915050565b6000806040838503121561020a57610209610190565b5b6000610218858286016101de565b9250506020610229858286016101de565b9150509250929050565b600082825260208201905092915050565b7f4d61726b6574706c6163653a207a65726f20746f6b656e000000000000000000600082015250565b600061027a601783610233565b915061028582610244565b602082019050919050565b600060208201905081810360008301526102a98161026d565b9050919050565b7f4d61726b6574706c6163653a207a65726f20616772695969656c640000000000600082015250565b60006102e6601b83610233565b91506102f1826102b0565b602082019050919050565b60006020820190508181036000830152610315816102d9565b9050919050565b60805160a05161435661036b60003960008181611693015261214301526000818161080a0152818161092b01528181610fce015281816112a201528181611af101526124ec01526143566000f3fe608060405234801561001057600080fd5b506004361061010b5760003560e01c8063904dc067116100a2578063aaccf1ec11610071578063aaccf1ec146102ab578063d09ef241146102c9578063de74e57b146102f9578063f6cf2a161461032f578063f7f1b4641461034b5761010b565b8063904dc0671461021a5780639d07a8e914610238578063a85c38ef14610254578063a9d75b2b1461028d5761010b565b806336f691c4116100de57806336f691c4146101965780633b8d915f146101b25780634d68282f146101ce57806370876c98146101ea5761010b565b80630c86dff914610110578063107a274a1461012c5780632a58b3301461015c57806334b25ee21461017a575b600080fd5b61012a60048036038101906101259190612711565b61037b565b005b61014660048036038101906101419190612771565b61056f565b6040516101539190612935565b60405180910390f35b6101646106c7565b6040516101719190612966565b60405180910390f35b610194600480360381019061018f91906129ad565b6106cd565b005b6101b060048036038101906101ab9190612711565b610a6b565b005b6101cc60048036038101906101c79190612771565b610cbc565b005b6101e860048036038101906101e39190612771565b610e04565b005b61020460048036038101906101ff91906129ed565b61114b565b6040516102119190612966565b60405180910390f35b610222611691565b60405161022f9190612a8c565b60405180910390f35b610252600480360381019061024d9190612711565b6116b5565b005b61026e60048036038101906102699190612771565b6118a9565b6040516102849a99989796959493929190612b86565b60405180910390f35b610295611aef565b6040516102a29190612c37565b60405180910390f35b6102b3611b13565b6040516102c09190612966565b60405180910390f35b6102e360048036038101906102de9190612771565b611b19565b6040516102f09190612d49565b60405180910390f35b610313600480360381019061030e9190612771565b611e1d565b6040516103269796959493929190612d6b565b60405180910390f35b61034960048036038101906103449190612de1565b611f14565b005b61036560048036038101906103609190612e34565b6120b8565b6040516103729190612966565b60405180910390f35b60006004600085815260200190815260200160002090508060010160009054906101000a900473ffffffffffffffffffffffffffffffffffffffff1673ffffffffffffffffffffffffffffffffffffffff163373ffffffffffffffffffffffffffffffffffffffff1614610424576040517f08c379a000000000000000000000000000000000000000000000000000000000815260040161041b90612f08565b60405180910390fd5b6001600581111561043857610437612b00565b5b8160070160009054906101000a900460ff16600581111561045c5761045b612b00565b5b1461049c576040517f08c379a000000000000000000000000000000000000000000000000000000000815260040161049390612f74565b60405180910390fd5b8060070160019054906101000a900460ff16156104ee576040517f08c379a00000000000000000000000000000000000000000000000000000000081526004016104e590612fe0565b60405180910390fd5b60028160070160006101000a81548160ff0219169083600581111561051657610515612b00565b5b0217905550828282600601918261052e92919061323c565b50837f9a19fc83c0457beed1878f7af50b79d6e9ac6bdadf11d24942bcd5bc6f6072a98484604051610561929190613348565b60405180910390a250505050565b61057761257a565b600360008381526020019081526020016000206040518060e0016040529081600082015481526020016001820160009054906101000a900473ffffffffffffffffffffffffffffffffffffffff1673ffffffffffffffffffffffffffffffffffffffff1673ffffffffffffffffffffffffffffffffffffffff16815260200160028201548152602001600382015481526020016004820154815260200160058201805461062390613069565b80601f016020809104026020016040519081016040528092919081815260200182805461064f90613069565b801561069c5780601f106106715761010080835404028352916020019161069c565b820191906000526020600020905b81548152906001019060200180831161067f57829003601f168201915b505050505081526020016006820160009054906101000a900460ff1615151515815250509050919050565b60025481565b6106d5612421565b60006004600084815260200190815260200160002090508060070160019054906101000a900460ff1661073d576040517f08c379a0000000000000000000000000000000000000000000000000000000008152600401610734906133b8565b60405180910390fd5b6004600581111561075157610750612b00565b5b8160070160009054906101000a900460ff16600581111561077557610774612b00565b5b146107b5576040517f08c379a00000000000000000000000000000000000000000000000000000000081526004016107ac90613424565b60405180910390fd5b60058160070160006101000a81548160ff021916908360058111156107dd576107dc612b00565b5b0217905550811561090957600061016773ffffffffffffffffffffffffffffffffffffffff1663eca369177f0000000000000000000000000000000000000000000000000000000000000000308560020160009054906101000a900473ffffffffffffffffffffffffffffffffffffffff1661085c8760030154612467565b6040518563ffffffff1660e01b815260040161087b9493929190613460565b6020604051808303816000875af115801561089a573d6000803e3d6000fd5b505050506040513d601f19601f820116820180604052508101906108be91906134db565b905060168114610903576040517f08c379a00000000000000000000000000000000000000000000000000000000081526004016108fa9061357a565b60405180910390fd5b50610a26565b600061016773ffffffffffffffffffffffffffffffffffffffff1663eca369177f0000000000000000000000000000000000000000000000000000000000000000308560010160009054906101000a900473ffffffffffffffffffffffffffffffffffffffff1661097d8760030154612467565b6040518563ffffffff1660e01b815260040161099c9493929190613460565b6020604051808303816000875af11580156109bb573d6000803e3d6000fd5b505050506040513d601f19601f820116820180604052508101906109df91906134db565b905060168114610a24576040517f08c379a0000000000000000000000000000000000000000000000000000000008152600401610a1b906135e6565b60405180910390fd5b505b827f5a87909bff68caaaaf0b3fd9c74eeccc928832f879315e5c6fb7a73612f26c0c83604051610a569190613606565b60405180910390a250610a676124bc565b5050565b60006004600085815260200190815260200160002090508060010160009054906101000a900473ffffffffffffffffffffffffffffffffffffffff1673ffffffffffffffffffffffffffffffffffffffff163373ffffffffffffffffffffffffffffffffffffffff1614610b14576040517f08c379a0000000000000000000000000000000000000000000000000000000008152600401610b0b90612f08565b60405180910390fd5b60016005811115610b2857610b27612b00565b5b8160070160009054906101000a900460ff166005811115610b4c57610b4b612b00565b5b1480610b8d575060026005811115610b6757610b66612b00565b5b8160070160009054906101000a900460ff166005811115610b8b57610b8a612b00565b5b145b610bcc576040517f08c379a0000000000000000000000000000000000000000000000000000000008152600401610bc39061366d565b60405180910390fd5b8060070160019054906101000a900460ff1615610c1e576040517f08c379a0000000000000000000000000000000000000000000000000000000008152600401610c15906136d9565b60405180910390fd5b60018160070160016101000a81548160ff0219169083151502179055508282826008019182610c4e92919061323c565b5060048160070160006101000a81548160ff02191690836005811115610c7757610c76612b00565b5b0217905550837fa70b5640b40d2ffc2d02b31c5c2b5156808f6bfcb9e4f711ac6bb2fa923babd98484604051610cae929190613348565b60405180910390a250505050565b60006003600083815260200190815260200160002090508060060160009054906101000a900460ff16610d24576040517f08c379a0000000000000000000000000000000000000000000000000000000008152600401610d1b90613745565b60405180910390fd5b8060010160009054906101000a900473ffffffffffffffffffffffffffffffffffffffff1673ffffffffffffffffffffffffffffffffffffffff163373ffffffffffffffffffffffffffffffffffffffff1614610db6576040517f08c379a0000000000000000000000000000000000000000000000000000000008152600401610dad906137b1565b60405180910390fd5b60008160060160006101000a81548160ff021916908315150217905550817fe8a884965a7fb1b7c1efd55ff478bcbd880c4b226a2e2218b83d31c493964ab360405160405180910390a25050565b610e0c612421565b60006004600083815260200190815260200160002090508060010160009054906101000a900473ffffffffffffffffffffffffffffffffffffffff1673ffffffffffffffffffffffffffffffffffffffff163373ffffffffffffffffffffffffffffffffffffffff1614610eb5576040517f08c379a0000000000000000000000000000000000000000000000000000000008152600401610eac90612f08565b60405180910390fd5b60026005811115610ec957610ec8612b00565b5b8160070160009054906101000a900460ff166005811115610eed57610eec612b00565b5b14610f2d576040517f08c379a0000000000000000000000000000000000000000000000000000000008152600401610f249061381d565b60405180910390fd5b8060070160019054906101000a900460ff1615610f7f576040517f08c379a0000000000000000000000000000000000000000000000000000000008152600401610f7690612fe0565b60405180910390fd5b60038160070160006101000a81548160ff02191690836005811115610fa757610fa6612b00565b5b0217905550600061016773ffffffffffffffffffffffffffffffffffffffff1663eca369177f0000000000000000000000000000000000000000000000000000000000000000308560020160009054906101000a900473ffffffffffffffffffffffffffffffffffffffff166110208760030154612467565b6040518563ffffffff1660e01b815260040161103f9493929190613460565b6020604051808303816000875af115801561105e573d6000803e3d6000fd5b505050506040513d601f19601f8201168201806040525081019061108291906134db565b9050601681146110c7576040517f08c379a00000000000000000000000000000000000000000000000000000000081526004016110be90613889565b60405180910390fd5b8160020160009054906101000a900473ffffffffffffffffffffffffffffffffffffffff1673ffffffffffffffffffffffffffffffffffffffff16837f6e3c6096795c8298a218b2cfb8bde42726ff7c9a3d27b4d3ba41ab7f74feb5fb84600301546040516111369190612966565b60405180910390a350506111486124bc565b50565b6000611155612421565b60006003600085815260200190815260200160002090508060060160009054906101000a900460ff166111bd576040517f08c379a00000000000000000000000000000000000000000000000000000000081526004016111b4906138f5565b60405180910390fd5b6000831180156111d1575080600401548311155b611210576040517f08c379a000000000000000000000000000000000000000000000000000000000815260040161120790613961565b60405180910390fd5b60008061121c336124c6565b9150915060168214801561122d5750805b61126c576040517f08c379a0000000000000000000000000000000000000000000000000000000008152600401611263906139cd565b60405180910390fd5b600085846002015461127e9190613a1c565b9050600061016773ffffffffffffffffffffffffffffffffffffffff1663eca369177f000000000000000000000000000000000000000000000000000000000000000033306112cc87612467565b6040518563ffffffff1660e01b81526004016112eb9493929190613460565b6020604051808303816000875af115801561130a573d6000803e3d6000fd5b505050506040513d601f19601f8201168201806040525081019061132e91906134db565b905060168114611373576040517f08c379a000000000000000000000000000000000000000000000000000000000815260040161136a90613ad0565b60405180910390fd5b868560040160008282546113879190613af0565b9250508190555060008560040154036113b85760008560060160006101000a81548160ff0219169083151502179055505b6000600260008154809291906113cd90613b24565b9190505590506040518061014001604052808a81526020013373ffffffffffffffffffffffffffffffffffffffff1681526020018760010160009054906101000a900473ffffffffffffffffffffffffffffffffffffffff1673ffffffffffffffffffffffffffffffffffffffff1681526020018481526020018981526020016040518060200160405280600081525081526020016040518060200160405280600081525081526020016000600581111561148b5761148a612b00565b5b815260200160001515815260200160405180602001604052806000815250815250600460008381526020019081526020016000206000820151816000015560208201518160010160006101000a81548173ffffffffffffffffffffffffffffffffffffffff021916908373ffffffffffffffffffffffffffffffffffffffff16021790555060408201518160020160006101000a81548173ffffffffffffffffffffffffffffffffffffffff021916908373ffffffffffffffffffffffffffffffffffffffff160217905550606082015181600301556080820151816004015560a08201518160050190816115809190613b6c565b5060c08201518160060190816115969190613b6c565b5060e08201518160070160006101000a81548160ff021916908360058111156115c2576115c1612b00565b5b02179055506101008201518160070160016101000a81548160ff0219169083151502179055506101208201518160080190816115fe9190613b6c565b509050503373ffffffffffffffffffffffffffffffffffffffff1689827f3692c2e473686659b62de88a2ceb823a0585c86bf37d11ac339fcd06e497d5c88960010160009054906101000a900473ffffffffffffffffffffffffffffffffffffffff16878d60405161167293929190613c3e565b60405180910390a480965050505050505061168b6124bc565b92915050565b7f000000000000000000000000000000000000000000000000000000000000000081565b60006004600085815260200190815260200160002090508060020160009054906101000a900473ffffffffffffffffffffffffffffffffffffffff1673ffffffffffffffffffffffffffffffffffffffff163373ffffffffffffffffffffffffffffffffffffffff161461175e576040517f08c379a000000000000000000000000000000000000000000000000000000000815260040161175590613cc1565b60405180910390fd5b6000600581111561177257611771612b00565b5b8160070160009054906101000a900460ff16600581111561179657611795612b00565b5b146117d6576040517f08c379a00000000000000000000000000000000000000000000000000000000081526004016117cd90613d53565b60405180910390fd5b8060070160019054906101000a900460ff1615611828576040517f08c379a000000000000000000000000000000000000000000000000000000000815260040161181f90612fe0565b60405180910390fd5b60018160070160006101000a81548160ff021916908360058111156118505761184f612b00565b5b0217905550828282600501918261186892919061323c565b50837f2ae74c36cb50bb709262a8084a193dd793efd883c13e0319a9e6e5a84abf125f848460405161189b929190613348565b60405180910390a250505050565b60046020528060005260406000206000915090508060000154908060010160009054906101000a900473ffffffffffffffffffffffffffffffffffffffff16908060020160009054906101000a900473ffffffffffffffffffffffffffffffffffffffff169080600301549080600401549080600501805461192a90613069565b80601f016020809104026020016040519081016040528092919081815260200182805461195690613069565b80156119a35780601f10611978576101008083540402835291602001916119a3565b820191906000526020600020905b81548152906001019060200180831161198657829003601f168201915b5050505050908060060180546119b890613069565b80601f01602080910402602001604051908101604052809291908181526020018280546119e490613069565b8015611a315780601f10611a0657610100808354040283529160200191611a31565b820191906000526020600020905b815481529060010190602001808311611a1457829003601f168201915b5050505050908060070160009054906101000a900460ff16908060070160019054906101000a900460ff1690806008018054611a6c90613069565b80601f0160208091040260200160405190810160405280929190818152602001828054611a9890613069565b8015611ae55780601f10611aba57610100808354040283529160200191611ae5565b820191906000526020600020905b815481529060010190602001808311611ac857829003601f168201915b505050505090508a565b7f000000000000000000000000000000000000000000000000000000000000000081565b60015481565b611b216125cf565b6004600083815260200190815260200160002060405180610140016040529081600082015481526020016001820160009054906101000a900473ffffffffffffffffffffffffffffffffffffffff1673ffffffffffffffffffffffffffffffffffffffff1673ffffffffffffffffffffffffffffffffffffffff1681526020016002820160009054906101000a900473ffffffffffffffffffffffffffffffffffffffff1673ffffffffffffffffffffffffffffffffffffffff1673ffffffffffffffffffffffffffffffffffffffff1681526020016003820154815260200160048201548152602001600582018054611c1a90613069565b80601f0160208091040260200160405190810160405280929190818152602001828054611c4690613069565b8015611c935780601f10611c6857610100808354040283529160200191611c93565b820191906000526020600020905b815481529060010190602001808311611c7657829003601f168201915b50505050508152602001600682018054611cac90613069565b80601f0160208091040260200160405190810160405280929190818152602001828054611cd890613069565b8015611d255780601f10611cfa57610100808354040283529160200191611d25565b820191906000526020600020905b815481529060010190602001808311611d0857829003601f168201915b505050505081526020016007820160009054906101000a900460ff166005811115611d5357611d52612b00565b5b6005811115611d6557611d64612b00565b5b81526020016007820160019054906101000a900460ff16151515158152602001600882018054611d9490613069565b80601f0160208091040260200160405190810160405280929190818152602001828054611dc090613069565b8015611e0d5780601f10611de257610100808354040283529160200191611e0d565b820191906000526020600020905b815481529060010190602001808311611df057829003601f168201915b5050505050815250509050919050565b60036020528060005260406000206000915090508060000154908060010160009054906101000a900473ffffffffffffffffffffffffffffffffffffffff1690806002015490806003015490806004015490806005018054611e7e90613069565b80601f0160208091040260200160405190810160405280929190818152602001828054611eaa90613069565b8015611ef75780601f10611ecc57610100808354040283529160200191611ef7565b820191906000526020600020905b815481529060010190602001808311611eda57829003601f168201915b5050505050908060060160009054906101000a900460ff16905087565b60006003600085815260200190815260200160002090508060060160009054906101000a900460ff16611f7c576040517f08c379a0000000000000000000000000000000000000000000000000000000008152600401611f7390613dbf565b60405180910390fd5b8060010160009054906101000a900473ffffffffffffffffffffffffffffffffffffffff1673ffffffffffffffffffffffffffffffffffffffff163373ffffffffffffffffffffffffffffffffffffffff161461200e576040517f08c379a0000000000000000000000000000000000000000000000000000000008152600401612005906137b1565b60405180910390fd5b60008311801561201e5750600082115b61205d576040517f08c379a000000000000000000000000000000000000000000000000000000000815260040161205490613e2b565b60405180910390fd5b828160020181905550818160030181905550818160040181905550837ff7adc9a0380a940c6058d78194df6a9b9fa5bb431bbad15194913bb611f3f4f784846040516120aa929190613e4b565b60405180910390a250505050565b60008085116120fc576040517f08c379a00000000000000000000000000000000000000000000000000000000081526004016120f390613ec0565b60405180910390fd5b6000841161213f576040517f08c379a000000000000000000000000000000000000000000000000000000000815260040161213690613f2c565b60405180910390fd5b60007f000000000000000000000000000000000000000000000000000000000000000073ffffffffffffffffffffffffffffffffffffffff166353fd88bf886040518263ffffffff1660e01b815260040161219a9190612966565b600060405180830381865afa1580156121b7573d6000803e3d6000fd5b505050506040513d6000823e3d601f19601f820116820180604052508101906121e091906140b8565b5050505050505090508073ffffffffffffffffffffffffffffffffffffffff163373ffffffffffffffffffffffffffffffffffffffff1614612257576040517f08c379a000000000000000000000000000000000000000000000000000000000815260040161224e906141d6565b60405180910390fd5b60006001600081548092919061226c90613b24565b9190505590506040518060e001604052808981526020013373ffffffffffffffffffffffffffffffffffffffff16815260200188815260200187815260200187815260200186868080601f016020809104026020016040519081016040528093929190818152602001838380828437600081840152601f19601f82011690508083019250505050505050815260200160011515815250600360008381526020019081526020016000206000820151816000015560208201518160010160006101000a81548173ffffffffffffffffffffffffffffffffffffffff021916908373ffffffffffffffffffffffffffffffffffffffff16021790555060408201518160020155606082015181600301556080820151816004015560a08201518160050190816123999190613b6c565b5060c08201518160060160006101000a81548160ff0219169083151502179055509050503373ffffffffffffffffffffffffffffffffffffffff1688827f4fe3a1934f87b1b98d97a273d562beb46c58aa4ecf7bf454c8c12915c6626dd08a8a8a8a60405161240b94939291906141f6565b60405180910390a4809250505095945050505050565b60026000540361245d576040517f3ee5aeb500000000000000000000000000000000000000000000000000000000815260040160405180910390fd5b6002600081905550565b6000677fffffffffffffff8211156124b4576040517f08c379a00000000000000000000000000000000000000000000000000000000081526004016124ab90614282565b60405180910390fd5b819050919050565b6001600081905550565b60008060008061016773ffffffffffffffffffffffffffffffffffffffff1663f2c31ff47f0000000000000000000000000000000000000000000000000000000000000000876040518363ffffffff1660e01b81526004016125299291906142a2565b6040805180830381865afa158015612545573d6000803e3d6000fd5b505050506040513d601f19601f8201168201806040525081019061256991906142e0565b915091508181935093505050915091565b6040518060e0016040528060008152602001600073ffffffffffffffffffffffffffffffffffffffff168152602001600081526020016000815260200160008152602001606081526020016000151581525090565b60405180610140016040528060008152602001600073ffffffffffffffffffffffffffffffffffffffff168152602001600073ffffffffffffffffffffffffffffffffffffffff168152602001600081526020016000815260200160608152602001606081526020016000600581111561264c5761264b612b00565b5b8152602001600015158152602001606081525090565b6000604051905090565b600080fd5b600080fd5b6000819050919050565b61268981612676565b811461269457600080fd5b50565b6000813590506126a681612680565b92915050565b600080fd5b600080fd5b600080fd5b60008083601f8401126126d1576126d06126ac565b5b8235905067ffffffffffffffff8111156126ee576126ed6126b1565b5b60208301915083600182028301111561270a576127096126b6565b5b9250929050565b60008060006040848603121561272a5761272961266c565b5b600061273886828701612697565b935050602084013567ffffffffffffffff81111561275957612758612671565b5b612765868287016126bb565b92509250509250925092565b6000602082840312156127875761278661266c565b5b600061279584828501612697565b91505092915050565b6127a781612676565b82525050565b600073ffffffffffffffffffffffffffffffffffffffff82169050919050565b60006127d8826127ad565b9050919050565b6127e8816127cd565b82525050565b600081519050919050565b600082825260208201905092915050565b60005b8381101561282857808201518184015260208101905061280d565b60008484015250505050565b6000601f19601f8301169050919050565b6000612850826127ee565b61285a81856127f9565b935061286a81856020860161280a565b61287381612834565b840191505092915050565b60008115159050919050565b6128938161287e565b82525050565b600060e0830160008301516128b1600086018261279e565b5060208301516128c460208601826127df565b5060408301516128d7604086018261279e565b5060608301516128ea606086018261279e565b5060808301516128fd608086018261279e565b5060a083015184820360a08601526129158282612845565b91505060c083015161292a60c086018261288a565b508091505092915050565b6000602082019050818103600083015261294f8184612899565b905092915050565b61296081612676565b82525050565b600060208201905061297b6000830184612957565b92915050565b61298a8161287e565b811461299557600080fd5b50565b6000813590506129a781612981565b92915050565b600080604083850312156129c4576129c361266c565b5b60006129d285828601612697565b92505060206129e385828601612998565b9150509250929050565b60008060408385031215612a0457612a0361266c565b5b6000612a1285828601612697565b9250506020612a2385828601612697565b9150509250929050565b6000819050919050565b6000612a52612a4d612a48846127ad565b612a2d565b6127ad565b9050919050565b6000612a6482612a37565b9050919050565b6000612a7682612a59565b9050919050565b612a8681612a6b565b82525050565b6000602082019050612aa16000830184612a7d565b92915050565b612ab0816127cd565b82525050565b600082825260208201905092915050565b6000612ad2826127ee565b612adc8185612ab6565b9350612aec81856020860161280a565b612af581612834565b840191505092915050565b7f4e487b7100000000000000000000000000000000000000000000000000000000600052602160045260246000fd5b60068110612b4057612b3f612b00565b5b50565b6000819050612b5182612b2f565b919050565b6000612b6182612b43565b9050919050565b612b7181612b56565b82525050565b612b808161287e565b82525050565b600061014082019050612b9c600083018d612957565b612ba9602083018c612aa7565b612bb6604083018b612aa7565b612bc3606083018a612957565b612bd06080830189612957565b81810360a0830152612be28188612ac7565b905081810360c0830152612bf68187612ac7565b9050612c0560e0830186612b68565b612c13610100830185612b77565b818103610120830152612c268184612ac7565b90509b9a5050505050505050505050565b6000602082019050612c4c6000830184612aa7565b92915050565b612c5b81612b56565b82525050565b600061014083016000830151612c7a600086018261279e565b506020830151612c8d60208601826127df565b506040830151612ca060408601826127df565b506060830151612cb3606086018261279e565b506080830151612cc6608086018261279e565b5060a083015184820360a0860152612cde8282612845565b91505060c083015184820360c0860152612cf88282612845565b91505060e0830151612d0d60e0860182612c52565b50610100830151612d2261010086018261288a565b50610120830151848203610120860152612d3c8282612845565b9150508091505092915050565b60006020820190508181036000830152612d638184612c61565b905092915050565b600060e082019050612d80600083018a612957565b612d8d6020830189612aa7565b612d9a6040830188612957565b612da76060830187612957565b612db46080830186612957565b81810360a0830152612dc68185612ac7565b9050612dd560c0830184612b77565b98975050505050505050565b600080600060608486031215612dfa57612df961266c565b5b6000612e0886828701612697565b9350506020612e1986828701612697565b9250506040612e2a86828701612697565b9150509250925092565b600080600080600060808688031215612e5057612e4f61266c565b5b6000612e5e88828901612697565b9550506020612e6f88828901612697565b9450506040612e8088828901612697565b935050606086013567ffffffffffffffff811115612ea157612ea0612671565b5b612ead888289016126bb565b92509250509295509295909350565b7f4d61726b6574706c6163653a206f6e6c79206275796572000000000000000000600082015250565b6000612ef2601783612ab6565b9150612efd82612ebc565b602082019050919050565b60006020820190508181036000830152612f2181612ee5565b9050919050565b7f4d61726b6574706c6163653a206e6f7420736869707065640000000000000000600082015250565b6000612f5e601883612ab6565b9150612f6982612f28565b602082019050919050565b60006020820190508181036000830152612f8d81612f51565b9050919050565b7f4d61726b6574706c6163653a2064697370757465640000000000000000000000600082015250565b6000612fca601583612ab6565b9150612fd582612f94565b602082019050919050565b60006020820190508181036000830152612ff981612fbd565b9050919050565b600082905092915050565b7f4e487b7100000000000000000000000000000000000000000000000000000000600052604160045260246000fd5b7f4e487b7100000000000000000000000000000000000000000000000000000000600052602260045260246000fd5b6000600282049050600182168061308157607f821691505b6020821081036130945761309361303a565b5b50919050565b60008190508160005260206000209050919050565b60006020601f8301049050919050565b600082821b905092915050565b6000600883026130fc7fffffffffffffffffffffffffffffffffffffffffffffffffffffffffffffffff826130bf565b61310686836130bf565b95508019841693508086168417925050509392505050565b600061313961313461312f84612676565b612a2d565b612676565b9050919050565b6000819050919050565b6131538361311e565b61316761315f82613140565b8484546130cc565b825550505050565b600090565b61317c61316f565b61318781848461314a565b505050565b5b818110156131ab576131a0600082613174565b60018101905061318d565b5050565b601f8211156131f0576131c18161309a565b6131ca846130af565b810160208510156131d9578190505b6131ed6131e5856130af565b83018261318c565b50505b505050565b600082821c905092915050565b6000613213600019846008026131f5565b1980831691505092915050565b600061322c8383613202565b9150826002028217905092915050565b6132468383613000565b67ffffffffffffffff81111561325f5761325e61300b565b5b6132698254613069565b6132748282856131af565b6000601f8311600181146132a35760008415613291578287013590505b61329b8582613220565b865550613303565b601f1984166132b18661309a565b60005b828110156132d9578489013582556001820191506020850194506020810190506132b4565b868310156132f657848901356132f2601f891682613202565b8355505b6001600288020188555050505b50505050505050565b82818337600083830152505050565b60006133278385612ab6565b935061333483858461330c565b61333d83612834565b840190509392505050565b6000602082019050818103600083015261336381848661331b565b90509392505050565b7f4d61726b6574706c6163653a206e6f2064697370757465000000000000000000600082015250565b60006133a2601783612ab6565b91506133ad8261336c565b602082019050919050565b600060208201905081810360008301526133d181613395565b9050919050565b7f4d61726b6574706c6163653a206e6f7420646973707574656400000000000000600082015250565b600061340e601983612ab6565b9150613419826133d8565b602082019050919050565b6000602082019050818103600083015261343d81613401565b9050919050565b60008160070b9050919050565b61345a81613444565b82525050565b60006080820190506134756000830187612aa7565b6134826020830186612aa7565b61348f6040830185612aa7565b61349c6060830184613451565b95945050505050565b6000819050919050565b6134b8816134a5565b81146134c357600080fd5b50565b6000815190506134d5816134af565b92915050565b6000602082840312156134f1576134f061266c565b5b60006134ff848285016134c6565b91505092915050565b7f4d61726b6574706c6163653a2073656c6c6572207472616e736665722066616960008201527f6c65640000000000000000000000000000000000000000000000000000000000602082015250565b6000613564602383612ab6565b915061356f82613508565b604082019050919050565b6000602082019050818103600083015261359381613557565b9050919050565b7f4d61726b6574706c6163653a20726566756e64206661696c6564000000000000600082015250565b60006135d0601a83612ab6565b91506135db8261359a565b602082019050919050565b600060208201905081810360008301526135ff816135c3565b9050919050565b600060208201905061361b6000830184612b77565b92915050565b7f4d61726b6574706c6163653a2063616e6e6f742064697370757465206e6f7700600082015250565b6000613657601f83612ab6565b915061366282613621565b602082019050919050565b600060208201905081810360008301526136868161364a565b9050919050565b7f4d61726b6574706c6163653a20616c7265616479206469737075746564000000600082015250565b60006136c3601d83612ab6565b91506136ce8261368d565b602082019050919050565b600060208201905081810360008301526136f2816136b6565b9050919050565b7f4d61726b6574706c6163653a20616c726561647920696e616374697665000000600082015250565b600061372f601d83612ab6565b915061373a826136f9565b602082019050919050565b6000602082019050818103600083015261375e81613722565b9050919050565b7f4d61726b6574706c6163653a206f6e6c79206661726d65720000000000000000600082015250565b600061379b601883612ab6565b91506137a682613765565b602082019050919050565b600060208201905081810360008301526137ca8161378e565b9050919050565b7f4d61726b6574706c6163653a206e6f7420726563656976656400000000000000600082015250565b6000613807601983612ab6565b9150613812826137d1565b602082019050919050565b60006020820190508181036000830152613836816137fa565b9050919050565b7f4d61726b6574706c6163653a2072656c65617365206661696c65640000000000600082015250565b6000613873601b83612ab6565b915061387e8261383d565b602082019050919050565b600060208201905081810360008301526138a281613866565b9050919050565b7f4d61726b6574706c6163653a206c697374696e6720696e616374697665000000600082015250565b60006138df601d83612ab6565b91506138ea826138a9565b602082019050919050565b6000602082019050818103600083015261390e816138d2565b9050919050565b7f4d61726b6574706c6163653a20696e76616c6964207174790000000000000000600082015250565b600061394b601883612ab6565b915061395682613915565b602082019050919050565b6000602082019050818103600083015261397a8161393e565b9050919050565b7f4d61726b6574706c6163653a206275796572204b594320726571756972656400600082015250565b60006139b7601f83612ab6565b91506139c282613981565b602082019050919050565b600060208201905081810360008301526139e6816139aa565b9050919050565b7f4e487b7100000000000000000000000000000000000000000000000000000000600052601160045260246000fd5b6000613a2782612676565b9150613a3283612676565b9250828202613a4081612676565b91508282048414831517613a5757613a566139ed565b5b5092915050565b7f4d61726b6574706c6163653a20746f6b656e207472616e73666572206661696c60008201527f6564000000000000000000000000000000000000000000000000000000000000602082015250565b6000613aba602283612ab6565b9150613ac582613a5e565b604082019050919050565b60006020820190508181036000830152613ae981613aad565b9050919050565b6000613afb82612676565b9150613b0683612676565b9250828203905081811115613b1e57613b1d6139ed565b5b92915050565b6000613b2f82612676565b91507fffffffffffffffffffffffffffffffffffffffffffffffffffffffffffffffff8203613b6157613b606139ed565b5b600182019050919050565b613b75826127ee565b67ffffffffffffffff811115613b8e57613b8d61300b565b5b613b988254613069565b613ba38282856131af565b600060209050601f831160018114613bd65760008415613bc4578287015190505b613bce8582613220565b865550613c36565b601f198416613be48661309a565b60005b82811015613c0c57848901518255600182019150602085019450602081019050613be7565b86831015613c295784890151613c25601f891682613202565b8355505b6001600288020188555050505b505050505050565b6000606082019050613c536000830186612aa7565b613c606020830185612957565b613c6d6040830184612957565b949350505050565b7f4d61726b6574706c6163653a206f6e6c792073656c6c65720000000000000000600082015250565b6000613cab601883612ab6565b9150613cb682613c75565b602082019050919050565b60006020820190508181036000830152613cda81613c9e565b9050919050565b7f4d61726b6574706c6163653a206e6f7420696e2063726561746564207374617460008201527f6500000000000000000000000000000000000000000000000000000000000000602082015250565b6000613d3d602183612ab6565b9150613d4882613ce1565b604082019050919050565b60006020820190508181036000830152613d6c81613d30565b9050919050565b7f4d61726b6574706c6163653a20696e6163746976650000000000000000000000600082015250565b6000613da9601583612ab6565b9150613db482613d73565b602082019050919050565b60006020820190508181036000830152613dd881613d9c565b9050919050565b7f4d61726b6574706c6163653a20696e76616c6964206172677300000000000000600082015250565b6000613e15601983612ab6565b9150613e2082613ddf565b602082019050919050565b60006020820190508181036000830152613e4481613e08565b9050919050565b6000604082019050613e606000830185612957565b613e6d6020830184612957565b9392505050565b7f4d61726b6574706c6163653a2070726963653e30000000000000000000000000600082015250565b6000613eaa601483612ab6565b9150613eb582613e74565b602082019050919050565b60006020820190508181036000830152613ed981613e9d565b9050919050565b7f4d61726b6574706c6163653a207174793e300000000000000000000000000000600082015250565b6000613f16601283612ab6565b9150613f2182613ee0565b602082019050919050565b60006020820190508181036000830152613f4581613f09565b9050919050565b613f55816127cd565b8114613f6057600080fd5b50565b600081519050613f7281613f4c565b92915050565b600081519050613f8781612680565b92915050565b600060ff82169050919050565b613fa381613f8d565b8114613fae57600080fd5b50565b600081519050613fc081613f9a565b92915050565b600080fd5b613fd482612834565b810181811067ffffffffffffffff82111715613ff357613ff261300b565b5b80604052505050565b6000614006612662565b90506140128282613fcb565b919050565b600067ffffffffffffffff8211156140325761403161300b565b5b61403b82612834565b9050602081019050919050565b600061405b61405684614017565b613ffc565b90508281526020810184848401111561407757614076613fc6565b5b61408284828561280a565b509392505050565b600082601f83011261409f5761409e6126ac565b5b81516140af848260208601614048565b91505092915050565b600080600080600080600080610100898b0312156140d9576140d861266c565b5b60006140e78b828c01613f63565b98505060206140f88b828c01613f78565b97505060406141098b828c01613f78565b965050606061411a8b828c01613f78565b955050608061412b8b828c01613f78565b94505060a061413c8b828c01613f78565b93505060c061414d8b828c01613fb1565b92505060e089015167ffffffffffffffff81111561416e5761416d612671565b5b61417a8b828c0161408a565b9150509295985092959890939650565b7f4d61726b6574706c6163653a206f6e6c79206661726d206f776e657200000000600082015250565b60006141c0601c83612ab6565b91506141cb8261418a565b602082019050919050565b600060208201905081810360008301526141ef816141b3565b9050919050565b600060608201905061420b6000830187612957565b6142186020830186612957565b818103604083015261422b81848661331b565b905095945050505050565b7f4d61726b6574706c6163653a20616d6f756e7420746f6f206c61726765000000600082015250565b600061426c601d83612ab6565b915061427782614236565b602082019050919050565b6000602082019050818103600083015261429b8161425f565b9050919050565b60006040820190506142b76000830185612aa7565b6142c46020830184612aa7565b9392505050565b6000815190506142da81612981565b92915050565b600080604083850312156142f7576142f661266c565b5b6000614305858286016134c6565b9250506020614316858286016142cb565b915050925092905056fea2646970667358221220628c47a6d3ad443bcf4d38494782ab2fdf38eb9cd9912a66c8dec5ef02a3703864736f6c634300081c0033","opcodes":"PUSH1 0xC0 PUSH1 0x40 MSTORE PUSH1 0x1 DUP1 SSTORE PUSH1 0x1 PUSH1 0x2 SSTORE CALLVALUE DUP1 ISZERO PUSH2 0x19 JUMPI PUSH1 0x0 DUP1 REVERT JUMPDEST POP PUSH1 0x40 MLOAD PUSH2 0x46C1 CODESIZE SUB DUP1 PUSH2 0x46C1 DUP4 CODECOPY DUP2 DUP2 ADD PUSH1 0x40 MSTORE DUP2 ADD SWAP1 PUSH2 0x3B SWAP2 SWAP1 PUSH2 0x1F3 JUMP JUMPDEST PUSH1 0x1 PUSH1 0x0 DUP2 SWAP1 SSTORE POP PUSH1 0x0 PUSH20 0xFFFFFFFFFFFFFFFFFFFFFFFFFFFFFFFFFFFFFFFF AND DUP3 PUSH20 0xFFFFFFFFFFFFFFFFFFFFFFFFFFFFFFFFFFFFFFFF AND SUB PUSH2 0xB2 JUMPI PUSH1 0x40 MLOAD PUSH32 0x8C379A000000000000000000000000000000000000000000000000000000000 DUP2 MSTORE PUSH1 0x4 ADD PUSH2 0xA9 SWAP1 PUSH2 0x290 JUMP JUMPDEST PUSH1 0x40 MLOAD DUP1 SWAP2 SUB SWAP1 REVERT JUMPDEST PUSH1 0x0 PUSH20 0xFFFFFFFFFFFFFFFFFFFFFFFFFFFFFFFFFFFFFFFF AND DUP2 PUSH20 0xFFFFFFFFFFFFFFFFFFFFFFFFFFFFFFFFFFFFFFFF AND SUB PUSH2 0x121 JUMPI PUSH1 0x40 MLOAD PUSH32 0x8C379A000000000000000000000000000000000000000000000000000000000 DUP2 MSTORE PUSH1 0x4 ADD PUSH2 0x118 SWAP1 PUSH2 0x2FC JUMP JUMPDEST PUSH1 0x40 MLOAD DUP1 SWAP2 SUB SWAP1 REVERT JUMPDEST DUP2 PUSH20 0xFFFFFFFFFFFFFFFFFFFFFFFFFFFFFFFFFFFFFFFF AND PUSH1 0x80 DUP2 PUSH20 0xFFFFFFFFFFFFFFFFFFFFFFFFFFFFFFFFFFFFFFFF AND DUP2 MSTORE POP POP DUP1 PUSH20 0xFFFFFFFFFFFFFFFFFFFFFFFFFFFFFFFFFFFFFFFF AND PUSH1 0xA0 DUP2 PUSH20 0xFFFFFFFFFFFFFFFFFFFFFFFFFFFFFFFFFFFFFFFF AND DUP2 MSTORE POP POP POP POP PUSH2 0x31C JUMP JUMPDEST PUSH1 0x0 DUP1 REVERT JUMPDEST PUSH1 0x0 PUSH20 0xFFFFFFFFFFFFFFFFFFFFFFFFFFFFFFFFFFFFFFFF DUP3 AND SWAP1 POP SWAP2 SWAP1 POP JUMP JUMPDEST PUSH1 0x0 PUSH2 0x1C0 DUP3 PUSH2 0x195 JUMP JUMPDEST SWAP1 POP SWAP2 SWAP1 POP JUMP JUMPDEST PUSH2 0x1D0 DUP2 PUSH2 0x1B5 JUMP JUMPDEST DUP2 EQ PUSH2 0x1DB JUMPI PUSH1 0x0 DUP1 REVERT JUMPDEST POP JUMP JUMPDEST PUSH1 0x0 DUP2 MLOAD SWAP1 POP PUSH2 0x1ED DUP2 PUSH2 0x1C7 JUMP JUMPDEST SWAP3 SWAP2 POP POP JUMP JUMPDEST PUSH1 0x0 DUP1 PUSH1 0x40 DUP4 DUP6 SUB SLT ISZERO PUSH2 0x20A JUMPI PUSH2 0x209 PUSH2 0x190 JUMP JUMPDEST JUMPDEST PUSH1 0x0 PUSH2 0x218 DUP6 DUP3 DUP7 ADD PUSH2 0x1DE JUMP JUMPDEST SWAP3 POP POP PUSH1 0x20 PUSH2 0x229 DUP6 DUP3 DUP7 ADD PUSH2 0x1DE JUMP JUMPDEST SWAP2 POP POP SWAP3 POP SWAP3 SWAP1 POP JUMP JUMPDEST PUSH1 0x0 DUP3 DUP3 MSTORE PUSH1 0x20 DUP3 ADD SWAP1 POP SWAP3 SWAP2 POP POP JUMP JUMPDEST PUSH32 0x4D61726B6574706C6163653A207A65726F20746F6B656E000000000000000000 PUSH1 0x0 DUP3 ADD MSTORE POP JUMP JUMPDEST PUSH1 0x0 PUSH2 0x27A PUSH1 0x17 DUP4 PUSH2 0x233 JUMP JUMPDEST SWAP2 POP PUSH2 0x285 DUP3 PUSH2 0x244 JUMP JUMPDEST PUSH1 0x20 DUP3 ADD SWAP1 POP SWAP2 SWAP1 POP JUMP JUMPDEST PUSH1 0x0 PUSH1 0x20 DUP3 ADD SWAP1 POP DUP2 DUP2 SUB PUSH1 0x0 DUP4 ADD MSTORE PUSH2 0x2A9 DUP2 PUSH2 0x26D JUMP JUMPDEST SWAP1 POP SWAP2 SWAP1 POP JUMP JUMPDEST PUSH32 0x4D61726B6574706C6163653A207A65726F20616772695969656C640000000000 PUSH1 0x0 DUP3 ADD MSTORE POP JUMP JUMPDEST PUSH1 0x0 PUSH2 0x2E6 PUSH1 0x1B DUP4 PUSH2 0x233 JUMP JUMPDEST SWAP2 POP PUSH2 0x2F1 DUP3 PUSH2 0x2B0 JUMP JUMPDEST PUSH1 0x20 DUP3 ADD SWAP1 POP SWAP2 SWAP1 POP JUMP JUMPDEST PUSH1 0x0 PUSH1 0x20 DUP3 ADD SWAP1 POP DUP2 DUP2 SUB PUSH1 0x0 DUP4 ADD MSTORE PUSH2 0x315 DUP2 PUSH2 0x2D9 JUMP JUMPDEST SWAP1 POP SWAP2 SWAP1 POP JUMP JUMPDEST PUSH1 0x80 MLOAD PUSH1 0xA0 MLOAD PUSH2 0x4356 PUSH2 0x36B PUSH1 0x0 CODECOPY PUSH1 0x0 DUP2 DUP2 PUSH2 0x1693 ADD MSTORE PUSH2 0x2143 ADD MSTORE PUSH1 0x0 DUP2 DUP2 PUSH2 0x80A ADD MSTORE DUP2 DUP2 PUSH2 0x92B ADD MSTORE DUP2 DUP2 PUSH2 0xFCE ADD MSTORE DUP2 DUP2 PUSH2 0x12A2 ADD MSTORE DUP2 DUP2 PUSH2 0x1AF1 ADD MSTORE PUSH2 0x24EC ADD MSTORE PUSH2 0x4356 PUSH1 0x0 RETURN INVALID PUSH1 0x80 PUSH1 0x40 MSTORE CALLVALUE DUP1 ISZERO PUSH2 0x10 JUMPI PUSH1 0x0 DUP1 REVERT JUMPDEST POP PUSH1 0x4 CALLDATASIZE LT PUSH2 0x10B JUMPI PUSH1 0x0 CALLDATALOAD PUSH1 0xE0 SHR DUP1 PUSH4 0x904DC067 GT PUSH2 0xA2 JUMPI DUP1 PUSH4 0xAACCF1EC GT PUSH2 0x71 JUMPI DUP1 PUSH4 0xAACCF1EC EQ PUSH2 0x2AB JUMPI DUP1 PUSH4 0xD09EF241 EQ PUSH2 0x2C9 JUMPI DUP1 PUSH4 0xDE74E57B EQ PUSH2 0x2F9 JUMPI DUP1 PUSH4 0xF6CF2A16 EQ PUSH2 0x32F JUMPI DUP1 PUSH4 0xF7F1B464 EQ PUSH2 0x34B JUMPI PUSH2 0x10B JUMP JUMPDEST DUP1 PUSH4 0x904DC067 EQ PUSH2 0x21A JUMPI DUP1 PUSH4 0x9D07A8E9 EQ PUSH2 0x238 JUMPI DUP1 PUSH4 0xA85C38EF EQ PUSH2 0x254 JUMPI DUP1 PUSH4 0xA9D75B2B EQ PUSH2 0x28D JUMPI PUSH2 0x10B JUMP JUMPDEST DUP1 PUSH4 0x36F691C4 GT PUSH2 0xDE JUMPI DUP1 PUSH4 0x36F691C4 EQ PUSH2 0x196 JUMPI DUP1 PUSH4 0x3B8D915F EQ PUSH2 0x1B2 JUMPI DUP1 PUSH4 0x4D68282F EQ PUSH2 0x1CE JUMPI DUP1 PUSH4 0x70876C98 EQ PUSH2 0x1EA JUMPI PUSH2 0x10B JUMP JUMPDEST DUP1 PUSH4 0xC86DFF9 EQ PUSH2 0x110 JUMPI DUP1 PUSH4 0x107A274A EQ PUSH2 0x12C JUMPI DUP1 PUSH4 0x2A58B330 EQ PUSH2 0x15C JUMPI DUP1 PUSH4 0x34B25EE2 EQ PUSH2 0x17A JUMPI JUMPDEST PUSH1 0x0 DUP1 REVERT JUMPDEST PUSH2 0x12A PUSH1 0x4 DUP1 CALLDATASIZE SUB DUP2 ADD SWAP1 PUSH2 0x125 SWAP2 SWAP1 PUSH2 0x2711 JUMP JUMPDEST PUSH2 0x37B JUMP JUMPDEST STOP JUMPDEST PUSH2 0x146 PUSH1 0x4 DUP1 CALLDATASIZE SUB DUP2 ADD SWAP1 PUSH2 0x141 SWAP2 SWAP1 PUSH2 0x2771 JUMP JUMPDEST PUSH2 0x56F JUMP JUMPDEST PUSH1 0x40 MLOAD PUSH2 0x153 SWAP2 SWAP1 PUSH2 0x2935 JUMP JUMPDEST PUSH1 0x40 MLOAD DUP1 SWAP2 SUB SWAP1 RETURN JUMPDEST PUSH2 0x164 PUSH2 0x6C7 JUMP JUMPDEST PUSH1 0x40 MLOAD PUSH2 0x171 SWAP2 SWAP1 PUSH2 0x2966 JUMP JUMPDEST PUSH1 0x40 MLOAD DUP1 SWAP2 SUB SWAP1 RETURN JUMPDEST PUSH2 0x194 PUSH1 0x4 DUP1 CALLDATASIZE SUB DUP2 ADD SWAP1 PUSH2 0x18F SWAP2 SWAP1 PUSH2 0x29AD JUMP JUMPDEST PUSH2 0x6CD JUMP JUMPDEST STOP JUMPDEST PUSH2 0x1B0 PUSH1 0x4 DUP1 CALLDATASIZE SUB DUP2 ADD SWAP1 PUSH2 0x1AB SWAP2 SWAP1 PUSH2 0x2711 JUMP JUMPDEST PUSH2 0xA6B JUMP JUMPDEST STOP JUMPDEST PUSH2 0x1CC PUSH1 0x4 DUP1 CALLDATASIZE SUB DUP2 ADD SWAP1 PUSH2 0x1C7 SWAP2 SWAP1 PUSH2 0x2771 JUMP JUMPDEST PUSH2 0xCBC JUMP JUMPDEST STOP JUMPDEST PUSH2 0x1E8 PUSH1 0x4 DUP1 CALLDATASIZE SUB DUP2 ADD SWAP1 PUSH2 0x1E3 SWAP2 SWAP1 PUSH2 0x2771 JUMP JUMPDEST PUSH2 0xE04 JUMP JUMPDEST STOP JUMPDEST PUSH2 0x204 PUSH1 0x4 DUP1 CALLDATASIZE SUB DUP2 ADD SWAP1 PUSH2 0x1FF SWAP2 SWAP1 PUSH2 0x29ED JUMP JUMPDEST PUSH2 0x114B JUMP JUMPDEST PUSH1 0x40 MLOAD PUSH2 0x211 SWAP2 SWAP1 PUSH2 0x2966 JUMP JUMPDEST PUSH1 0x40 MLOAD DUP1 SWAP2 SUB SWAP1 RETURN JUMPDEST PUSH2 0x222 PUSH2 0x1691 JUMP JUMPDEST PUSH1 0x40 MLOAD PUSH2 0x22F SWAP2 SWAP1 PUSH2 0x2A8C JUMP JUMPDEST PUSH1 0x40 MLOAD DUP1 SWAP2 SUB SWAP1 RETURN JUMPDEST PUSH2 0x252 PUSH1 0x4 DUP1 CALLDATASIZE SUB DUP2 ADD SWAP1 PUSH2 0x24D SWAP2 SWAP1 PUSH2 0x2711 JUMP JUMPDEST PUSH2 0x16B5 JUMP JUMPDEST STOP JUMPDEST PUSH2 0x26E PUSH1 0x4 DUP1 CALLDATASIZE SUB DUP2 ADD SWAP1 PUSH2 0x269 SWAP2 SWAP1 PUSH2 0x2771 JUMP JUMPDEST PUSH2 0x18A9 JUMP JUMPDEST PUSH1 0x40 MLOAD PUSH2 0x284 SWAP11 SWAP10 SWAP9 SWAP8 SWAP7 SWAP6 SWAP5 SWAP4 SWAP3 SWAP2 SWAP1 PUSH2 0x2B86 JUMP JUMPDEST PUSH1 0x40 MLOAD DUP1 SWAP2 SUB SWAP1 RETURN JUMPDEST PUSH2 0x295 PUSH2 0x1AEF JUMP JUMPDEST PUSH1 0x40 MLOAD PUSH2 0x2A2 SWAP2 SWAP1 PUSH2 0x2C37 JUMP JUMPDEST PUSH1 0x40 MLOAD DUP1 SWAP2 SUB SWAP1 RETURN JUMPDEST PUSH2 0x2B3 PUSH2 0x1B13 JUMP JUMPDEST PUSH1 0x40 MLOAD PUSH2 0x2C0 SWAP2 SWAP1 PUSH2 0x2966 JUMP JUMPDEST PUSH1 0x40 MLOAD DUP1 SWAP2 SUB SWAP1 RETURN JUMPDEST PUSH2 0x2E3 PUSH1 0x4 DUP1 CALLDATASIZE SUB DUP2 ADD SWAP1 PUSH2 0x2DE SWAP2 SWAP1 PUSH2 0x2771 JUMP JUMPDEST PUSH2 0x1B19 JUMP JUMPDEST PUSH1 0x40 MLOAD PUSH2 0x2F0 SWAP2 SWAP1 PUSH2 0x2D49 JUMP JUMPDEST PUSH1 0x40 MLOAD DUP1 SWAP2 SUB SWAP1 RETURN JUMPDEST PUSH2 0x313 PUSH1 0x4 DUP1 CALLDATASIZE SUB DUP2 ADD SWAP1 PUSH2 0x30E SWAP2 SWAP1 PUSH2 0x2771 JUMP JUMPDEST PUSH2 0x1E1D JUMP JUMPDEST PUSH1 0x40 MLOAD PUSH2 0x326 SWAP8 SWAP7 SWAP6 SWAP5 SWAP4 SWAP3 SWAP2 SWAP1 PUSH2 0x2D6B JUMP JUMPDEST PUSH1 0x40 MLOAD DUP1 SWAP2 SUB SWAP1 RETURN JUMPDEST PUSH2 0x349 PUSH1 0x4 DUP1 CALLDATASIZE SUB DUP2 ADD SWAP1 PUSH2 0x344 SWAP2 SWAP1 PUSH2 0x2DE1 JUMP JUMPDEST PUSH2 0x1F14 JUMP JUMPDEST STOP JUMPDEST PUSH2 0x365 PUSH1 0x4 DUP1 CALLDATASIZE SUB DUP2 ADD SWAP1 PUSH2 0x360 SWAP2 SWAP1 PUSH2 0x2E34 JUMP JUMPDEST PUSH2 0x20B8 JUMP JUMPDEST PUSH1 0x40 MLOAD PUSH2 0x372 SWAP2 SWAP1 PUSH2 0x2966 JUMP JUMPDEST PUSH1 0x40 MLOAD DUP1 SWAP2 SUB SWAP1 RETURN JUMPDEST PUSH1 0x0 PUSH1 0x4 PUSH1 0x0 DUP6 DUP2 MSTORE PUSH1 0x20 ADD SWAP1 DUP2 MSTORE PUSH1 0x20 ADD PUSH1 0x0 KECCAK256 SWAP1 POP DUP1 PUSH1 0x1 ADD PUSH1 0x0 SWAP1 SLOAD SWAP1 PUSH2 0x100 EXP SWAP1 DIV PUSH20 0xFFFFFFFFFFFFFFFFFFFFFFFFFFFFFFFFFFFFFFFF AND PUSH20 0xFFFFFFFFFFFFFFFFFFFFFFFFFFFFFFFFFFFFFFFF AND CALLER PUSH20 0xFFFFFFFFFFFFFFFFFFFFFFFFFFFFFFFFFFFFFFFF AND EQ PUSH2 0x424 JUMPI PUSH1 0x40 MLOAD PUSH32 0x8C379A000000000000000000000000000000000000000000000000000000000 DUP2 MSTORE PUSH1 0x4 ADD PUSH2 0x41B SWAP1 PUSH2 0x2F08 JUMP JUMPDEST PUSH1 0x40 MLOAD DUP1 SWAP2 SUB SWAP1 REVERT JUMPDEST PUSH1 0x1 PUSH1 0x5 DUP2 GT ISZERO PUSH2 0x438 JUMPI PUSH2 0x437 PUSH2 0x2B00 JUMP JUMPDEST JUMPDEST DUP2 PUSH1 0x7 ADD PUSH1 0x0 SWAP1 SLOAD SWAP1 PUSH2 0x100 EXP SWAP1 DIV PUSH1 0xFF AND PUSH1 0x5 DUP2 GT ISZERO PUSH2 0x45C JUMPI PUSH2 0x45B PUSH2 0x2B00 JUMP JUMPDEST JUMPDEST EQ PUSH2 0x49C JUMPI PUSH1 0x40 MLOAD PUSH32 0x8C379A000000000000000000000000000000000000000000000000000000000 DUP2 MSTORE PUSH1 0x4 ADD PUSH2 0x493 SWAP1 PUSH2 0x2F74 JUMP JUMPDEST PUSH1 0x40 MLOAD DUP1 SWAP2 SUB SWAP1 REVERT JUMPDEST DUP1 PUSH1 0x7 ADD PUSH1 0x1 SWAP1 SLOAD SWAP1 PUSH2 0x100 EXP SWAP1 DIV PUSH1 0xFF AND ISZERO PUSH2 0x4EE JUMPI PUSH1 0x40 MLOAD PUSH32 0x8C379A000000000000000000000000000000000000000000000000000000000 DUP2 MSTORE PUSH1 0x4 ADD PUSH2 0x4E5 SWAP1 PUSH2 0x2FE0 JUMP JUMPDEST PUSH1 0x40 MLOAD DUP1 SWAP2 SUB SWAP1 REVERT JUMPDEST PUSH1 0x2 DUP2 PUSH1 0x7 ADD PUSH1 0x0 PUSH2 0x100 EXP DUP2 SLOAD DUP2 PUSH1 0xFF MUL NOT AND SWAP1 DUP4 PUSH1 0x5 DUP2 GT ISZERO PUSH2 0x516 JUMPI PUSH2 0x515 PUSH2 0x2B00 JUMP JUMPDEST JUMPDEST MUL OR SWAP1 SSTORE POP DUP3 DUP3 DUP3 PUSH1 0x6 ADD SWAP2 DUP3 PUSH2 0x52E SWAP3 SWAP2 SWAP1 PUSH2 0x323C JUMP JUMPDEST POP DUP4 PUSH32 0x9A19FC83C0457BEED1878F7AF50B79D6E9AC6BDADF11D24942BCD5BC6F6072A9 DUP5 DUP5 PUSH1 0x40 MLOAD PUSH2 0x561 SWAP3 SWAP2 SWAP1 PUSH2 0x3348 JUMP JUMPDEST PUSH1 0x40 MLOAD DUP1 SWAP2 SUB SWAP1 LOG2 POP POP POP POP JUMP JUMPDEST PUSH2 0x577 PUSH2 0x257A JUMP JUMPDEST PUSH1 0x3 PUSH1 0x0 DUP4 DUP2 MSTORE PUSH1 0x20 ADD SWAP1 DUP2 MSTORE PUSH1 0x20 ADD PUSH1 0x0 KECCAK256 PUSH1 0x40 MLOAD DUP1 PUSH1 0xE0 ADD PUSH1 0x40 MSTORE SWAP1 DUP2 PUSH1 0x0 DUP3 ADD SLOAD DUP2 MSTORE PUSH1 0x20 ADD PUSH1 0x1 DUP3 ADD PUSH1 0x0 SWAP1 SLOAD SWAP1 PUSH2 0x100 EXP SWAP1 DIV PUSH20 0xFFFFFFFFFFFFFFFFFFFFFFFFFFFFFFFFFFFFFFFF AND PUSH20 0xFFFFFFFFFFFFFFFFFFFFFFFFFFFFFFFFFFFFFFFF AND PUSH20 0xFFFFFFFFFFFFFFFFFFFFFFFFFFFFFFFFFFFFFFFF AND DUP2 MSTORE PUSH1 0x20 ADD PUSH1 0x2 DUP3 ADD SLOAD DUP2 MSTORE PUSH1 0x20 ADD PUSH1 0x3 DUP3 ADD SLOAD DUP2 MSTORE PUSH1 0x20 ADD PUSH1 0x4 DUP3 ADD SLOAD DUP2 MSTORE PUSH1 0x20 ADD PUSH1 0x5 DUP3 ADD DUP1 SLOAD PUSH2 0x623 SWAP1 PUSH2 0x3069 JUMP JUMPDEST DUP1 PUSH1 0x1F ADD PUSH1 0x20 DUP1 SWAP2 DIV MUL PUSH1 0x20 ADD PUSH1 0x40 MLOAD SWAP1 DUP2 ADD PUSH1 0x40 MSTORE DUP1 SWAP3 SWAP2 SWAP1 DUP2 DUP2 MSTORE PUSH1 0x20 ADD DUP3 DUP1 SLOAD PUSH2 0x64F SWAP1 PUSH2 0x3069 JUMP JUMPDEST DUP1 ISZERO PUSH2 0x69C JUMPI DUP1 PUSH1 0x1F LT PUSH2 0x671 JUMPI PUSH2 0x100 DUP1 DUP4 SLOAD DIV MUL DUP4 MSTORE SWAP2 PUSH1 0x20 ADD SWAP2 PUSH2 0x69C JUMP JUMPDEST DUP3 ADD SWAP2 SWAP1 PUSH1 0x0 MSTORE PUSH1 0x20 PUSH1 0x0 KECCAK256 SWAP1 JUMPDEST DUP2 SLOAD DUP2 MSTORE SWAP1 PUSH1 0x1 ADD SWAP1 PUSH1 0x20 ADD DUP1 DUP4 GT PUSH2 0x67F JUMPI DUP3 SWAP1 SUB PUSH1 0x1F AND DUP3 ADD SWAP2 JUMPDEST POP POP POP POP POP DUP2 MSTORE PUSH1 0x20 ADD PUSH1 0x6 DUP3 ADD PUSH1 0x0 SWAP1 SLOAD SWAP1 PUSH2 0x100 EXP SWAP1 DIV PUSH1 0xFF AND ISZERO ISZERO ISZERO ISZERO DUP2 MSTORE POP POP SWAP1 POP SWAP2 SWAP1 POP JUMP JUMPDEST PUSH1 0x2 SLOAD DUP2 JUMP JUMPDEST PUSH2 0x6D5 PUSH2 0x2421 JUMP JUMPDEST PUSH1 0x0 PUSH1 0x4 PUSH1 0x0 DUP5 DUP2 MSTORE PUSH1 0x20 ADD SWAP1 DUP2 MSTORE PUSH1 0x20 ADD PUSH1 0x0 KECCAK256 SWAP1 POP DUP1 PUSH1 0x7 ADD PUSH1 0x1 SWAP1 SLOAD SWAP1 PUSH2 0x100 EXP SWAP1 DIV PUSH1 0xFF AND PUSH2 0x73D JUMPI PUSH1 0x40 MLOAD PUSH32 0x8C379A000000000000000000000000000000000000000000000000000000000 DUP2 MSTORE PUSH1 0x4 ADD PUSH2 0x734 SWAP1 PUSH2 0x33B8 JUMP JUMPDEST PUSH1 0x40 MLOAD DUP1 SWAP2 SUB SWAP1 REVERT JUMPDEST PUSH1 0x4 PUSH1 0x5 DUP2 GT ISZERO PUSH2 0x751 JUMPI PUSH2 0x750 PUSH2 0x2B00 JUMP JUMPDEST JUMPDEST DUP2 PUSH1 0x7 ADD PUSH1 0x0 SWAP1 SLOAD SWAP1 PUSH2 0x100 EXP SWAP1 DIV PUSH1 0xFF AND PUSH1 0x5 DUP2 GT ISZERO PUSH2 0x775 JUMPI PUSH2 0x774 PUSH2 0x2B00 JUMP JUMPDEST JUMPDEST EQ PUSH2 0x7B5 JUMPI PUSH1 0x40 MLOAD PUSH32 0x8C379A000000000000000000000000000000000000000000000000000000000 DUP2 MSTORE PUSH1 0x4 ADD PUSH2 0x7AC SWAP1 PUSH2 0x3424 JUMP JUMPDEST PUSH1 0x40 MLOAD DUP1 SWAP2 SUB SWAP1 REVERT JUMPDEST PUSH1 0x5 DUP2 PUSH1 0x7 ADD PUSH1 0x0 PUSH2 0x100 EXP DUP2 SLOAD DUP2 PUSH1 0xFF MUL NOT AND SWAP1 DUP4 PUSH1 0x5 DUP2 GT ISZERO PUSH2 0x7DD JUMPI PUSH2 0x7DC PUSH2 0x2B00 JUMP JUMPDEST JUMPDEST MUL OR SWAP1 SSTORE POP DUP2 ISZERO PUSH2 0x909 JUMPI PUSH1 0x0 PUSH2 0x167 PUSH20 0xFFFFFFFFFFFFFFFFFFFFFFFFFFFFFFFFFFFFFFFF AND PUSH4 0xECA36917 PUSH32 0x0 ADDRESS DUP6 PUSH1 0x2 ADD PUSH1 0x0 SWAP1 SLOAD SWAP1 PUSH2 0x100 EXP SWAP1 DIV PUSH20 0xFFFFFFFFFFFFFFFFFFFFFFFFFFFFFFFFFFFFFFFF AND PUSH2 0x85C DUP8 PUSH1 0x3 ADD SLOAD PUSH2 0x2467 JUMP JUMPDEST PUSH1 0x40 MLOAD DUP6 PUSH4 0xFFFFFFFF AND PUSH1 0xE0 SHL DUP2 MSTORE PUSH1 0x4 ADD PUSH2 0x87B SWAP5 SWAP4 SWAP3 SWAP2 SWAP1 PUSH2 0x3460 JUMP JUMPDEST PUSH1 0x20 PUSH1 0x40 MLOAD DUP1 DUP4 SUB DUP2 PUSH1 0x0 DUP8 GAS CALL ISZERO DUP1 ISZERO PUSH2 0x89A JUMPI RETURNDATASIZE PUSH1 0x0 DUP1 RETURNDATACOPY RETURNDATASIZE PUSH1 0x0 REVERT JUMPDEST POP POP POP POP PUSH1 0x40 MLOAD RETURNDATASIZE PUSH1 0x1F NOT PUSH1 0x1F DUP3 ADD AND DUP3 ADD DUP1 PUSH1 0x40 MSTORE POP DUP2 ADD SWAP1 PUSH2 0x8BE SWAP2 SWAP1 PUSH2 0x34DB JUMP JUMPDEST SWAP1 POP PUSH1 0x16 DUP2 EQ PUSH2 0x903 JUMPI PUSH1 0x40 MLOAD PUSH32 0x8C379A000000000000000000000000000000000000000000000000000000000 DUP2 MSTORE PUSH1 0x4 ADD PUSH2 0x8FA SWAP1 PUSH2 0x357A JUMP JUMPDEST PUSH1 0x40 MLOAD DUP1 SWAP2 SUB SWAP1 REVERT JUMPDEST POP PUSH2 0xA26 JUMP JUMPDEST PUSH1 0x0 PUSH2 0x167 PUSH20 0xFFFFFFFFFFFFFFFFFFFFFFFFFFFFFFFFFFFFFFFF AND PUSH4 0xECA36917 PUSH32 0x0 ADDRESS DUP6 PUSH1 0x1 ADD PUSH1 0x0 SWAP1 SLOAD SWAP1 PUSH2 0x100 EXP SWAP1 DIV PUSH20 0xFFFFFFFFFFFFFFFFFFFFFFFFFFFFFFFFFFFFFFFF AND PUSH2 0x97D DUP8 PUSH1 0x3 ADD SLOAD PUSH2 0x2467 JUMP JUMPDEST PUSH1 0x40 MLOAD DUP6 PUSH4 0xFFFFFFFF AND PUSH1 0xE0 SHL DUP2 MSTORE PUSH1 0x4 ADD PUSH2 0x99C SWAP5 SWAP4 SWAP3 SWAP2 SWAP1 PUSH2 0x3460 JUMP JUMPDEST PUSH1 0x20 PUSH1 0x40 MLOAD DUP1 DUP4 SUB DUP2 PUSH1 0x0 DUP8 GAS CALL ISZERO DUP1 ISZERO PUSH2 0x9BB JUMPI RETURNDATASIZE PUSH1 0x0 DUP1 RETURNDATACOPY RETURNDATASIZE PUSH1 0x0 REVERT JUMPDEST POP POP POP POP PUSH1 0x40 MLOAD RETURNDATASIZE PUSH1 0x1F NOT PUSH1 0x1F DUP3 ADD AND DUP3 ADD DUP1 PUSH1 0x40 MSTORE POP DUP2 ADD SWAP1 PUSH2 0x9DF SWAP2 SWAP1 PUSH2 0x34DB JUMP JUMPDEST SWAP1 POP PUSH1 0x16 DUP2 EQ PUSH2 0xA24 JUMPI PUSH1 0x40 MLOAD PUSH32 0x8C379A000000000000000000000000000000000000000000000000000000000 DUP2 MSTORE PUSH1 0x4 ADD PUSH2 0xA1B SWAP1 PUSH2 0x35E6 JUMP JUMPDEST PUSH1 0x40 MLOAD DUP1 SWAP2 SUB SWAP1 REVERT JUMPDEST POP JUMPDEST DUP3 PUSH32 0x5A87909BFF68CAAAAF0B3FD9C74EECCC928832F879315E5C6FB7A73612F26C0C DUP4 PUSH1 0x40 MLOAD PUSH2 0xA56 SWAP2 SWAP1 PUSH2 0x3606 JUMP JUMPDEST PUSH1 0x40 MLOAD DUP1 SWAP2 SUB SWAP1 LOG2 POP PUSH2 0xA67 PUSH2 0x24BC JUMP JUMPDEST POP POP JUMP JUMPDEST PUSH1 0x0 PUSH1 0x4 PUSH1 0x0 DUP6 DUP2 MSTORE PUSH1 0x20 ADD SWAP1 DUP2 MSTORE PUSH1 0x20 ADD PUSH1 0x0 KECCAK256 SWAP1 POP DUP1 PUSH1 0x1 ADD PUSH1 0x0 SWAP1 SLOAD SWAP1 PUSH2 0x100 EXP SWAP1 DIV PUSH20 0xFFFFFFFFFFFFFFFFFFFFFFFFFFFFFFFFFFFFFFFF AND PUSH20 0xFFFFFFFFFFFFFFFFFFFFFFFFFFFFFFFFFFFFFFFF AND CALLER PUSH20 0xFFFFFFFFFFFFFFFFFFFFFFFFFFFFFFFFFFFFFFFF AND EQ PUSH2 0xB14 JUMPI PUSH1 0x40 MLOAD PUSH32 0x8C379A000000000000000000000000000000000000000000000000000000000 DUP2 MSTORE PUSH1 0x4 ADD PUSH2 0xB0B SWAP1 PUSH2 0x2F08 JUMP JUMPDEST PUSH1 0x40 MLOAD DUP1 SWAP2 SUB SWAP1 REVERT JUMPDEST PUSH1 0x1 PUSH1 0x5 DUP2 GT ISZERO PUSH2 0xB28 JUMPI PUSH2 0xB27 PUSH2 0x2B00 JUMP JUMPDEST JUMPDEST DUP2 PUSH1 0x7 ADD PUSH1 0x0 SWAP1 SLOAD SWAP1 PUSH2 0x100 EXP SWAP1 DIV PUSH1 0xFF AND PUSH1 0x5 DUP2 GT ISZERO PUSH2 0xB4C JUMPI PUSH2 0xB4B PUSH2 0x2B00 JUMP JUMPDEST JUMPDEST EQ DUP1 PUSH2 0xB8D JUMPI POP PUSH1 0x2 PUSH1 0x5 DUP2 GT ISZERO PUSH2 0xB67 JUMPI PUSH2 0xB66 PUSH2 0x2B00 JUMP JUMPDEST JUMPDEST DUP2 PUSH1 0x7 ADD PUSH1 0x0 SWAP1 SLOAD SWAP1 PUSH2 0x100 EXP SWAP1 DIV PUSH1 0xFF AND PUSH1 0x5 DUP2 GT ISZERO PUSH2 0xB8B JUMPI PUSH2 0xB8A PUSH2 0x2B00 JUMP JUMPDEST JUMPDEST EQ JUMPDEST PUSH2 0xBCC JUMPI PUSH1 0x40 MLOAD PUSH32 0x8C379A000000000000000000000000000000000000000000000000000000000 DUP2 MSTORE PUSH1 0x4 ADD PUSH2 0xBC3 SWAP1 PUSH2 0x366D JUMP JUMPDEST PUSH1 0x40 MLOAD DUP1 SWAP2 SUB SWAP1 REVERT JUMPDEST DUP1 PUSH1 0x7 ADD PUSH1 0x1 SWAP1 SLOAD SWAP1 PUSH2 0x100 EXP SWAP1 DIV PUSH1 0xFF AND ISZERO PUSH2 0xC1E JUMPI PUSH1 0x40 MLOAD PUSH32 0x8C379A000000000000000000000000000000000000000000000000000000000 DUP2 MSTORE PUSH1 0x4 ADD PUSH2 0xC15 SWAP1 PUSH2 0x36D9 JUMP JUMPDEST PUSH1 0x40 MLOAD DUP1 SWAP2 SUB SWAP1 REVERT JUMPDEST PUSH1 0x1 DUP2 PUSH1 0x7 ADD PUSH1 0x1 PUSH2 0x100 EXP DUP2 SLOAD DUP2 PUSH1 0xFF MUL NOT AND SWAP1 DUP4 ISZERO ISZERO MUL OR SWAP1 SSTORE POP DUP3 DUP3 DUP3 PUSH1 0x8 ADD SWAP2 DUP3 PUSH2 0xC4E SWAP3 SWAP2 SWAP1 PUSH2 0x323C JUMP JUMPDEST POP PUSH1 0x4 DUP2 PUSH1 0x7 ADD PUSH1 0x0 PUSH2 0x100 EXP DUP2 SLOAD DUP2 PUSH1 0xFF MUL NOT AND SWAP1 DUP4 PUSH1 0x5 DUP2 GT ISZERO PUSH2 0xC77 JUMPI PUSH2 0xC76 PUSH2 0x2B00 JUMP JUMPDEST JUMPDEST MUL OR SWAP1 SSTORE POP DUP4 PUSH32 0xA70B5640B40D2FFC2D02B31C5C2B5156808F6BFCB9E4F711AC6BB2FA923BABD9 DUP5 DUP5 PUSH1 0x40 MLOAD PUSH2 0xCAE SWAP3 SWAP2 SWAP1 PUSH2 0x3348 JUMP JUMPDEST PUSH1 0x40 MLOAD DUP1 SWAP2 SUB SWAP1 LOG2 POP POP POP POP JUMP JUMPDEST PUSH1 0x0 PUSH1 0x3 PUSH1 0x0 DUP4 DUP2 MSTORE PUSH1 0x20 ADD SWAP1 DUP2 MSTORE PUSH1 0x20 ADD PUSH1 0x0 KECCAK256 SWAP1 POP DUP1 PUSH1 0x6 ADD PUSH1 0x0 SWAP1 SLOAD SWAP1 PUSH2 0x100 EXP SWAP1 DIV PUSH1 0xFF AND PUSH2 0xD24 JUMPI PUSH1 0x40 MLOAD PUSH32 0x8C379A000000000000000000000000000000000000000000000000000000000 DUP2 MSTORE PUSH1 0x4 ADD PUSH2 0xD1B SWAP1 PUSH2 0x3745 JUMP JUMPDEST PUSH1 0x40 MLOAD DUP1 SWAP2 SUB SWAP1 REVERT JUMPDEST DUP1 PUSH1 0x1 ADD PUSH1 0x0 SWAP1 SLOAD SWAP1 PUSH2 0x100 EXP SWAP1 DIV PUSH20 0xFFFFFFFFFFFFFFFFFFFFFFFFFFFFFFFFFFFFFFFF AND PUSH20 0xFFFFFFFFFFFFFFFFFFFFFFFFFFFFFFFFFFFFFFFF AND CALLER PUSH20 0xFFFFFFFFFFFFFFFFFFFFFFFFFFFFFFFFFFFFFFFF AND EQ PUSH2 0xDB6 JUMPI PUSH1 0x40 MLOAD PUSH32 0x8C379A000000000000000000000000000000000000000000000000000000000 DUP2 MSTORE PUSH1 0x4 ADD PUSH2 0xDAD SWAP1 PUSH2 0x37B1 JUMP JUMPDEST PUSH1 0x40 MLOAD DUP1 SWAP2 SUB SWAP1 REVERT JUMPDEST PUSH1 0x0 DUP2 PUSH1 0x6 ADD PUSH1 0x0 PUSH2 0x100 EXP DUP2 SLOAD DUP2 PUSH1 0xFF MUL NOT AND SWAP1 DUP4 ISZERO ISZERO MUL OR SWAP1 SSTORE POP DUP2 PUSH32 0xE8A884965A7FB1B7C1EFD55FF478BCBD880C4B226A2E2218B83D31C493964AB3 PUSH1 0x40 MLOAD PUSH1 0x40 MLOAD DUP1 SWAP2 SUB SWAP1 LOG2 POP POP JUMP JUMPDEST PUSH2 0xE0C PUSH2 0x2421 JUMP JUMPDEST PUSH1 0x0 PUSH1 0x4 PUSH1 0x0 DUP4 DUP2 MSTORE PUSH1 0x20 ADD SWAP1 DUP2 MSTORE PUSH1 0x20 ADD PUSH1 0x0 KECCAK256 SWAP1 POP DUP1 PUSH1 0x1 ADD PUSH1 0x0 SWAP1 SLOAD SWAP1 PUSH2 0x100 EXP SWAP1 DIV PUSH20 0xFFFFFFFFFFFFFFFFFFFFFFFFFFFFFFFFFFFFFFFF AND PUSH20 0xFFFFFFFFFFFFFFFFFFFFFFFFFFFFFFFFFFFFFFFF AND CALLER PUSH20 0xFFFFFFFFFFFFFFFFFFFFFFFFFFFFFFFFFFFFFFFF AND EQ PUSH2 0xEB5 JUMPI PUSH1 0x40 MLOAD PUSH32 0x8C379A000000000000000000000000000000000000000000000000000000000 DUP2 MSTORE PUSH1 0x4 ADD PUSH2 0xEAC SWAP1 PUSH2 0x2F08 JUMP JUMPDEST PUSH1 0x40 MLOAD DUP1 SWAP2 SUB SWAP1 REVERT JUMPDEST PUSH1 0x2 PUSH1 0x5 DUP2 GT ISZERO PUSH2 0xEC9 JUMPI PUSH2 0xEC8 PUSH2 0x2B00 JUMP JUMPDEST JUMPDEST DUP2 PUSH1 0x7 ADD PUSH1 0x0 SWAP1 SLOAD SWAP1 PUSH2 0x100 EXP SWAP1 DIV PUSH1 0xFF AND PUSH1 0x5 DUP2 GT ISZERO PUSH2 0xEED JUMPI PUSH2 0xEEC PUSH2 0x2B00 JUMP JUMPDEST JUMPDEST EQ PUSH2 0xF2D JUMPI PUSH1 0x40 MLOAD PUSH32 0x8C379A000000000000000000000000000000000000000000000000000000000 DUP2 MSTORE PUSH1 0x4 ADD PUSH2 0xF24 SWAP1 PUSH2 0x381D JUMP JUMPDEST PUSH1 0x40 MLOAD DUP1 SWAP2 SUB SWAP1 REVERT JUMPDEST DUP1 PUSH1 0x7 ADD PUSH1 0x1 SWAP1 SLOAD SWAP1 PUSH2 0x100 EXP SWAP1 DIV PUSH1 0xFF AND ISZERO PUSH2 0xF7F JUMPI PUSH1 0x40 MLOAD PUSH32 0x8C379A000000000000000000000000000000000000000000000000000000000 DUP2 MSTORE PUSH1 0x4 ADD PUSH2 0xF76 SWAP1 PUSH2 0x2FE0 JUMP JUMPDEST PUSH1 0x40 MLOAD DUP1 SWAP2 SUB SWAP1 REVERT JUMPDEST PUSH1 0x3 DUP2 PUSH1 0x7 ADD PUSH1 0x0 PUSH2 0x100 EXP DUP2 SLOAD DUP2 PUSH1 0xFF MUL NOT AND SWAP1 DUP4 PUSH1 0x5 DUP2 GT ISZERO PUSH2 0xFA7 JUMPI PUSH2 0xFA6 PUSH2 0x2B00 JUMP JUMPDEST JUMPDEST MUL OR SWAP1 SSTORE POP PUSH1 0x0 PUSH2 0x167 PUSH20 0xFFFFFFFFFFFFFFFFFFFFFFFFFFFFFFFFFFFFFFFF AND PUSH4 0xECA36917 PUSH32 0x0 ADDRESS DUP6 PUSH1 0x2 ADD PUSH1 0x0 SWAP1 SLOAD SWAP1 PUSH2 0x100 EXP SWAP1 DIV PUSH20 0xFFFFFFFFFFFFFFFFFFFFFFFFFFFFFFFFFFFFFFFF AND PUSH2 0x1020 DUP8 PUSH1 0x3 ADD SLOAD PUSH2 0x2467 JUMP JUMPDEST PUSH1 0x40 MLOAD DUP6 PUSH4 0xFFFFFFFF AND PUSH1 0xE0 SHL DUP2 MSTORE PUSH1 0x4 ADD PUSH2 0x103F SWAP5 SWAP4 SWAP3 SWAP2 SWAP1 PUSH2 0x3460 JUMP JUMPDEST PUSH1 0x20 PUSH1 0x40 MLOAD DUP1 DUP4 SUB DUP2 PUSH1 0x0 DUP8 GAS CALL ISZERO DUP1 ISZERO PUSH2 0x105E JUMPI RETURNDATASIZE PUSH1 0x0 DUP1 RETURNDATACOPY RETURNDATASIZE PUSH1 0x0 REVERT JUMPDEST POP POP POP POP PUSH1 0x40 MLOAD RETURNDATASIZE PUSH1 0x1F NOT PUSH1 0x1F DUP3 ADD AND DUP3 ADD DUP1 PUSH1 0x40 MSTORE POP DUP2 ADD SWAP1 PUSH2 0x1082 SWAP2 SWAP1 PUSH2 0x34DB JUMP JUMPDEST SWAP1 POP PUSH1 0x16 DUP2 EQ PUSH2 0x10C7 JUMPI PUSH1 0x40 MLOAD PUSH32 0x8C379A000000000000000000000000000000000000000000000000000000000 DUP2 MSTORE PUSH1 0x4 ADD PUSH2 0x10BE SWAP1 PUSH2 0x3889 JUMP JUMPDEST PUSH1 0x40 MLOAD DUP1 SWAP2 SUB SWAP1 REVERT JUMPDEST DUP2 PUSH1 0x2 ADD PUSH1 0x0 SWAP1 SLOAD SWAP1 PUSH2 0x100 EXP SWAP1 DIV PUSH20 0xFFFFFFFFFFFFFFFFFFFFFFFFFFFFFFFFFFFFFFFF AND PUSH20 0xFFFFFFFFFFFFFFFFFFFFFFFFFFFFFFFFFFFFFFFF AND DUP4 PUSH32 0x6E3C6096795C8298A218B2CFB8BDE42726FF7C9A3D27B4D3BA41AB7F74FEB5FB DUP5 PUSH1 0x3 ADD SLOAD PUSH1 0x40 MLOAD PUSH2 0x1136 SWAP2 SWAP1 PUSH2 0x2966 JUMP JUMPDEST PUSH1 0x40 MLOAD DUP1 SWAP2 SUB SWAP1 LOG3 POP POP PUSH2 0x1148 PUSH2 0x24BC JUMP JUMPDEST POP JUMP JUMPDEST PUSH1 0x0 PUSH2 0x1155 PUSH2 0x2421 JUMP JUMPDEST PUSH1 0x0 PUSH1 0x3 PUSH1 0x0 DUP6 DUP2 MSTORE PUSH1 0x20 ADD SWAP1 DUP2 MSTORE PUSH1 0x20 ADD PUSH1 0x0 KECCAK256 SWAP1 POP DUP1 PUSH1 0x6 ADD PUSH1 0x0 SWAP1 SLOAD SWAP1 PUSH2 0x100 EXP SWAP1 DIV PUSH1 0xFF AND PUSH2 0x11BD JUMPI PUSH1 0x40 MLOAD PUSH32 0x8C379A000000000000000000000000000000000000000000000000000000000 DUP2 MSTORE PUSH1 0x4 ADD PUSH2 0x11B4 SWAP1 PUSH2 0x38F5 JUMP JUMPDEST PUSH1 0x40 MLOAD DUP1 SWAP2 SUB SWAP1 REVERT JUMPDEST PUSH1 0x0 DUP4 GT DUP1 ISZERO PUSH2 0x11D1 JUMPI POP DUP1 PUSH1 0x4 ADD SLOAD DUP4 GT ISZERO JUMPDEST PUSH2 0x1210 JUMPI PUSH1 0x40 MLOAD PUSH32 0x8C379A000000000000000000000000000000000000000000000000000000000 DUP2 MSTORE PUSH1 0x4 ADD PUSH2 0x1207 SWAP1 PUSH2 0x3961 JUMP JUMPDEST PUSH1 0x40 MLOAD DUP1 SWAP2 SUB SWAP1 REVERT JUMPDEST PUSH1 0x0 DUP1 PUSH2 0x121C CALLER PUSH2 0x24C6 JUMP JUMPDEST SWAP2 POP SWAP2 POP PUSH1 0x16 DUP3 EQ DUP1 ISZERO PUSH2 0x122D JUMPI POP DUP1 JUMPDEST PUSH2 0x126C JUMPI PUSH1 0x40 MLOAD PUSH32 0x8C379A000000000000000000000000000000000000000000000000000000000 DUP2 MSTORE PUSH1 0x4 ADD PUSH2 0x1263 SWAP1 PUSH2 0x39CD JUMP JUMPDEST PUSH1 0x40 MLOAD DUP1 SWAP2 SUB SWAP1 REVERT JUMPDEST PUSH1 0x0 DUP6 DUP5 PUSH1 0x2 ADD SLOAD PUSH2 0x127E SWAP2 SWAP1 PUSH2 0x3A1C JUMP JUMPDEST SWAP1 POP PUSH1 0x0 PUSH2 0x167 PUSH20 0xFFFFFFFFFFFFFFFFFFFFFFFFFFFFFFFFFFFFFFFF AND PUSH4 0xECA36917 PUSH32 0x0 CALLER ADDRESS PUSH2 0x12CC DUP8 PUSH2 0x2467 JUMP JUMPDEST PUSH1 0x40 MLOAD DUP6 PUSH4 0xFFFFFFFF AND PUSH1 0xE0 SHL DUP2 MSTORE PUSH1 0x4 ADD PUSH2 0x12EB SWAP5 SWAP4 SWAP3 SWAP2 SWAP1 PUSH2 0x3460 JUMP JUMPDEST PUSH1 0x20 PUSH1 0x40 MLOAD DUP1 DUP4 SUB DUP2 PUSH1 0x0 DUP8 GAS CALL ISZERO DUP1 ISZERO PUSH2 0x130A JUMPI RETURNDATASIZE PUSH1 0x0 DUP1 RETURNDATACOPY RETURNDATASIZE PUSH1 0x0 REVERT JUMPDEST POP POP POP POP PUSH1 0x40 MLOAD RETURNDATASIZE PUSH1 0x1F NOT PUSH1 0x1F DUP3 ADD AND DUP3 ADD DUP1 PUSH1 0x40 MSTORE POP DUP2 ADD SWAP1 PUSH2 0x132E SWAP2 SWAP1 PUSH2 0x34DB JUMP JUMPDEST SWAP1 POP PUSH1 0x16 DUP2 EQ PUSH2 0x1373 JUMPI PUSH1 0x40 MLOAD PUSH32 0x8C379A000000000000000000000000000000000000000000000000000000000 DUP2 MSTORE PUSH1 0x4 ADD PUSH2 0x136A SWAP1 PUSH2 0x3AD0 JUMP JUMPDEST PUSH1 0x40 MLOAD DUP1 SWAP2 SUB SWAP1 REVERT JUMPDEST DUP7 DUP6 PUSH1 0x4 ADD PUSH1 0x0 DUP3 DUP3 SLOAD PUSH2 0x1387 SWAP2 SWAP1 PUSH2 0x3AF0 JUMP JUMPDEST SWAP3 POP POP DUP2 SWAP1 SSTORE POP PUSH1 0x0 DUP6 PUSH1 0x4 ADD SLOAD SUB PUSH2 0x13B8 JUMPI PUSH1 0x0 DUP6 PUSH1 0x6 ADD PUSH1 0x0 PUSH2 0x100 EXP DUP2 SLOAD DUP2 PUSH1 0xFF MUL NOT AND SWAP1 DUP4 ISZERO ISZERO MUL OR SWAP1 SSTORE POP JUMPDEST PUSH1 0x0 PUSH1 0x2 PUSH1 0x0 DUP2 SLOAD DUP1 SWAP3 SWAP2 SWAP1 PUSH2 0x13CD SWAP1 PUSH2 0x3B24 JUMP JUMPDEST SWAP2 SWAP1 POP SSTORE SWAP1 POP PUSH1 0x40 MLOAD DUP1 PUSH2 0x140 ADD PUSH1 0x40 MSTORE DUP1 DUP11 DUP2 MSTORE PUSH1 0x20 ADD CALLER PUSH20 0xFFFFFFFFFFFFFFFFFFFFFFFFFFFFFFFFFFFFFFFF AND DUP2 MSTORE PUSH1 0x20 ADD DUP8 PUSH1 0x1 ADD PUSH1 0x0 SWAP1 SLOAD SWAP1 PUSH2 0x100 EXP SWAP1 DIV PUSH20 0xFFFFFFFFFFFFFFFFFFFFFFFFFFFFFFFFFFFFFFFF AND PUSH20 0xFFFFFFFFFFFFFFFFFFFFFFFFFFFFFFFFFFFFFFFF AND DUP2 MSTORE PUSH1 0x20 ADD DUP5 DUP2 MSTORE PUSH1 0x20 ADD DUP10 DUP2 MSTORE PUSH1 0x20 ADD PUSH1 0x40 MLOAD DUP1 PUSH1 0x20 ADD PUSH1 0x40 MSTORE DUP1 PUSH1 0x0 DUP2 MSTORE POP DUP2 MSTORE PUSH1 0x20 ADD PUSH1 0x40 MLOAD DUP1 PUSH1 0x20 ADD PUSH1 0x40 MSTORE DUP1 PUSH1 0x0 DUP2 MSTORE POP DUP2 MSTORE PUSH1 0x20 ADD PUSH1 0x0 PUSH1 0x5 DUP2 GT ISZERO PUSH2 0x148B JUMPI PUSH2 0x148A PUSH2 0x2B00 JUMP JUMPDEST JUMPDEST DUP2 MSTORE PUSH1 0x20 ADD PUSH1 0x0 ISZERO ISZERO DUP2 MSTORE PUSH1 0x20 ADD PUSH1 0x40 MLOAD DUP1 PUSH1 0x20 ADD PUSH1 0x40 MSTORE DUP1 PUSH1 0x0 DUP2 MSTORE POP DUP2 MSTORE POP PUSH1 0x4 PUSH1 0x0 DUP4 DUP2 MSTORE PUSH1 0x20 ADD SWAP1 DUP2 MSTORE PUSH1 0x20 ADD PUSH1 0x0 KECCAK256 PUSH1 0x0 DUP3 ADD MLOAD DUP2 PUSH1 0x0 ADD SSTORE PUSH1 0x20 DUP3 ADD MLOAD DUP2 PUSH1 0x1 ADD PUSH1 0x0 PUSH2 0x100 EXP DUP2 SLOAD DUP2 PUSH20 0xFFFFFFFFFFFFFFFFFFFFFFFFFFFFFFFFFFFFFFFF MUL NOT AND SWAP1 DUP4 PUSH20 0xFFFFFFFFFFFFFFFFFFFFFFFFFFFFFFFFFFFFFFFF AND MUL OR SWAP1 SSTORE POP PUSH1 0x40 DUP3 ADD MLOAD DUP2 PUSH1 0x2 ADD PUSH1 0x0 PUSH2 0x100 EXP DUP2 SLOAD DUP2 PUSH20 0xFFFFFFFFFFFFFFFFFFFFFFFFFFFFFFFFFFFFFFFF MUL NOT AND SWAP1 DUP4 PUSH20 0xFFFFFFFFFFFFFFFFFFFFFFFFFFFFFFFFFFFFFFFF AND MUL OR SWAP1 SSTORE POP PUSH1 0x60 DUP3 ADD MLOAD DUP2 PUSH1 0x3 ADD SSTORE PUSH1 0x80 DUP3 ADD MLOAD DUP2 PUSH1 0x4 ADD SSTORE PUSH1 0xA0 DUP3 ADD MLOAD DUP2 PUSH1 0x5 ADD SWAP1 DUP2 PUSH2 0x1580 SWAP2 SWAP1 PUSH2 0x3B6C JUMP JUMPDEST POP PUSH1 0xC0 DUP3 ADD MLOAD DUP2 PUSH1 0x6 ADD SWAP1 DUP2 PUSH2 0x1596 SWAP2 SWAP1 PUSH2 0x3B6C JUMP JUMPDEST POP PUSH1 0xE0 DUP3 ADD MLOAD DUP2 PUSH1 0x7 ADD PUSH1 0x0 PUSH2 0x100 EXP DUP2 SLOAD DUP2 PUSH1 0xFF MUL NOT AND SWAP1 DUP4 PUSH1 0x5 DUP2 GT ISZERO PUSH2 0x15C2 JUMPI PUSH2 0x15C1 PUSH2 0x2B00 JUMP JUMPDEST JUMPDEST MUL OR SWAP1 SSTORE POP PUSH2 0x100 DUP3 ADD MLOAD DUP2 PUSH1 0x7 ADD PUSH1 0x1 PUSH2 0x100 EXP DUP2 SLOAD DUP2 PUSH1 0xFF MUL NOT AND SWAP1 DUP4 ISZERO ISZERO MUL OR SWAP1 SSTORE POP PUSH2 0x120 DUP3 ADD MLOAD DUP2 PUSH1 0x8 ADD SWAP1 DUP2 PUSH2 0x15FE SWAP2 SWAP1 PUSH2 0x3B6C JUMP JUMPDEST POP SWAP1 POP POP CALLER PUSH20 0xFFFFFFFFFFFFFFFFFFFFFFFFFFFFFFFFFFFFFFFF AND DUP10 DUP3 PUSH32 0x3692C2E473686659B62DE88A2CEB823A0585C86BF37D11AC339FCD06E497D5C8 DUP10 PUSH1 0x1 ADD PUSH1 0x0 SWAP1 SLOAD SWAP1 PUSH2 0x100 EXP SWAP1 DIV PUSH20 0xFFFFFFFFFFFFFFFFFFFFFFFFFFFFFFFFFFFFFFFF AND DUP8 DUP14 PUSH1 0x40 MLOAD PUSH2 0x1672 SWAP4 SWAP3 SWAP2 SWAP1 PUSH2 0x3C3E JUMP JUMPDEST PUSH1 0x40 MLOAD DUP1 SWAP2 SUB SWAP1 LOG4 DUP1 SWAP7 POP POP POP POP POP POP POP PUSH2 0x168B PUSH2 0x24BC JUMP JUMPDEST SWAP3 SWAP2 POP POP JUMP JUMPDEST PUSH32 0x0 DUP2 JUMP JUMPDEST PUSH1 0x0 PUSH1 0x4 PUSH1 0x0 DUP6 DUP2 MSTORE PUSH1 0x20 ADD SWAP1 DUP2 MSTORE PUSH1 0x20 ADD PUSH1 0x0 KECCAK256 SWAP1 POP DUP1 PUSH1 0x2 ADD PUSH1 0x0 SWAP1 SLOAD SWAP1 PUSH2 0x100 EXP SWAP1 DIV PUSH20 0xFFFFFFFFFFFFFFFFFFFFFFFFFFFFFFFFFFFFFFFF AND PUSH20 0xFFFFFFFFFFFFFFFFFFFFFFFFFFFFFFFFFFFFFFFF AND CALLER PUSH20 0xFFFFFFFFFFFFFFFFFFFFFFFFFFFFFFFFFFFFFFFF AND EQ PUSH2 0x175E JUMPI PUSH1 0x40 MLOAD PUSH32 0x8C379A000000000000000000000000000000000000000000000000000000000 DUP2 MSTORE PUSH1 0x4 ADD PUSH2 0x1755 SWAP1 PUSH2 0x3CC1 JUMP JUMPDEST PUSH1 0x40 MLOAD DUP1 SWAP2 SUB SWAP1 REVERT JUMPDEST PUSH1 0x0 PUSH1 0x5 DUP2 GT ISZERO PUSH2 0x1772 JUMPI PUSH2 0x1771 PUSH2 0x2B00 JUMP JUMPDEST JUMPDEST DUP2 PUSH1 0x7 ADD PUSH1 0x0 SWAP1 SLOAD SWAP1 PUSH2 0x100 EXP SWAP1 DIV PUSH1 0xFF AND PUSH1 0x5 DUP2 GT ISZERO PUSH2 0x1796 JUMPI PUSH2 0x1795 PUSH2 0x2B00 JUMP JUMPDEST JUMPDEST EQ PUSH2 0x17D6 JUMPI PUSH1 0x40 MLOAD PUSH32 0x8C379A000000000000000000000000000000000000000000000000000000000 DUP2 MSTORE PUSH1 0x4 ADD PUSH2 0x17CD SWAP1 PUSH2 0x3D53 JUMP JUMPDEST PUSH1 0x40 MLOAD DUP1 SWAP2 SUB SWAP1 REVERT JUMPDEST DUP1 PUSH1 0x7 ADD PUSH1 0x1 SWAP1 SLOAD SWAP1 PUSH2 0x100 EXP SWAP1 DIV PUSH1 0xFF AND ISZERO PUSH2 0x1828 JUMPI PUSH1 0x40 MLOAD PUSH32 0x8C379A000000000000000000000000000000000000000000000000000000000 DUP2 MSTORE PUSH1 0x4 ADD PUSH2 0x181F SWAP1 PUSH2 0x2FE0 JUMP JUMPDEST PUSH1 0x40 MLOAD DUP1 SWAP2 SUB SWAP1 REVERT JUMPDEST PUSH1 0x1 DUP2 PUSH1 0x7 ADD PUSH1 0x0 PUSH2 0x100 EXP DUP2 SLOAD DUP2 PUSH1 0xFF MUL NOT AND SWAP1 DUP4 PUSH1 0x5 DUP2 GT ISZERO PUSH2 0x1850 JUMPI PUSH2 0x184F PUSH2 0x2B00 JUMP JUMPDEST JUMPDEST MUL OR SWAP1 SSTORE POP DUP3 DUP3 DUP3 PUSH1 0x5 ADD SWAP2 DUP3 PUSH2 0x1868 SWAP3 SWAP2 SWAP1 PUSH2 0x323C JUMP JUMPDEST POP DUP4 PUSH32 0x2AE74C36CB50BB709262A8084A193DD793EFD883C13E0319A9E6E5A84ABF125F DUP5 DUP5 PUSH1 0x40 MLOAD PUSH2 0x189B SWAP3 SWAP2 SWAP1 PUSH2 0x3348 JUMP JUMPDEST PUSH1 0x40 MLOAD DUP1 SWAP2 SUB SWAP1 LOG2 POP POP POP POP JUMP JUMPDEST PUSH1 0x4 PUSH1 0x20 MSTORE DUP1 PUSH1 0x0 MSTORE PUSH1 0x40 PUSH1 0x0 KECCAK256 PUSH1 0x0 SWAP2 POP SWAP1 POP DUP1 PUSH1 0x0 ADD SLOAD SWAP1 DUP1 PUSH1 0x1 ADD PUSH1 0x0 SWAP1 SLOAD SWAP1 PUSH2 0x100 EXP SWAP1 DIV PUSH20 0xFFFFFFFFFFFFFFFFFFFFFFFFFFFFFFFFFFFFFFFF AND SWAP1 DUP1 PUSH1 0x2 ADD PUSH1 0x0 SWAP1 SLOAD SWAP1 PUSH2 0x100 EXP SWAP1 DIV PUSH20 0xFFFFFFFFFFFFFFFFFFFFFFFFFFFFFFFFFFFFFFFF AND SWAP1 DUP1 PUSH1 0x3 ADD SLOAD SWAP1 DUP1 PUSH1 0x4 ADD SLOAD SWAP1 DUP1 PUSH1 0x5 ADD DUP1 SLOAD PUSH2 0x192A SWAP1 PUSH2 0x3069 JUMP JUMPDEST DUP1 PUSH1 0x1F ADD PUSH1 0x20 DUP1 SWAP2 DIV MUL PUSH1 0x20 ADD PUSH1 0x40 MLOAD SWAP1 DUP2 ADD PUSH1 0x40 MSTORE DUP1 SWAP3 SWAP2 SWAP1 DUP2 DUP2 MSTORE PUSH1 0x20 ADD DUP3 DUP1 SLOAD PUSH2 0x1956 SWAP1 PUSH2 0x3069 JUMP JUMPDEST DUP1 ISZERO PUSH2 0x19A3 JUMPI DUP1 PUSH1 0x1F LT PUSH2 0x1978 JUMPI PUSH2 0x100 DUP1 DUP4 SLOAD DIV MUL DUP4 MSTORE SWAP2 PUSH1 0x20 ADD SWAP2 PUSH2 0x19A3 JUMP JUMPDEST DUP3 ADD SWAP2 SWAP1 PUSH1 0x0 MSTORE PUSH1 0x20 PUSH1 0x0 KECCAK256 SWAP1 JUMPDEST DUP2 SLOAD DUP2 MSTORE SWAP1 PUSH1 0x1 ADD SWAP1 PUSH1 0x20 ADD DUP1 DUP4 GT PUSH2 0x1986 JUMPI DUP3 SWAP1 SUB PUSH1 0x1F AND DUP3 ADD SWAP2 JUMPDEST POP POP POP POP POP SWAP1 DUP1 PUSH1 0x6 ADD DUP1 SLOAD PUSH2 0x19B8 SWAP1 PUSH2 0x3069 JUMP JUMPDEST DUP1 PUSH1 0x1F ADD PUSH1 0x20 DUP1 SWAP2 DIV MUL PUSH1 0x20 ADD PUSH1 0x40 MLOAD SWAP1 DUP2 ADD PUSH1 0x40 MSTORE DUP1 SWAP3 SWAP2 SWAP1 DUP2 DUP2 MSTORE PUSH1 0x20 ADD DUP3 DUP1 SLOAD PUSH2 0x19E4 SWAP1 PUSH2 0x3069 JUMP JUMPDEST DUP1 ISZERO PUSH2 0x1A31 JUMPI DUP1 PUSH1 0x1F LT PUSH2 0x1A06 JUMPI PUSH2 0x100 DUP1 DUP4 SLOAD DIV MUL DUP4 MSTORE SWAP2 PUSH1 0x20 ADD SWAP2 PUSH2 0x1A31 JUMP JUMPDEST DUP3 ADD SWAP2 SWAP1 PUSH1 0x0 MSTORE PUSH1 0x20 PUSH1 0x0 KECCAK256 SWAP1 JUMPDEST DUP2 SLOAD DUP2 MSTORE SWAP1 PUSH1 0x1 ADD SWAP1 PUSH1 0x20 ADD DUP1 DUP4 GT PUSH2 0x1A14 JUMPI DUP3 SWAP1 SUB PUSH1 0x1F AND DUP3 ADD SWAP2 JUMPDEST POP POP POP POP POP SWAP1 DUP1 PUSH1 0x7 ADD PUSH1 0x0 SWAP1 SLOAD SWAP1 PUSH2 0x100 EXP SWAP1 DIV PUSH1 0xFF AND SWAP1 DUP1 PUSH1 0x7 ADD PUSH1 0x1 SWAP1 SLOAD SWAP1 PUSH2 0x100 EXP SWAP1 DIV PUSH1 0xFF AND SWAP1 DUP1 PUSH1 0x8 ADD DUP1 SLOAD PUSH2 0x1A6C SWAP1 PUSH2 0x3069 JUMP JUMPDEST DUP1 PUSH1 0x1F ADD PUSH1 0x20 DUP1 SWAP2 DIV MUL PUSH1 0x20 ADD PUSH1 0x40 MLOAD SWAP1 DUP2 ADD PUSH1 0x40 MSTORE DUP1 SWAP3 SWAP2 SWAP1 DUP2 DUP2 MSTORE PUSH1 0x20 ADD DUP3 DUP1 SLOAD PUSH2 0x1A98 SWAP1 PUSH2 0x3069 JUMP JUMPDEST DUP1 ISZERO PUSH2 0x1AE5 JUMPI DUP1 PUSH1 0x1F LT PUSH2 0x1ABA JUMPI PUSH2 0x100 DUP1 DUP4 SLOAD DIV MUL DUP4 MSTORE SWAP2 PUSH1 0x20 ADD SWAP2 PUSH2 0x1AE5 JUMP JUMPDEST DUP3 ADD SWAP2 SWAP1 PUSH1 0x0 MSTORE PUSH1 0x20 PUSH1 0x0 KECCAK256 SWAP1 JUMPDEST DUP2 SLOAD DUP2 MSTORE SWAP1 PUSH1 0x1 ADD SWAP1 PUSH1 0x20 ADD DUP1 DUP4 GT PUSH2 0x1AC8 JUMPI DUP3 SWAP1 SUB PUSH1 0x1F AND DUP3 ADD SWAP2 JUMPDEST POP POP POP POP POP SWAP1 POP DUP11 JUMP JUMPDEST PUSH32 0x0 DUP2 JUMP JUMPDEST PUSH1 0x1 SLOAD DUP2 JUMP JUMPDEST PUSH2 0x1B21 PUSH2 0x25CF JUMP JUMPDEST PUSH1 0x4 PUSH1 0x0 DUP4 DUP2 MSTORE PUSH1 0x20 ADD SWAP1 DUP2 MSTORE PUSH1 0x20 ADD PUSH1 0x0 KECCAK256 PUSH1 0x40 MLOAD DUP1 PUSH2 0x140 ADD PUSH1 0x40 MSTORE SWAP1 DUP2 PUSH1 0x0 DUP3 ADD SLOAD DUP2 MSTORE PUSH1 0x20 ADD PUSH1 0x1 DUP3 ADD PUSH1 0x0 SWAP1 SLOAD SWAP1 PUSH2 0x100 EXP SWAP1 DIV PUSH20 0xFFFFFFFFFFFFFFFFFFFFFFFFFFFFFFFFFFFFFFFF AND PUSH20 0xFFFFFFFFFFFFFFFFFFFFFFFFFFFFFFFFFFFFFFFF AND PUSH20 0xFFFFFFFFFFFFFFFFFFFFFFFFFFFFFFFFFFFFFFFF AND DUP2 MSTORE PUSH1 0x20 ADD PUSH1 0x2 DUP3 ADD PUSH1 0x0 SWAP1 SLOAD SWAP1 PUSH2 0x100 EXP SWAP1 DIV PUSH20 0xFFFFFFFFFFFFFFFFFFFFFFFFFFFFFFFFFFFFFFFF AND PUSH20 0xFFFFFFFFFFFFFFFFFFFFFFFFFFFFFFFFFFFFFFFF AND PUSH20 0xFFFFFFFFFFFFFFFFFFFFFFFFFFFFFFFFFFFFFFFF AND DUP2 MSTORE PUSH1 0x20 ADD PUSH1 0x3 DUP3 ADD SLOAD DUP2 MSTORE PUSH1 0x20 ADD PUSH1 0x4 DUP3 ADD SLOAD DUP2 MSTORE PUSH1 0x20 ADD PUSH1 0x5 DUP3 ADD DUP1 SLOAD PUSH2 0x1C1A SWAP1 PUSH2 0x3069 JUMP JUMPDEST DUP1 PUSH1 0x1F ADD PUSH1 0x20 DUP1 SWAP2 DIV MUL PUSH1 0x20 ADD PUSH1 0x40 MLOAD SWAP1 DUP2 ADD PUSH1 0x40 MSTORE DUP1 SWAP3 SWAP2 SWAP1 DUP2 DUP2 MSTORE PUSH1 0x20 ADD DUP3 DUP1 SLOAD PUSH2 0x1C46 SWAP1 PUSH2 0x3069 JUMP JUMPDEST DUP1 ISZERO PUSH2 0x1C93 JUMPI DUP1 PUSH1 0x1F LT PUSH2 0x1C68 JUMPI PUSH2 0x100 DUP1 DUP4 SLOAD DIV MUL DUP4 MSTORE SWAP2 PUSH1 0x20 ADD SWAP2 PUSH2 0x1C93 JUMP JUMPDEST DUP3 ADD SWAP2 SWAP1 PUSH1 0x0 MSTORE PUSH1 0x20 PUSH1 0x0 KECCAK256 SWAP1 JUMPDEST DUP2 SLOAD DUP2 MSTORE SWAP1 PUSH1 0x1 ADD SWAP1 PUSH1 0x20 ADD DUP1 DUP4 GT PUSH2 0x1C76 JUMPI DUP3 SWAP1 SUB PUSH1 0x1F AND DUP3 ADD SWAP2 JUMPDEST POP POP POP POP POP DUP2 MSTORE PUSH1 0x20 ADD PUSH1 0x6 DUP3 ADD DUP1 SLOAD PUSH2 0x1CAC SWAP1 PUSH2 0x3069 JUMP JUMPDEST DUP1 PUSH1 0x1F ADD PUSH1 0x20 DUP1 SWAP2 DIV MUL PUSH1 0x20 ADD PUSH1 0x40 MLOAD SWAP1 DUP2 ADD PUSH1 0x40 MSTORE DUP1 SWAP3 SWAP2 SWAP1 DUP2 DUP2 MSTORE PUSH1 0x20 ADD DUP3 DUP1 SLOAD PUSH2 0x1CD8 SWAP1 PUSH2 0x3069 JUMP JUMPDEST DUP1 ISZERO PUSH2 0x1D25 JUMPI DUP1 PUSH1 0x1F LT PUSH2 0x1CFA JUMPI PUSH2 0x100 DUP1 DUP4 SLOAD DIV MUL DUP4 MSTORE SWAP2 PUSH1 0x20 ADD SWAP2 PUSH2 0x1D25 JUMP JUMPDEST DUP3 ADD SWAP2 SWAP1 PUSH1 0x0 MSTORE PUSH1 0x20 PUSH1 0x0 KECCAK256 SWAP1 JUMPDEST DUP2 SLOAD DUP2 MSTORE SWAP1 PUSH1 0x1 ADD SWAP1 PUSH1 0x20 ADD DUP1 DUP4 GT PUSH2 0x1D08 JUMPI DUP3 SWAP1 SUB PUSH1 0x1F AND DUP3 ADD SWAP2 JUMPDEST POP POP POP POP POP DUP2 MSTORE PUSH1 0x20 ADD PUSH1 0x7 DUP3 ADD PUSH1 0x0 SWAP1 SLOAD SWAP1 PUSH2 0x100 EXP SWAP1 DIV PUSH1 0xFF AND PUSH1 0x5 DUP2 GT ISZERO PUSH2 0x1D53 JUMPI PUSH2 0x1D52 PUSH2 0x2B00 JUMP JUMPDEST JUMPDEST PUSH1 0x5 DUP2 GT ISZERO PUSH2 0x1D65 JUMPI PUSH2 0x1D64 PUSH2 0x2B00 JUMP JUMPDEST JUMPDEST DUP2 MSTORE PUSH1 0x20 ADD PUSH1 0x7 DUP3 ADD PUSH1 0x1 SWAP1 SLOAD SWAP1 PUSH2 0x100 EXP SWAP1 DIV PUSH1 0xFF AND ISZERO ISZERO ISZERO ISZERO DUP2 MSTORE PUSH1 0x20 ADD PUSH1 0x8 DUP3 ADD DUP1 SLOAD PUSH2 0x1D94 SWAP1 PUSH2 0x3069 JUMP JUMPDEST DUP1 PUSH1 0x1F ADD PUSH1 0x20 DUP1 SWAP2 DIV MUL PUSH1 0x20 ADD PUSH1 0x40 MLOAD SWAP1 DUP2 ADD PUSH1 0x40 MSTORE DUP1 SWAP3 SWAP2 SWAP1 DUP2 DUP2 MSTORE PUSH1 0x20 ADD DUP3 DUP1 SLOAD PUSH2 0x1DC0 SWAP1 PUSH2 0x3069 JUMP JUMPDEST DUP1 ISZERO PUSH2 0x1E0D JUMPI DUP1 PUSH1 0x1F LT PUSH2 0x1DE2 JUMPI PUSH2 0x100 DUP1 DUP4 SLOAD DIV MUL DUP4 MSTORE SWAP2 PUSH1 0x20 ADD SWAP2 PUSH2 0x1E0D JUMP JUMPDEST DUP3 ADD SWAP2 SWAP1 PUSH1 0x0 MSTORE PUSH1 0x20 PUSH1 0x0 KECCAK256 SWAP1 JUMPDEST DUP2 SLOAD DUP2 MSTORE SWAP1 PUSH1 0x1 ADD SWAP1 PUSH1 0x20 ADD DUP1 DUP4 GT PUSH2 0x1DF0 JUMPI DUP3 SWAP1 SUB PUSH1 0x1F AND DUP3 ADD SWAP2 JUMPDEST POP POP POP POP POP DUP2 MSTORE POP POP SWAP1 POP SWAP2 SWAP1 POP JUMP JUMPDEST PUSH1 0x3 PUSH1 0x20 MSTORE DUP1 PUSH1 0x0 MSTORE PUSH1 0x40 PUSH1 0x0 KECCAK256 PUSH1 0x0 SWAP2 POP SWAP1 POP DUP1 PUSH1 0x0 ADD SLOAD SWAP1 DUP1 PUSH1 0x1 ADD PUSH1 0x0 SWAP1 SLOAD SWAP1 PUSH2 0x100 EXP SWAP1 DIV PUSH20 0xFFFFFFFFFFFFFFFFFFFFFFFFFFFFFFFFFFFFFFFF AND SWAP1 DUP1 PUSH1 0x2 ADD SLOAD SWAP1 DUP1 PUSH1 0x3 ADD SLOAD SWAP1 DUP1 PUSH1 0x4 ADD SLOAD SWAP1 DUP1 PUSH1 0x5 ADD DUP1 SLOAD PUSH2 0x1E7E SWAP1 PUSH2 0x3069 JUMP JUMPDEST DUP1 PUSH1 0x1F ADD PUSH1 0x20 DUP1 SWAP2 DIV MUL PUSH1 0x20 ADD PUSH1 0x40 MLOAD SWAP1 DUP2 ADD PUSH1 0x40 MSTORE DUP1 SWAP3 SWAP2 SWAP1 DUP2 DUP2 MSTORE PUSH1 0x20 ADD DUP3 DUP1 SLOAD PUSH2 0x1EAA SWAP1 PUSH2 0x3069 JUMP JUMPDEST DUP1 ISZERO PUSH2 0x1EF7 JUMPI DUP1 PUSH1 0x1F LT PUSH2 0x1ECC JUMPI PUSH2 0x100 DUP1 DUP4 SLOAD DIV MUL DUP4 MSTORE SWAP2 PUSH1 0x20 ADD SWAP2 PUSH2 0x1EF7 JUMP JUMPDEST DUP3 ADD SWAP2 SWAP1 PUSH1 0x0 MSTORE PUSH1 0x20 PUSH1 0x0 KECCAK256 SWAP1 JUMPDEST DUP2 SLOAD DUP2 MSTORE SWAP1 PUSH1 0x1 ADD SWAP1 PUSH1 0x20 ADD DUP1 DUP4 GT PUSH2 0x1EDA JUMPI DUP3 SWAP1 SUB PUSH1 0x1F AND DUP3 ADD SWAP2 JUMPDEST POP POP POP POP POP SWAP1 DUP1 PUSH1 0x6 ADD PUSH1 0x0 SWAP1 SLOAD SWAP1 PUSH2 0x100 EXP SWAP1 DIV PUSH1 0xFF AND SWAP1 POP DUP8 JUMP JUMPDEST PUSH1 0x0 PUSH1 0x3 PUSH1 0x0 DUP6 DUP2 MSTORE PUSH1 0x20 ADD SWAP1 DUP2 MSTORE PUSH1 0x20 ADD PUSH1 0x0 KECCAK256 SWAP1 POP DUP1 PUSH1 0x6 ADD PUSH1 0x0 SWAP1 SLOAD SWAP1 PUSH2 0x100 EXP SWAP1 DIV PUSH1 0xFF AND PUSH2 0x1F7C JUMPI PUSH1 0x40 MLOAD PUSH32 0x8C379A000000000000000000000000000000000000000000000000000000000 DUP2 MSTORE PUSH1 0x4 ADD PUSH2 0x1F73 SWAP1 PUSH2 0x3DBF JUMP JUMPDEST PUSH1 0x40 MLOAD DUP1 SWAP2 SUB SWAP1 REVERT JUMPDEST DUP1 PUSH1 0x1 ADD PUSH1 0x0 SWAP1 SLOAD SWAP1 PUSH2 0x100 EXP SWAP1 DIV PUSH20 0xFFFFFFFFFFFFFFFFFFFFFFFFFFFFFFFFFFFFFFFF AND PUSH20 0xFFFFFFFFFFFFFFFFFFFFFFFFFFFFFFFFFFFFFFFF AND CALLER PUSH20 0xFFFFFFFFFFFFFFFFFFFFFFFFFFFFFFFFFFFFFFFF AND EQ PUSH2 0x200E JUMPI PUSH1 0x40 MLOAD PUSH32 0x8C379A000000000000000000000000000000000000000000000000000000000 DUP2 MSTORE PUSH1 0x4 ADD PUSH2 0x2005 SWAP1 PUSH2 0x37B1 JUMP JUMPDEST PUSH1 0x40 MLOAD DUP1 SWAP2 SUB SWAP1 REVERT JUMPDEST PUSH1 0x0 DUP4 GT DUP1 ISZERO PUSH2 0x201E JUMPI POP PUSH1 0x0 DUP3 GT JUMPDEST PUSH2 0x205D JUMPI PUSH1 0x40 MLOAD PUSH32 0x8C379A000000000000000000000000000000000000000000000000000000000 DUP2 MSTORE PUSH1 0x4 ADD PUSH2 0x2054 SWAP1 PUSH2 0x3E2B JUMP JUMPDEST PUSH1 0x40 MLOAD DUP1 SWAP2 SUB SWAP1 REVERT JUMPDEST DUP3 DUP2 PUSH1 0x2 ADD DUP2 SWAP1 SSTORE POP DUP2 DUP2 PUSH1 0x3 ADD DUP2 SWAP1 SSTORE POP DUP2 DUP2 PUSH1 0x4 ADD DUP2 SWAP1 SSTORE POP DUP4 PUSH32 0xF7ADC9A0380A940C6058D78194DF6A9B9FA5BB431BBAD15194913BB611F3F4F7 DUP5 DUP5 PUSH1 0x40 MLOAD PUSH2 0x20AA SWAP3 SWAP2 SWAP1 PUSH2 0x3E4B JUMP JUMPDEST PUSH1 0x40 MLOAD DUP1 SWAP2 SUB SWAP1 LOG2 POP POP POP POP JUMP JUMPDEST PUSH1 0x0 DUP1 DUP6 GT PUSH2 0x20FC JUMPI PUSH1 0x40 MLOAD PUSH32 0x8C379A000000000000000000000000000000000000000000000000000000000 DUP2 MSTORE PUSH1 0x4 ADD PUSH2 0x20F3 SWAP1 PUSH2 0x3EC0 JUMP JUMPDEST PUSH1 0x40 MLOAD DUP1 SWAP2 SUB SWAP1 REVERT JUMPDEST PUSH1 0x0 DUP5 GT PUSH2 0x213F JUMPI PUSH1 0x40 MLOAD PUSH32 0x8C379A000000000000000000000000000000000000000000000000000000000 DUP2 MSTORE PUSH1 0x4 ADD PUSH2 0x2136 SWAP1 PUSH2 0x3F2C JUMP JUMPDEST PUSH1 0x40 MLOAD DUP1 SWAP2 SUB SWAP1 REVERT JUMPDEST PUSH1 0x0 PUSH32 0x0 PUSH20 0xFFFFFFFFFFFFFFFFFFFFFFFFFFFFFFFFFFFFFFFF AND PUSH4 0x53FD88BF DUP9 PUSH1 0x40 MLOAD DUP3 PUSH4 0xFFFFFFFF AND PUSH1 0xE0 SHL DUP2 MSTORE PUSH1 0x4 ADD PUSH2 0x219A SWAP2 SWAP1 PUSH2 0x2966 JUMP JUMPDEST PUSH1 0x0 PUSH1 0x40 MLOAD DUP1 DUP4 SUB DUP2 DUP7 GAS STATICCALL ISZERO DUP1 ISZERO PUSH2 0x21B7 JUMPI RETURNDATASIZE PUSH1 0x0 DUP1 RETURNDATACOPY RETURNDATASIZE PUSH1 0x0 REVERT JUMPDEST POP POP POP POP PUSH1 0x40 MLOAD RETURNDATASIZE PUSH1 0x0 DUP3 RETURNDATACOPY RETURNDATASIZE PUSH1 0x1F NOT PUSH1 0x1F DUP3 ADD AND DUP3 ADD DUP1 PUSH1 0x40 MSTORE POP DUP2 ADD SWAP1 PUSH2 0x21E0 SWAP2 SWAP1 PUSH2 0x40B8 JUMP JUMPDEST POP POP POP POP POP POP POP SWAP1 POP DUP1 PUSH20 0xFFFFFFFFFFFFFFFFFFFFFFFFFFFFFFFFFFFFFFFF AND CALLER PUSH20 0xFFFFFFFFFFFFFFFFFFFFFFFFFFFFFFFFFFFFFFFF AND EQ PUSH2 0x2257 JUMPI PUSH1 0x40 MLOAD PUSH32 0x8C379A000000000000000000000000000000000000000000000000000000000 DUP2 MSTORE PUSH1 0x4 ADD PUSH2 0x224E SWAP1 PUSH2 0x41D6 JUMP JUMPDEST PUSH1 0x40 MLOAD DUP1 SWAP2 SUB SWAP1 REVERT JUMPDEST PUSH1 0x0 PUSH1 0x1 PUSH1 0x0 DUP2 SLOAD DUP1 SWAP3 SWAP2 SWAP1 PUSH2 0x226C SWAP1 PUSH2 0x3B24 JUMP JUMPDEST SWAP2 SWAP1 POP SSTORE SWAP1 POP PUSH1 0x40 MLOAD DUP1 PUSH1 0xE0 ADD PUSH1 0x40 MSTORE DUP1 DUP10 DUP2 MSTORE PUSH1 0x20 ADD CALLER PUSH20 0xFFFFFFFFFFFFFFFFFFFFFFFFFFFFFFFFFFFFFFFF AND DUP2 MSTORE PUSH1 0x20 ADD DUP9 DUP2 MSTORE PUSH1 0x20 ADD DUP8 DUP2 MSTORE PUSH1 0x20 ADD DUP8 DUP2 MSTORE PUSH1 0x20 ADD DUP7 DUP7 DUP1 DUP1 PUSH1 0x1F ADD PUSH1 0x20 DUP1 SWAP2 DIV MUL PUSH1 0x20 ADD PUSH1 0x40 MLOAD SWAP1 DUP2 ADD PUSH1 0x40 MSTORE DUP1 SWAP4 SWAP3 SWAP2 SWAP1 DUP2 DUP2 MSTORE PUSH1 0x20 ADD DUP4 DUP4 DUP1 DUP3 DUP5 CALLDATACOPY PUSH1 0x0 DUP2 DUP5 ADD MSTORE PUSH1 0x1F NOT PUSH1 0x1F DUP3 ADD AND SWAP1 POP DUP1 DUP4 ADD SWAP3 POP POP POP POP POP POP POP DUP2 MSTORE PUSH1 0x20 ADD PUSH1 0x1 ISZERO ISZERO DUP2 MSTORE POP PUSH1 0x3 PUSH1 0x0 DUP4 DUP2 MSTORE PUSH1 0x20 ADD SWAP1 DUP2 MSTORE PUSH1 0x20 ADD PUSH1 0x0 KECCAK256 PUSH1 0x0 DUP3 ADD MLOAD DUP2 PUSH1 0x0 ADD SSTORE PUSH1 0x20 DUP3 ADD MLOAD DUP2 PUSH1 0x1 ADD PUSH1 0x0 PUSH2 0x100 EXP DUP2 SLOAD DUP2 PUSH20 0xFFFFFFFFFFFFFFFFFFFFFFFFFFFFFFFFFFFFFFFF MUL NOT AND SWAP1 DUP4 PUSH20 0xFFFFFFFFFFFFFFFFFFFFFFFFFFFFFFFFFFFFFFFF AND MUL OR SWAP1 SSTORE POP PUSH1 0x40 DUP3 ADD MLOAD DUP2 PUSH1 0x2 ADD SSTORE PUSH1 0x60 DUP3 ADD MLOAD DUP2 PUSH1 0x3 ADD SSTORE PUSH1 0x80 DUP3 ADD MLOAD DUP2 PUSH1 0x4 ADD SSTORE PUSH1 0xA0 DUP3 ADD MLOAD DUP2 PUSH1 0x5 ADD SWAP1 DUP2 PUSH2 0x2399 SWAP2 SWAP1 PUSH2 0x3B6C JUMP JUMPDEST POP PUSH1 0xC0 DUP3 ADD MLOAD DUP2 PUSH1 0x6 ADD PUSH1 0x0 PUSH2 0x100 EXP DUP2 SLOAD DUP2 PUSH1 0xFF MUL NOT AND SWAP1 DUP4 ISZERO ISZERO MUL OR SWAP1 SSTORE POP SWAP1 POP POP CALLER PUSH20 0xFFFFFFFFFFFFFFFFFFFFFFFFFFFFFFFFFFFFFFFF AND DUP9 DUP3 PUSH32 0x4FE3A1934F87B1B98D97A273D562BEB46C58AA4ECF7BF454C8C12915C6626DD0 DUP11 DUP11 DUP11 DUP11 PUSH1 0x40 MLOAD PUSH2 0x240B SWAP5 SWAP4 SWAP3 SWAP2 SWAP1 PUSH2 0x41F6 JUMP JUMPDEST PUSH1 0x40 MLOAD DUP1 SWAP2 SUB SWAP1 LOG4 DUP1 SWAP3 POP POP POP SWAP6 SWAP5 POP POP POP POP POP JUMP JUMPDEST PUSH1 0x2 PUSH1 0x0 SLOAD SUB PUSH2 0x245D JUMPI PUSH1 0x40 MLOAD PUSH32 0x3EE5AEB500000000000000000000000000000000000000000000000000000000 DUP2 MSTORE PUSH1 0x4 ADD PUSH1 0x40 MLOAD DUP1 SWAP2 SUB SWAP1 REVERT JUMPDEST PUSH1 0x2 PUSH1 0x0 DUP2 SWAP1 SSTORE POP JUMP JUMPDEST PUSH1 0x0 PUSH8 0x7FFFFFFFFFFFFFFF DUP3 GT ISZERO PUSH2 0x24B4 JUMPI PUSH1 0x40 MLOAD PUSH32 0x8C379A000000000000000000000000000000000000000000000000000000000 DUP2 MSTORE PUSH1 0x4 ADD PUSH2 0x24AB SWAP1 PUSH2 0x4282 JUMP JUMPDEST PUSH1 0x40 MLOAD DUP1 SWAP2 SUB SWAP1 REVERT JUMPDEST DUP2 SWAP1 POP SWAP2 SWAP1 POP JUMP JUMPDEST PUSH1 0x1 PUSH1 0x0 DUP2 SWAP1 SSTORE POP JUMP JUMPDEST PUSH1 0x0 DUP1 PUSH1 0x0 DUP1 PUSH2 0x167 PUSH20 0xFFFFFFFFFFFFFFFFFFFFFFFFFFFFFFFFFFFFFFFF AND PUSH4 0xF2C31FF4 PUSH32 0x0 DUP8 PUSH1 0x40 MLOAD DUP4 PUSH4 0xFFFFFFFF AND PUSH1 0xE0 SHL DUP2 MSTORE PUSH1 0x4 ADD PUSH2 0x2529 SWAP3 SWAP2 SWAP1 PUSH2 0x42A2 JUMP JUMPDEST PUSH1 0x40 DUP1 MLOAD DUP1 DUP4 SUB DUP2 DUP7 GAS STATICCALL ISZERO DUP1 ISZERO PUSH2 0x2545 JUMPI RETURNDATASIZE PUSH1 0x0 DUP1 RETURNDATACOPY RETURNDATASIZE PUSH1 0x0 REVERT JUMPDEST POP POP POP POP PUSH1 0x40 MLOAD RETURNDATASIZE PUSH1 0x1F NOT PUSH1 0x1F DUP3 ADD AND DUP3 ADD DUP1 PUSH1 0x40 MSTORE POP DUP2 ADD SWAP1 PUSH2 0x2569 SWAP2 SWAP1 PUSH2 0x42E0 JUMP JUMPDEST SWAP2 POP SWAP2 POP DUP2 DUP2 SWAP4 POP SWAP4 POP POP POP SWAP2 POP SWAP2 JUMP JUMPDEST PUSH1 0x40 MLOAD DUP1 PUSH1 0xE0 ADD PUSH1 0x40 MSTORE DUP1 PUSH1 0x0 DUP2 MSTORE PUSH1 0x20 ADD PUSH1 0x0 PUSH20 0xFFFFFFFFFFFFFFFFFFFFFFFFFFFFFFFFFFFFFFFF AND DUP2 MSTORE PUSH1 0x20 ADD PUSH1 0x0 DUP2 MSTORE PUSH1 0x20 ADD PUSH1 0x0 DUP2 MSTORE PUSH1 0x20 ADD PUSH1 0x0 DUP2 MSTORE PUSH1 0x20 ADD PUSH1 0x60 DUP2 MSTORE PUSH1 0x20 ADD PUSH1 0x0 ISZERO ISZERO DUP2 MSTORE POP SWAP1 JUMP JUMPDEST PUSH1 0x40 MLOAD DUP1 PUSH2 0x140 ADD PUSH1 0x40 MSTORE DUP1 PUSH1 0x0 DUP2 MSTORE PUSH1 0x20 ADD PUSH1 0x0 PUSH20 0xFFFFFFFFFFFFFFFFFFFFFFFFFFFFFFFFFFFFFFFF AND DUP2 MSTORE PUSH1 0x20 ADD PUSH1 0x0 PUSH20 0xFFFFFFFFFFFFFFFFFFFFFFFFFFFFFFFFFFFFFFFF AND DUP2 MSTORE PUSH1 0x20 ADD PUSH1 0x0 DUP2 MSTORE PUSH1 0x20 ADD PUSH1 0x0 DUP2 MSTORE PUSH1 0x20 ADD PUSH1 0x60 DUP2 MSTORE PUSH1 0x20 ADD PUSH1 0x60 DUP2 MSTORE PUSH1 0x20 ADD PUSH1 0x0 PUSH1 0x5 DUP2 GT ISZERO PUSH2 0x264C JUMPI PUSH2 0x264B PUSH2 0x2B00 JUMP JUMPDEST JUMPDEST DUP2 MSTORE PUSH1 0x20 ADD PUSH1 0x0 ISZERO ISZERO DUP2 MSTORE PUSH1 0x20 ADD PUSH1 0x60 DUP2 MSTORE POP SWAP1 JUMP JUMPDEST PUSH1 0x0 PUSH1 0x40 MLOAD SWAP1 POP SWAP1 JUMP JUMPDEST PUSH1 0x0 DUP1 REVERT JUMPDEST PUSH1 0x0 DUP1 REVERT JUMPDEST PUSH1 0x0 DUP2 SWAP1 POP SWAP2 SWAP1 POP JUMP JUMPDEST PUSH2 0x2689 DUP2 PUSH2 0x2676 JUMP JUMPDEST DUP2 EQ PUSH2 0x2694 JUMPI PUSH1 0x0 DUP1 REVERT JUMPDEST POP JUMP JUMPDEST PUSH1 0x0 DUP2 CALLDATALOAD SWAP1 POP PUSH2 0x26A6 DUP2 PUSH2 0x2680 JUMP JUMPDEST SWAP3 SWAP2 POP POP JUMP JUMPDEST PUSH1 0x0 DUP1 REVERT JUMPDEST PUSH1 0x0 DUP1 REVERT JUMPDEST PUSH1 0x0 DUP1 REVERT JUMPDEST PUSH1 0x0 DUP1 DUP4 PUSH1 0x1F DUP5 ADD SLT PUSH2 0x26D1 JUMPI PUSH2 0x26D0 PUSH2 0x26AC JUMP JUMPDEST JUMPDEST DUP3 CALLDATALOAD SWAP1 POP PUSH8 0xFFFFFFFFFFFFFFFF DUP2 GT ISZERO PUSH2 0x26EE JUMPI PUSH2 0x26ED PUSH2 0x26B1 JUMP JUMPDEST JUMPDEST PUSH1 0x20 DUP4 ADD SWAP2 POP DUP4 PUSH1 0x1 DUP3 MUL DUP4 ADD GT ISZERO PUSH2 0x270A JUMPI PUSH2 0x2709 PUSH2 0x26B6 JUMP JUMPDEST JUMPDEST SWAP3 POP SWAP3 SWAP1 POP JUMP JUMPDEST PUSH1 0x0 DUP1 PUSH1 0x0 PUSH1 0x40 DUP5 DUP7 SUB SLT ISZERO PUSH2 0x272A JUMPI PUSH2 0x2729 PUSH2 0x266C JUMP JUMPDEST JUMPDEST PUSH1 0x0 PUSH2 0x2738 DUP7 DUP3 DUP8 ADD PUSH2 0x2697 JUMP JUMPDEST SWAP4 POP POP PUSH1 0x20 DUP5 ADD CALLDATALOAD PUSH8 0xFFFFFFFFFFFFFFFF DUP2 GT ISZERO PUSH2 0x2759 JUMPI PUSH2 0x2758 PUSH2 0x2671 JUMP JUMPDEST JUMPDEST PUSH2 0x2765 DUP7 DUP3 DUP8 ADD PUSH2 0x26BB JUMP JUMPDEST SWAP3 POP SWAP3 POP POP SWAP3 POP SWAP3 POP SWAP3 JUMP JUMPDEST PUSH1 0x0 PUSH1 0x20 DUP3 DUP5 SUB SLT ISZERO PUSH2 0x2787 JUMPI PUSH2 0x2786 PUSH2 0x266C JUMP JUMPDEST JUMPDEST PUSH1 0x0 PUSH2 0x2795 DUP5 DUP3 DUP6 ADD PUSH2 0x2697 JUMP JUMPDEST SWAP2 POP POP SWAP3 SWAP2 POP POP JUMP JUMPDEST PUSH2 0x27A7 DUP2 PUSH2 0x2676 JUMP JUMPDEST DUP3 MSTORE POP POP JUMP JUMPDEST PUSH1 0x0 PUSH20 0xFFFFFFFFFFFFFFFFFFFFFFFFFFFFFFFFFFFFFFFF DUP3 AND SWAP1 POP SWAP2 SWAP1 POP JUMP JUMPDEST PUSH1 0x0 PUSH2 0x27D8 DUP3 PUSH2 0x27AD JUMP JUMPDEST SWAP1 POP SWAP2 SWAP1 POP JUMP JUMPDEST PUSH2 0x27E8 DUP2 PUSH2 0x27CD JUMP JUMPDEST DUP3 MSTORE POP POP JUMP JUMPDEST PUSH1 0x0 DUP2 MLOAD SWAP1 POP SWAP2 SWAP1 POP JUMP JUMPDEST PUSH1 0x0 DUP3 DUP3 MSTORE PUSH1 0x20 DUP3 ADD SWAP1 POP SWAP3 SWAP2 POP POP JUMP JUMPDEST PUSH1 0x0 JUMPDEST DUP4 DUP2 LT ISZERO PUSH2 0x2828 JUMPI DUP1 DUP3 ADD MLOAD DUP2 DUP5 ADD MSTORE PUSH1 0x20 DUP2 ADD SWAP1 POP PUSH2 0x280D JUMP JUMPDEST PUSH1 0x0 DUP5 DUP5 ADD MSTORE POP POP POP POP JUMP JUMPDEST PUSH1 0x0 PUSH1 0x1F NOT PUSH1 0x1F DUP4 ADD AND SWAP1 POP SWAP2 SWAP1 POP JUMP JUMPDEST PUSH1 0x0 PUSH2 0x2850 DUP3 PUSH2 0x27EE JUMP JUMPDEST PUSH2 0x285A DUP2 DUP6 PUSH2 0x27F9 JUMP JUMPDEST SWAP4 POP PUSH2 0x286A DUP2 DUP6 PUSH1 0x20 DUP7 ADD PUSH2 0x280A JUMP JUMPDEST PUSH2 0x2873 DUP2 PUSH2 0x2834 JUMP JUMPDEST DUP5 ADD SWAP2 POP POP SWAP3 SWAP2 POP POP JUMP JUMPDEST PUSH1 0x0 DUP2 ISZERO ISZERO SWAP1 POP SWAP2 SWAP1 POP JUMP JUMPDEST PUSH2 0x2893 DUP2 PUSH2 0x287E JUMP JUMPDEST DUP3 MSTORE POP POP JUMP JUMPDEST PUSH1 0x0 PUSH1 0xE0 DUP4 ADD PUSH1 0x0 DUP4 ADD MLOAD PUSH2 0x28B1 PUSH1 0x0 DUP7 ADD DUP3 PUSH2 0x279E JUMP JUMPDEST POP PUSH1 0x20 DUP4 ADD MLOAD PUSH2 0x28C4 PUSH1 0x20 DUP7 ADD DUP3 PUSH2 0x27DF JUMP JUMPDEST POP PUSH1 0x40 DUP4 ADD MLOAD PUSH2 0x28D7 PUSH1 0x40 DUP7 ADD DUP3 PUSH2 0x279E JUMP JUMPDEST POP PUSH1 0x60 DUP4 ADD MLOAD PUSH2 0x28EA PUSH1 0x60 DUP7 ADD DUP3 PUSH2 0x279E JUMP JUMPDEST POP PUSH1 0x80 DUP4 ADD MLOAD PUSH2 0x28FD PUSH1 0x80 DUP7 ADD DUP3 PUSH2 0x279E JUMP JUMPDEST POP PUSH1 0xA0 DUP4 ADD MLOAD DUP5 DUP3 SUB PUSH1 0xA0 DUP7 ADD MSTORE PUSH2 0x2915 DUP3 DUP3 PUSH2 0x2845 JUMP JUMPDEST SWAP2 POP POP PUSH1 0xC0 DUP4 ADD MLOAD PUSH2 0x292A PUSH1 0xC0 DUP7 ADD DUP3 PUSH2 0x288A JUMP JUMPDEST POP DUP1 SWAP2 POP POP SWAP3 SWAP2 POP POP JUMP JUMPDEST PUSH1 0x0 PUSH1 0x20 DUP3 ADD SWAP1 POP DUP2 DUP2 SUB PUSH1 0x0 DUP4 ADD MSTORE PUSH2 0x294F DUP2 DUP5 PUSH2 0x2899 JUMP JUMPDEST SWAP1 POP SWAP3 SWAP2 POP POP JUMP JUMPDEST PUSH2 0x2960 DUP2 PUSH2 0x2676 JUMP JUMPDEST DUP3 MSTORE POP POP JUMP JUMPDEST PUSH1 0x0 PUSH1 0x20 DUP3 ADD SWAP1 POP PUSH2 0x297B PUSH1 0x0 DUP4 ADD DUP5 PUSH2 0x2957 JUMP JUMPDEST SWAP3 SWAP2 POP POP JUMP JUMPDEST PUSH2 0x298A DUP2 PUSH2 0x287E JUMP JUMPDEST DUP2 EQ PUSH2 0x2995 JUMPI PUSH1 0x0 DUP1 REVERT JUMPDEST POP JUMP JUMPDEST PUSH1 0x0 DUP2 CALLDATALOAD SWAP1 POP PUSH2 0x29A7 DUP2 PUSH2 0x2981 JUMP JUMPDEST SWAP3 SWAP2 POP POP JUMP JUMPDEST PUSH1 0x0 DUP1 PUSH1 0x40 DUP4 DUP6 SUB SLT ISZERO PUSH2 0x29C4 JUMPI PUSH2 0x29C3 PUSH2 0x266C JUMP JUMPDEST JUMPDEST PUSH1 0x0 PUSH2 0x29D2 DUP6 DUP3 DUP7 ADD PUSH2 0x2697 JUMP JUMPDEST SWAP3 POP POP PUSH1 0x20 PUSH2 0x29E3 DUP6 DUP3 DUP7 ADD PUSH2 0x2998 JUMP JUMPDEST SWAP2 POP POP SWAP3 POP SWAP3 SWAP1 POP JUMP JUMPDEST PUSH1 0x0 DUP1 PUSH1 0x40 DUP4 DUP6 SUB SLT ISZERO PUSH2 0x2A04 JUMPI PUSH2 0x2A03 PUSH2 0x266C JUMP JUMPDEST JUMPDEST PUSH1 0x0 PUSH2 0x2A12 DUP6 DUP3 DUP7 ADD PUSH2 0x2697 JUMP JUMPDEST SWAP3 POP POP PUSH1 0x20 PUSH2 0x2A23 DUP6 DUP3 DUP7 ADD PUSH2 0x2697 JUMP JUMPDEST SWAP2 POP POP SWAP3 POP SWAP3 SWAP1 POP JUMP JUMPDEST PUSH1 0x0 DUP2 SWAP1 POP SWAP2 SWAP1 POP JUMP JUMPDEST PUSH1 0x0 PUSH2 0x2A52 PUSH2 0x2A4D PUSH2 0x2A48 DUP5 PUSH2 0x27AD JUMP JUMPDEST PUSH2 0x2A2D JUMP JUMPDEST PUSH2 0x27AD JUMP JUMPDEST SWAP1 POP SWAP2 SWAP1 POP JUMP JUMPDEST PUSH1 0x0 PUSH2 0x2A64 DUP3 PUSH2 0x2A37 JUMP JUMPDEST SWAP1 POP SWAP2 SWAP1 POP JUMP JUMPDEST PUSH1 0x0 PUSH2 0x2A76 DUP3 PUSH2 0x2A59 JUMP JUMPDEST SWAP1 POP SWAP2 SWAP1 POP JUMP JUMPDEST PUSH2 0x2A86 DUP2 PUSH2 0x2A6B JUMP JUMPDEST DUP3 MSTORE POP POP JUMP JUMPDEST PUSH1 0x0 PUSH1 0x20 DUP3 ADD SWAP1 POP PUSH2 0x2AA1 PUSH1 0x0 DUP4 ADD DUP5 PUSH2 0x2A7D JUMP JUMPDEST SWAP3 SWAP2 POP POP JUMP JUMPDEST PUSH2 0x2AB0 DUP2 PUSH2 0x27CD JUMP JUMPDEST DUP3 MSTORE POP POP JUMP JUMPDEST PUSH1 0x0 DUP3 DUP3 MSTORE PUSH1 0x20 DUP3 ADD SWAP1 POP SWAP3 SWAP2 POP POP JUMP JUMPDEST PUSH1 0x0 PUSH2 0x2AD2 DUP3 PUSH2 0x27EE JUMP JUMPDEST PUSH2 0x2ADC DUP2 DUP6 PUSH2 0x2AB6 JUMP JUMPDEST SWAP4 POP PUSH2 0x2AEC DUP2 DUP6 PUSH1 0x20 DUP7 ADD PUSH2 0x280A JUMP JUMPDEST PUSH2 0x2AF5 DUP2 PUSH2 0x2834 JUMP JUMPDEST DUP5 ADD SWAP2 POP POP SWAP3 SWAP2 POP POP JUMP JUMPDEST PUSH32 0x4E487B7100000000000000000000000000000000000000000000000000000000 PUSH1 0x0 MSTORE PUSH1 0x21 PUSH1 0x4 MSTORE PUSH1 0x24 PUSH1 0x0 REVERT JUMPDEST PUSH1 0x6 DUP2 LT PUSH2 0x2B40 JUMPI PUSH2 0x2B3F PUSH2 0x2B00 JUMP JUMPDEST JUMPDEST POP JUMP JUMPDEST PUSH1 0x0 DUP2 SWAP1 POP PUSH2 0x2B51 DUP3 PUSH2 0x2B2F JUMP JUMPDEST SWAP2 SWAP1 POP JUMP JUMPDEST PUSH1 0x0 PUSH2 0x2B61 DUP3 PUSH2 0x2B43 JUMP JUMPDEST SWAP1 POP SWAP2 SWAP1 POP JUMP JUMPDEST PUSH2 0x2B71 DUP2 PUSH2 0x2B56 JUMP JUMPDEST DUP3 MSTORE POP POP JUMP JUMPDEST PUSH2 0x2B80 DUP2 PUSH2 0x287E JUMP JUMPDEST DUP3 MSTORE POP POP JUMP JUMPDEST PUSH1 0x0 PUSH2 0x140 DUP3 ADD SWAP1 POP PUSH2 0x2B9C PUSH1 0x0 DUP4 ADD DUP14 PUSH2 0x2957 JUMP JUMPDEST PUSH2 0x2BA9 PUSH1 0x20 DUP4 ADD DUP13 PUSH2 0x2AA7 JUMP JUMPDEST PUSH2 0x2BB6 PUSH1 0x40 DUP4 ADD DUP12 PUSH2 0x2AA7 JUMP JUMPDEST PUSH2 0x2BC3 PUSH1 0x60 DUP4 ADD DUP11 PUSH2 0x2957 JUMP JUMPDEST PUSH2 0x2BD0 PUSH1 0x80 DUP4 ADD DUP10 PUSH2 0x2957 JUMP JUMPDEST DUP2 DUP2 SUB PUSH1 0xA0 DUP4 ADD MSTORE PUSH2 0x2BE2 DUP2 DUP9 PUSH2 0x2AC7 JUMP JUMPDEST SWAP1 POP DUP2 DUP2 SUB PUSH1 0xC0 DUP4 ADD MSTORE PUSH2 0x2BF6 DUP2 DUP8 PUSH2 0x2AC7 JUMP JUMPDEST SWAP1 POP PUSH2 0x2C05 PUSH1 0xE0 DUP4 ADD DUP7 PUSH2 0x2B68 JUMP JUMPDEST PUSH2 0x2C13 PUSH2 0x100 DUP4 ADD DUP6 PUSH2 0x2B77 JUMP JUMPDEST DUP2 DUP2 SUB PUSH2 0x120 DUP4 ADD MSTORE PUSH2 0x2C26 DUP2 DUP5 PUSH2 0x2AC7 JUMP JUMPDEST SWAP1 POP SWAP12 SWAP11 POP POP POP POP POP POP POP POP POP POP POP JUMP JUMPDEST PUSH1 0x0 PUSH1 0x20 DUP3 ADD SWAP1 POP PUSH2 0x2C4C PUSH1 0x0 DUP4 ADD DUP5 PUSH2 0x2AA7 JUMP JUMPDEST SWAP3 SWAP2 POP POP JUMP JUMPDEST PUSH2 0x2C5B DUP2 PUSH2 0x2B56 JUMP JUMPDEST DUP3 MSTORE POP POP JUMP JUMPDEST PUSH1 0x0 PUSH2 0x140 DUP4 ADD PUSH1 0x0 DUP4 ADD MLOAD PUSH2 0x2C7A PUSH1 0x0 DUP7 ADD DUP3 PUSH2 0x279E JUMP JUMPDEST POP PUSH1 0x20 DUP4 ADD MLOAD PUSH2 0x2C8D PUSH1 0x20 DUP7 ADD DUP3 PUSH2 0x27DF JUMP JUMPDEST POP PUSH1 0x40 DUP4 ADD MLOAD PUSH2 0x2CA0 PUSH1 0x40 DUP7 ADD DUP3 PUSH2 0x27DF JUMP JUMPDEST POP PUSH1 0x60 DUP4 ADD MLOAD PUSH2 0x2CB3 PUSH1 0x60 DUP7 ADD DUP3 PUSH2 0x279E JUMP JUMPDEST POP PUSH1 0x80 DUP4 ADD MLOAD PUSH2 0x2CC6 PUSH1 0x80 DUP7 ADD DUP3 PUSH2 0x279E JUMP JUMPDEST POP PUSH1 0xA0 DUP4 ADD MLOAD DUP5 DUP3 SUB PUSH1 0xA0 DUP7 ADD MSTORE PUSH2 0x2CDE DUP3 DUP3 PUSH2 0x2845 JUMP JUMPDEST SWAP2 POP POP PUSH1 0xC0 DUP4 ADD MLOAD DUP5 DUP3 SUB PUSH1 0xC0 DUP7 ADD MSTORE PUSH2 0x2CF8 DUP3 DUP3 PUSH2 0x2845 JUMP JUMPDEST SWAP2 POP POP PUSH1 0xE0 DUP4 ADD MLOAD PUSH2 0x2D0D PUSH1 0xE0 DUP7 ADD DUP3 PUSH2 0x2C52 JUMP JUMPDEST POP PUSH2 0x100 DUP4 ADD MLOAD PUSH2 0x2D22 PUSH2 0x100 DUP7 ADD DUP3 PUSH2 0x288A JUMP JUMPDEST POP PUSH2 0x120 DUP4 ADD MLOAD DUP5 DUP3 SUB PUSH2 0x120 DUP7 ADD MSTORE PUSH2 0x2D3C DUP3 DUP3 PUSH2 0x2845 JUMP JUMPDEST SWAP2 POP POP DUP1 SWAP2 POP POP SWAP3 SWAP2 POP POP JUMP JUMPDEST PUSH1 0x0 PUSH1 0x20 DUP3 ADD SWAP1 POP DUP2 DUP2 SUB PUSH1 0x0 DUP4 ADD MSTORE PUSH2 0x2D63 DUP2 DUP5 PUSH2 0x2C61 JUMP JUMPDEST SWAP1 POP SWAP3 SWAP2 POP POP JUMP JUMPDEST PUSH1 0x0 PUSH1 0xE0 DUP3 ADD SWAP1 POP PUSH2 0x2D80 PUSH1 0x0 DUP4 ADD DUP11 PUSH2 0x2957 JUMP JUMPDEST PUSH2 0x2D8D PUSH1 0x20 DUP4 ADD DUP10 PUSH2 0x2AA7 JUMP JUMPDEST PUSH2 0x2D9A PUSH1 0x40 DUP4 ADD DUP9 PUSH2 0x2957 JUMP JUMPDEST PUSH2 0x2DA7 PUSH1 0x60 DUP4 ADD DUP8 PUSH2 0x2957 JUMP JUMPDEST PUSH2 0x2DB4 PUSH1 0x80 DUP4 ADD DUP7 PUSH2 0x2957 JUMP JUMPDEST DUP2 DUP2 SUB PUSH1 0xA0 DUP4 ADD MSTORE PUSH2 0x2DC6 DUP2 DUP6 PUSH2 0x2AC7 JUMP JUMPDEST SWAP1 POP PUSH2 0x2DD5 PUSH1 0xC0 DUP4 ADD DUP5 PUSH2 0x2B77 JUMP JUMPDEST SWAP9 SWAP8 POP POP POP POP POP POP POP POP JUMP JUMPDEST PUSH1 0x0 DUP1 PUSH1 0x0 PUSH1 0x60 DUP5 DUP7 SUB SLT ISZERO PUSH2 0x2DFA JUMPI PUSH2 0x2DF9 PUSH2 0x266C JUMP JUMPDEST JUMPDEST PUSH1 0x0 PUSH2 0x2E08 DUP7 DUP3 DUP8 ADD PUSH2 0x2697 JUMP JUMPDEST SWAP4 POP POP PUSH1 0x20 PUSH2 0x2E19 DUP7 DUP3 DUP8 ADD PUSH2 0x2697 JUMP JUMPDEST SWAP3 POP POP PUSH1 0x40 PUSH2 0x2E2A DUP7 DUP3 DUP8 ADD PUSH2 0x2697 JUMP JUMPDEST SWAP2 POP POP SWAP3 POP SWAP3 POP SWAP3 JUMP JUMPDEST PUSH1 0x0 DUP1 PUSH1 0x0 DUP1 PUSH1 0x0 PUSH1 0x80 DUP7 DUP9 SUB SLT ISZERO PUSH2 0x2E50 JUMPI PUSH2 0x2E4F PUSH2 0x266C JUMP JUMPDEST JUMPDEST PUSH1 0x0 PUSH2 0x2E5E DUP9 DUP3 DUP10 ADD PUSH2 0x2697 JUMP JUMPDEST SWAP6 POP POP PUSH1 0x20 PUSH2 0x2E6F DUP9 DUP3 DUP10 ADD PUSH2 0x2697 JUMP JUMPDEST SWAP5 POP POP PUSH1 0x40 PUSH2 0x2E80 DUP9 DUP3 DUP10 ADD PUSH2 0x2697 JUMP JUMPDEST SWAP4 POP POP PUSH1 0x60 DUP7 ADD CALLDATALOAD PUSH8 0xFFFFFFFFFFFFFFFF DUP2 GT ISZERO PUSH2 0x2EA1 JUMPI PUSH2 0x2EA0 PUSH2 0x2671 JUMP JUMPDEST JUMPDEST PUSH2 0x2EAD DUP9 DUP3 DUP10 ADD PUSH2 0x26BB JUMP JUMPDEST SWAP3 POP SWAP3 POP POP SWAP3 SWAP6 POP SWAP3 SWAP6 SWAP1 SWAP4 POP JUMP JUMPDEST PUSH32 0x4D61726B6574706C6163653A206F6E6C79206275796572000000000000000000 PUSH1 0x0 DUP3 ADD MSTORE POP JUMP JUMPDEST PUSH1 0x0 PUSH2 0x2EF2 PUSH1 0x17 DUP4 PUSH2 0x2AB6 JUMP JUMPDEST SWAP2 POP PUSH2 0x2EFD DUP3 PUSH2 0x2EBC JUMP JUMPDEST PUSH1 0x20 DUP3 ADD SWAP1 POP SWAP2 SWAP1 POP JUMP JUMPDEST PUSH1 0x0 PUSH1 0x20 DUP3 ADD SWAP1 POP DUP2 DUP2 SUB PUSH1 0x0 DUP4 ADD MSTORE PUSH2 0x2F21 DUP2 PUSH2 0x2EE5 JUMP JUMPDEST SWAP1 POP SWAP2 SWAP1 POP JUMP JUMPDEST PUSH32 0x4D61726B6574706C6163653A206E6F7420736869707065640000000000000000 PUSH1 0x0 DUP3 ADD MSTORE POP JUMP JUMPDEST PUSH1 0x0 PUSH2 0x2F5E PUSH1 0x18 DUP4 PUSH2 0x2AB6 JUMP JUMPDEST SWAP2 POP PUSH2 0x2F69 DUP3 PUSH2 0x2F28 JUMP JUMPDEST PUSH1 0x20 DUP3 ADD SWAP1 POP SWAP2 SWAP1 POP JUMP JUMPDEST PUSH1 0x0 PUSH1 0x20 DUP3 ADD SWAP1 POP DUP2 DUP2 SUB PUSH1 0x0 DUP4 ADD MSTORE PUSH2 0x2F8D DUP2 PUSH2 0x2F51 JUMP JUMPDEST SWAP1 POP SWAP2 SWAP1 POP JUMP JUMPDEST PUSH32 0x4D61726B6574706C6163653A2064697370757465640000000000000000000000 PUSH1 0x0 DUP3 ADD MSTORE POP JUMP JUMPDEST PUSH1 0x0 PUSH2 0x2FCA PUSH1 0x15 DUP4 PUSH2 0x2AB6 JUMP JUMPDEST SWAP2 POP PUSH2 0x2FD5 DUP3 PUSH2 0x2F94 JUMP JUMPDEST PUSH1 0x20 DUP3 ADD SWAP1 POP SWAP2 SWAP1 POP JUMP JUMPDEST PUSH1 0x0 PUSH1 0x20 DUP3 ADD SWAP1 POP DUP2 DUP2 SUB PUSH1 0x0 DUP4 ADD MSTORE PUSH2 0x2FF9 DUP2 PUSH2 0x2FBD JUMP JUMPDEST SWAP1 POP SWAP2 SWAP1 POP JUMP JUMPDEST PUSH1 0x0 DUP3 SWAP1 POP SWAP3 SWAP2 POP POP JUMP JUMPDEST PUSH32 0x4E487B7100000000000000000000000000000000000000000000000000000000 PUSH1 0x0 MSTORE PUSH1 0x41 PUSH1 0x4 MSTORE PUSH1 0x24 PUSH1 0x0 REVERT JUMPDEST PUSH32 0x4E487B7100000000000000000000000000000000000000000000000000000000 PUSH1 0x0 MSTORE PUSH1 0x22 PUSH1 0x4 MSTORE PUSH1 0x24 PUSH1 0x0 REVERT JUMPDEST PUSH1 0x0 PUSH1 0x2 DUP3 DIV SWAP1 POP PUSH1 0x1 DUP3 AND DUP1 PUSH2 0x3081 JUMPI PUSH1 0x7F DUP3 AND SWAP2 POP JUMPDEST PUSH1 0x20 DUP3 LT DUP2 SUB PUSH2 0x3094 JUMPI PUSH2 0x3093 PUSH2 0x303A JUMP JUMPDEST JUMPDEST POP SWAP2 SWAP1 POP JUMP JUMPDEST PUSH1 0x0 DUP2 SWAP1 POP DUP2 PUSH1 0x0 MSTORE PUSH1 0x20 PUSH1 0x0 KECCAK256 SWAP1 POP SWAP2 SWAP1 POP JUMP JUMPDEST PUSH1 0x0 PUSH1 0x20 PUSH1 0x1F DUP4 ADD DIV SWAP1 POP SWAP2 SWAP1 POP JUMP JUMPDEST PUSH1 0x0 DUP3 DUP3 SHL SWAP1 POP SWAP3 SWAP2 POP POP JUMP JUMPDEST PUSH1 0x0 PUSH1 0x8 DUP4 MUL PUSH2 0x30FC PUSH32 0xFFFFFFFFFFFFFFFFFFFFFFFFFFFFFFFFFFFFFFFFFFFFFFFFFFFFFFFFFFFFFFFF DUP3 PUSH2 0x30BF JUMP JUMPDEST PUSH2 0x3106 DUP7 DUP4 PUSH2 0x30BF JUMP JUMPDEST SWAP6 POP DUP1 NOT DUP5 AND SWAP4 POP DUP1 DUP7 AND DUP5 OR SWAP3 POP POP POP SWAP4 SWAP3 POP POP POP JUMP JUMPDEST PUSH1 0x0 PUSH2 0x3139 PUSH2 0x3134 PUSH2 0x312F DUP5 PUSH2 0x2676 JUMP JUMPDEST PUSH2 0x2A2D JUMP JUMPDEST PUSH2 0x2676 JUMP JUMPDEST SWAP1 POP SWAP2 SWAP1 POP JUMP JUMPDEST PUSH1 0x0 DUP2 SWAP1 POP SWAP2 SWAP1 POP JUMP JUMPDEST PUSH2 0x3153 DUP4 PUSH2 0x311E JUMP JUMPDEST PUSH2 0x3167 PUSH2 0x315F DUP3 PUSH2 0x3140 JUMP JUMPDEST DUP5 DUP5 SLOAD PUSH2 0x30CC JUMP JUMPDEST DUP3 SSTORE POP POP POP POP JUMP JUMPDEST PUSH1 0x0 SWAP1 JUMP JUMPDEST PUSH2 0x317C PUSH2 0x316F JUMP JUMPDEST PUSH2 0x3187 DUP2 DUP5 DUP5 PUSH2 0x314A JUMP JUMPDEST POP POP POP JUMP JUMPDEST JUMPDEST DUP2 DUP2 LT ISZERO PUSH2 0x31AB JUMPI PUSH2 0x31A0 PUSH1 0x0 DUP3 PUSH2 0x3174 JUMP JUMPDEST PUSH1 0x1 DUP2 ADD SWAP1 POP PUSH2 0x318D JUMP JUMPDEST POP POP JUMP JUMPDEST PUSH1 0x1F DUP3 GT ISZERO PUSH2 0x31F0 JUMPI PUSH2 0x31C1 DUP2 PUSH2 0x309A JUMP JUMPDEST PUSH2 0x31CA DUP5 PUSH2 0x30AF JUMP JUMPDEST DUP2 ADD PUSH1 0x20 DUP6 LT ISZERO PUSH2 0x31D9 JUMPI DUP2 SWAP1 POP JUMPDEST PUSH2 0x31ED PUSH2 0x31E5 DUP6 PUSH2 0x30AF JUMP JUMPDEST DUP4 ADD DUP3 PUSH2 0x318C JUMP JUMPDEST POP POP JUMPDEST POP POP POP JUMP JUMPDEST PUSH1 0x0 DUP3 DUP3 SHR SWAP1 POP SWAP3 SWAP2 POP POP JUMP JUMPDEST PUSH1 0x0 PUSH2 0x3213 PUSH1 0x0 NOT DUP5 PUSH1 0x8 MUL PUSH2 0x31F5 JUMP JUMPDEST NOT DUP1 DUP4 AND SWAP2 POP POP SWAP3 SWAP2 POP POP JUMP JUMPDEST PUSH1 0x0 PUSH2 0x322C DUP4 DUP4 PUSH2 0x3202 JUMP JUMPDEST SWAP2 POP DUP3 PUSH1 0x2 MUL DUP3 OR SWAP1 POP SWAP3 SWAP2 POP POP JUMP JUMPDEST PUSH2 0x3246 DUP4 DUP4 PUSH2 0x3000 JUMP JUMPDEST PUSH8 0xFFFFFFFFFFFFFFFF DUP2 GT ISZERO PUSH2 0x325F JUMPI PUSH2 0x325E PUSH2 0x300B JUMP JUMPDEST JUMPDEST PUSH2 0x3269 DUP3 SLOAD PUSH2 0x3069 JUMP JUMPDEST PUSH2 0x3274 DUP3 DUP3 DUP6 PUSH2 0x31AF JUMP JUMPDEST PUSH1 0x0 PUSH1 0x1F DUP4 GT PUSH1 0x1 DUP2 EQ PUSH2 0x32A3 JUMPI PUSH1 0x0 DUP5 ISZERO PUSH2 0x3291 JUMPI DUP3 DUP8 ADD CALLDATALOAD SWAP1 POP JUMPDEST PUSH2 0x329B DUP6 DUP3 PUSH2 0x3220 JUMP JUMPDEST DUP7 SSTORE POP PUSH2 0x3303 JUMP JUMPDEST PUSH1 0x1F NOT DUP5 AND PUSH2 0x32B1 DUP7 PUSH2 0x309A JUMP JUMPDEST PUSH1 0x0 JUMPDEST DUP3 DUP2 LT ISZERO PUSH2 0x32D9 JUMPI DUP5 DUP10 ADD CALLDATALOAD DUP3 SSTORE PUSH1 0x1 DUP3 ADD SWAP2 POP PUSH1 0x20 DUP6 ADD SWAP5 POP PUSH1 0x20 DUP2 ADD SWAP1 POP PUSH2 0x32B4 JUMP JUMPDEST DUP7 DUP4 LT ISZERO PUSH2 0x32F6 JUMPI DUP5 DUP10 ADD CALLDATALOAD PUSH2 0x32F2 PUSH1 0x1F DUP10 AND DUP3 PUSH2 0x3202 JUMP JUMPDEST DUP4 SSTORE POP JUMPDEST PUSH1 0x1 PUSH1 0x2 DUP9 MUL ADD DUP9 SSTORE POP POP POP JUMPDEST POP POP POP POP POP POP POP JUMP JUMPDEST DUP3 DUP2 DUP4 CALLDATACOPY PUSH1 0x0 DUP4 DUP4 ADD MSTORE POP POP POP JUMP JUMPDEST PUSH1 0x0 PUSH2 0x3327 DUP4 DUP6 PUSH2 0x2AB6 JUMP JUMPDEST SWAP4 POP PUSH2 0x3334 DUP4 DUP6 DUP5 PUSH2 0x330C JUMP JUMPDEST PUSH2 0x333D DUP4 PUSH2 0x2834 JUMP JUMPDEST DUP5 ADD SWAP1 POP SWAP4 SWAP3 POP POP POP JUMP JUMPDEST PUSH1 0x0 PUSH1 0x20 DUP3 ADD SWAP1 POP DUP2 DUP2 SUB PUSH1 0x0 DUP4 ADD MSTORE PUSH2 0x3363 DUP2 DUP5 DUP7 PUSH2 0x331B JUMP JUMPDEST SWAP1 POP SWAP4 SWAP3 POP POP POP JUMP JUMPDEST PUSH32 0x4D61726B6574706C6163653A206E6F2064697370757465000000000000000000 PUSH1 0x0 DUP3 ADD MSTORE POP JUMP JUMPDEST PUSH1 0x0 PUSH2 0x33A2 PUSH1 0x17 DUP4 PUSH2 0x2AB6 JUMP JUMPDEST SWAP2 POP PUSH2 0x33AD DUP3 PUSH2 0x336C JUMP JUMPDEST PUSH1 0x20 DUP3 ADD SWAP1 POP SWAP2 SWAP1 POP JUMP JUMPDEST PUSH1 0x0 PUSH1 0x20 DUP3 ADD SWAP1 POP DUP2 DUP2 SUB PUSH1 0x0 DUP4 ADD MSTORE PUSH2 0x33D1 DUP2 PUSH2 0x3395 JUMP JUMPDEST SWAP1 POP SWAP2 SWAP1 POP JUMP JUMPDEST PUSH32 0x4D61726B6574706C6163653A206E6F7420646973707574656400000000000000 PUSH1 0x0 DUP3 ADD MSTORE POP JUMP JUMPDEST PUSH1 0x0 PUSH2 0x340E PUSH1 0x19 DUP4 PUSH2 0x2AB6 JUMP JUMPDEST SWAP2 POP PUSH2 0x3419 DUP3 PUSH2 0x33D8 JUMP JUMPDEST PUSH1 0x20 DUP3 ADD SWAP1 POP SWAP2 SWAP1 POP JUMP JUMPDEST PUSH1 0x0 PUSH1 0x20 DUP3 ADD SWAP1 POP DUP2 DUP2 SUB PUSH1 0x0 DUP4 ADD MSTORE PUSH2 0x343D DUP2 PUSH2 0x3401 JUMP JUMPDEST SWAP1 POP SWAP2 SWAP1 POP JUMP JUMPDEST PUSH1 0x0 DUP2 PUSH1 0x7 SIGNEXTEND SWAP1 POP SWAP2 SWAP1 POP JUMP JUMPDEST PUSH2 0x345A DUP2 PUSH2 0x3444 JUMP JUMPDEST DUP3 MSTORE POP POP JUMP JUMPDEST PUSH1 0x0 PUSH1 0x80 DUP3 ADD SWAP1 POP PUSH2 0x3475 PUSH1 0x0 DUP4 ADD DUP8 PUSH2 0x2AA7 JUMP JUMPDEST PUSH2 0x3482 PUSH1 0x20 DUP4 ADD DUP7 PUSH2 0x2AA7 JUMP JUMPDEST PUSH2 0x348F PUSH1 0x40 DUP4 ADD DUP6 PUSH2 0x2AA7 JUMP JUMPDEST PUSH2 0x349C PUSH1 0x60 DUP4 ADD DUP5 PUSH2 0x3451 JUMP JUMPDEST SWAP6 SWAP5 POP POP POP POP POP JUMP JUMPDEST PUSH1 0x0 DUP2 SWAP1 POP SWAP2 SWAP1 POP JUMP JUMPDEST PUSH2 0x34B8 DUP2 PUSH2 0x34A5 JUMP JUMPDEST DUP2 EQ PUSH2 0x34C3 JUMPI PUSH1 0x0 DUP1 REVERT JUMPDEST POP JUMP JUMPDEST PUSH1 0x0 DUP2 MLOAD SWAP1 POP PUSH2 0x34D5 DUP2 PUSH2 0x34AF JUMP JUMPDEST SWAP3 SWAP2 POP POP JUMP JUMPDEST PUSH1 0x0 PUSH1 0x20 DUP3 DUP5 SUB SLT ISZERO PUSH2 0x34F1 JUMPI PUSH2 0x34F0 PUSH2 0x266C JUMP JUMPDEST JUMPDEST PUSH1 0x0 PUSH2 0x34FF DUP5 DUP3 DUP6 ADD PUSH2 0x34C6 JUMP JUMPDEST SWAP2 POP POP SWAP3 SWAP2 POP POP JUMP JUMPDEST PUSH32 0x4D61726B6574706C6163653A2073656C6C6572207472616E7366657220666169 PUSH1 0x0 DUP3 ADD MSTORE PUSH32 0x6C65640000000000000000000000000000000000000000000000000000000000 PUSH1 0x20 DUP3 ADD MSTORE POP JUMP JUMPDEST PUSH1 0x0 PUSH2 0x3564 PUSH1 0x23 DUP4 PUSH2 0x2AB6 JUMP JUMPDEST SWAP2 POP PUSH2 0x356F DUP3 PUSH2 0x3508 JUMP JUMPDEST PUSH1 0x40 DUP3 ADD SWAP1 POP SWAP2 SWAP1 POP JUMP JUMPDEST PUSH1 0x0 PUSH1 0x20 DUP3 ADD SWAP1 POP DUP2 DUP2 SUB PUSH1 0x0 DUP4 ADD MSTORE PUSH2 0x3593 DUP2 PUSH2 0x3557 JUMP JUMPDEST SWAP1 POP SWAP2 SWAP1 POP JUMP JUMPDEST PUSH32 0x4D61726B6574706C6163653A20726566756E64206661696C6564000000000000 PUSH1 0x0 DUP3 ADD MSTORE POP JUMP JUMPDEST PUSH1 0x0 PUSH2 0x35D0 PUSH1 0x1A DUP4 PUSH2 0x2AB6 JUMP JUMPDEST SWAP2 POP PUSH2 0x35DB DUP3 PUSH2 0x359A JUMP JUMPDEST PUSH1 0x20 DUP3 ADD SWAP1 POP SWAP2 SWAP1 POP JUMP JUMPDEST PUSH1 0x0 PUSH1 0x20 DUP3 ADD SWAP1 POP DUP2 DUP2 SUB PUSH1 0x0 DUP4 ADD MSTORE PUSH2 0x35FF DUP2 PUSH2 0x35C3 JUMP JUMPDEST SWAP1 POP SWAP2 SWAP1 POP JUMP JUMPDEST PUSH1 0x0 PUSH1 0x20 DUP3 ADD SWAP1 POP PUSH2 0x361B PUSH1 0x0 DUP4 ADD DUP5 PUSH2 0x2B77 JUMP JUMPDEST SWAP3 SWAP2 POP POP JUMP JUMPDEST PUSH32 0x4D61726B6574706C6163653A2063616E6E6F742064697370757465206E6F7700 PUSH1 0x0 DUP3 ADD MSTORE POP JUMP JUMPDEST PUSH1 0x0 PUSH2 0x3657 PUSH1 0x1F DUP4 PUSH2 0x2AB6 JUMP JUMPDEST SWAP2 POP PUSH2 0x3662 DUP3 PUSH2 0x3621 JUMP JUMPDEST PUSH1 0x20 DUP3 ADD SWAP1 POP SWAP2 SWAP1 POP JUMP JUMPDEST PUSH1 0x0 PUSH1 0x20 DUP3 ADD SWAP1 POP DUP2 DUP2 SUB PUSH1 0x0 DUP4 ADD MSTORE PUSH2 0x3686 DUP2 PUSH2 0x364A JUMP JUMPDEST SWAP1 POP SWAP2 SWAP1 POP JUMP JUMPDEST PUSH32 0x4D61726B6574706C6163653A20616C7265616479206469737075746564000000 PUSH1 0x0 DUP3 ADD MSTORE POP JUMP JUMPDEST PUSH1 0x0 PUSH2 0x36C3 PUSH1 0x1D DUP4 PUSH2 0x2AB6 JUMP JUMPDEST SWAP2 POP PUSH2 0x36CE DUP3 PUSH2 0x368D JUMP JUMPDEST PUSH1 0x20 DUP3 ADD SWAP1 POP SWAP2 SWAP1 POP JUMP JUMPDEST PUSH1 0x0 PUSH1 0x20 DUP3 ADD SWAP1 POP DUP2 DUP2 SUB PUSH1 0x0 DUP4 ADD MSTORE PUSH2 0x36F2 DUP2 PUSH2 0x36B6 JUMP JUMPDEST SWAP1 POP SWAP2 SWAP1 POP JUMP JUMPDEST PUSH32 0x4D61726B6574706C6163653A20616C726561647920696E616374697665000000 PUSH1 0x0 DUP3 ADD MSTORE POP JUMP JUMPDEST PUSH1 0x0 PUSH2 0x372F PUSH1 0x1D DUP4 PUSH2 0x2AB6 JUMP JUMPDEST SWAP2 POP PUSH2 0x373A DUP3 PUSH2 0x36F9 JUMP JUMPDEST PUSH1 0x20 DUP3 ADD SWAP1 POP SWAP2 SWAP1 POP JUMP JUMPDEST PUSH1 0x0 PUSH1 0x20 DUP3 ADD SWAP1 POP DUP2 DUP2 SUB PUSH1 0x0 DUP4 ADD MSTORE PUSH2 0x375E DUP2 PUSH2 0x3722 JUMP JUMPDEST SWAP1 POP SWAP2 SWAP1 POP JUMP JUMPDEST PUSH32 0x4D61726B6574706C6163653A206F6E6C79206661726D65720000000000000000 PUSH1 0x0 DUP3 ADD MSTORE POP JUMP JUMPDEST PUSH1 0x0 PUSH2 0x379B PUSH1 0x18 DUP4 PUSH2 0x2AB6 JUMP JUMPDEST SWAP2 POP PUSH2 0x37A6 DUP3 PUSH2 0x3765 JUMP JUMPDEST PUSH1 0x20 DUP3 ADD SWAP1 POP SWAP2 SWAP1 POP JUMP JUMPDEST PUSH1 0x0 PUSH1 0x20 DUP3 ADD SWAP1 POP DUP2 DUP2 SUB PUSH1 0x0 DUP4 ADD MSTORE PUSH2 0x37CA DUP2 PUSH2 0x378E JUMP JUMPDEST SWAP1 POP SWAP2 SWAP1 POP JUMP JUMPDEST PUSH32 0x4D61726B6574706C6163653A206E6F7420726563656976656400000000000000 PUSH1 0x0 DUP3 ADD MSTORE POP JUMP JUMPDEST PUSH1 0x0 PUSH2 0x3807 PUSH1 0x19 DUP4 PUSH2 0x2AB6 JUMP JUMPDEST SWAP2 POP PUSH2 0x3812 DUP3 PUSH2 0x37D1 JUMP JUMPDEST PUSH1 0x20 DUP3 ADD SWAP1 POP SWAP2 SWAP1 POP JUMP JUMPDEST PUSH1 0x0 PUSH1 0x20 DUP3 ADD SWAP1 POP DUP2 DUP2 SUB PUSH1 0x0 DUP4 ADD MSTORE PUSH2 0x3836 DUP2 PUSH2 0x37FA JUMP JUMPDEST SWAP1 POP SWAP2 SWAP1 POP JUMP JUMPDEST PUSH32 0x4D61726B6574706C6163653A2072656C65617365206661696C65640000000000 PUSH1 0x0 DUP3 ADD MSTORE POP JUMP JUMPDEST PUSH1 0x0 PUSH2 0x3873 PUSH1 0x1B DUP4 PUSH2 0x2AB6 JUMP JUMPDEST SWAP2 POP PUSH2 0x387E DUP3 PUSH2 0x383D JUMP JUMPDEST PUSH1 0x20 DUP3 ADD SWAP1 POP SWAP2 SWAP1 POP JUMP JUMPDEST PUSH1 0x0 PUSH1 0x20 DUP3 ADD SWAP1 POP DUP2 DUP2 SUB PUSH1 0x0 DUP4 ADD MSTORE PUSH2 0x38A2 DUP2 PUSH2 0x3866 JUMP JUMPDEST SWAP1 POP SWAP2 SWAP1 POP JUMP JUMPDEST PUSH32 0x4D61726B6574706C6163653A206C697374696E6720696E616374697665000000 PUSH1 0x0 DUP3 ADD MSTORE POP JUMP JUMPDEST PUSH1 0x0 PUSH2 0x38DF PUSH1 0x1D DUP4 PUSH2 0x2AB6 JUMP JUMPDEST SWAP2 POP PUSH2 0x38EA DUP3 PUSH2 0x38A9 JUMP JUMPDEST PUSH1 0x20 DUP3 ADD SWAP1 POP SWAP2 SWAP1 POP JUMP JUMPDEST PUSH1 0x0 PUSH1 0x20 DUP3 ADD SWAP1 POP DUP2 DUP2 SUB PUSH1 0x0 DUP4 ADD MSTORE PUSH2 0x390E DUP2 PUSH2 0x38D2 JUMP JUMPDEST SWAP1 POP SWAP2 SWAP1 POP JUMP JUMPDEST PUSH32 0x4D61726B6574706C6163653A20696E76616C6964207174790000000000000000 PUSH1 0x0 DUP3 ADD MSTORE POP JUMP JUMPDEST PUSH1 0x0 PUSH2 0x394B PUSH1 0x18 DUP4 PUSH2 0x2AB6 JUMP JUMPDEST SWAP2 POP PUSH2 0x3956 DUP3 PUSH2 0x3915 JUMP JUMPDEST PUSH1 0x20 DUP3 ADD SWAP1 POP SWAP2 SWAP1 POP JUMP JUMPDEST PUSH1 0x0 PUSH1 0x20 DUP3 ADD SWAP1 POP DUP2 DUP2 SUB PUSH1 0x0 DUP4 ADD MSTORE PUSH2 0x397A DUP2 PUSH2 0x393E JUMP JUMPDEST SWAP1 POP SWAP2 SWAP1 POP JUMP JUMPDEST PUSH32 0x4D61726B6574706C6163653A206275796572204B594320726571756972656400 PUSH1 0x0 DUP3 ADD MSTORE POP JUMP JUMPDEST PUSH1 0x0 PUSH2 0x39B7 PUSH1 0x1F DUP4 PUSH2 0x2AB6 JUMP JUMPDEST SWAP2 POP PUSH2 0x39C2 DUP3 PUSH2 0x3981 JUMP JUMPDEST PUSH1 0x20 DUP3 ADD SWAP1 POP SWAP2 SWAP1 POP JUMP JUMPDEST PUSH1 0x0 PUSH1 0x20 DUP3 ADD SWAP1 POP DUP2 DUP2 SUB PUSH1 0x0 DUP4 ADD MSTORE PUSH2 0x39E6 DUP2 PUSH2 0x39AA JUMP JUMPDEST SWAP1 POP SWAP2 SWAP1 POP JUMP JUMPDEST PUSH32 0x4E487B7100000000000000000000000000000000000000000000000000000000 PUSH1 0x0 MSTORE PUSH1 0x11 PUSH1 0x4 MSTORE PUSH1 0x24 PUSH1 0x0 REVERT JUMPDEST PUSH1 0x0 PUSH2 0x3A27 DUP3 PUSH2 0x2676 JUMP JUMPDEST SWAP2 POP PUSH2 0x3A32 DUP4 PUSH2 0x2676 JUMP JUMPDEST SWAP3 POP DUP3 DUP3 MUL PUSH2 0x3A40 DUP2 PUSH2 0x2676 JUMP JUMPDEST SWAP2 POP DUP3 DUP3 DIV DUP5 EQ DUP4 ISZERO OR PUSH2 0x3A57 JUMPI PUSH2 0x3A56 PUSH2 0x39ED JUMP JUMPDEST JUMPDEST POP SWAP3 SWAP2 POP POP JUMP JUMPDEST PUSH32 0x4D61726B6574706C6163653A20746F6B656E207472616E73666572206661696C PUSH1 0x0 DUP3 ADD MSTORE PUSH32 0x6564000000000000000000000000000000000000000000000000000000000000 PUSH1 0x20 DUP3 ADD MSTORE POP JUMP JUMPDEST PUSH1 0x0 PUSH2 0x3ABA PUSH1 0x22 DUP4 PUSH2 0x2AB6 JUMP JUMPDEST SWAP2 POP PUSH2 0x3AC5 DUP3 PUSH2 0x3A5E JUMP JUMPDEST PUSH1 0x40 DUP3 ADD SWAP1 POP SWAP2 SWAP1 POP JUMP JUMPDEST PUSH1 0x0 PUSH1 0x20 DUP3 ADD SWAP1 POP DUP2 DUP2 SUB PUSH1 0x0 DUP4 ADD MSTORE PUSH2 0x3AE9 DUP2 PUSH2 0x3AAD JUMP JUMPDEST SWAP1 POP SWAP2 SWAP1 POP JUMP JUMPDEST PUSH1 0x0 PUSH2 0x3AFB DUP3 PUSH2 0x2676 JUMP JUMPDEST SWAP2 POP PUSH2 0x3B06 DUP4 PUSH2 0x2676 JUMP JUMPDEST SWAP3 POP DUP3 DUP3 SUB SWAP1 POP DUP2 DUP2 GT ISZERO PUSH2 0x3B1E JUMPI PUSH2 0x3B1D PUSH2 0x39ED JUMP JUMPDEST JUMPDEST SWAP3 SWAP2 POP POP JUMP JUMPDEST PUSH1 0x0 PUSH2 0x3B2F DUP3 PUSH2 0x2676 JUMP JUMPDEST SWAP2 POP PUSH32 0xFFFFFFFFFFFFFFFFFFFFFFFFFFFFFFFFFFFFFFFFFFFFFFFFFFFFFFFFFFFFFFFF DUP3 SUB PUSH2 0x3B61 JUMPI PUSH2 0x3B60 PUSH2 0x39ED JUMP JUMPDEST JUMPDEST PUSH1 0x1 DUP3 ADD SWAP1 POP SWAP2 SWAP1 POP JUMP JUMPDEST PUSH2 0x3B75 DUP3 PUSH2 0x27EE JUMP JUMPDEST PUSH8 0xFFFFFFFFFFFFFFFF DUP2 GT ISZERO PUSH2 0x3B8E JUMPI PUSH2 0x3B8D PUSH2 0x300B JUMP JUMPDEST JUMPDEST PUSH2 0x3B98 DUP3 SLOAD PUSH2 0x3069 JUMP JUMPDEST PUSH2 0x3BA3 DUP3 DUP3 DUP6 PUSH2 0x31AF JUMP JUMPDEST PUSH1 0x0 PUSH1 0x20 SWAP1 POP PUSH1 0x1F DUP4 GT PUSH1 0x1 DUP2 EQ PUSH2 0x3BD6 JUMPI PUSH1 0x0 DUP5 ISZERO PUSH2 0x3BC4 JUMPI DUP3 DUP8 ADD MLOAD SWAP1 POP JUMPDEST PUSH2 0x3BCE DUP6 DUP3 PUSH2 0x3220 JUMP JUMPDEST DUP7 SSTORE POP PUSH2 0x3C36 JUMP JUMPDEST PUSH1 0x1F NOT DUP5 AND PUSH2 0x3BE4 DUP7 PUSH2 0x309A JUMP JUMPDEST PUSH1 0x0 JUMPDEST DUP3 DUP2 LT ISZERO PUSH2 0x3C0C JUMPI DUP5 DUP10 ADD MLOAD DUP3 SSTORE PUSH1 0x1 DUP3 ADD SWAP2 POP PUSH1 0x20 DUP6 ADD SWAP5 POP PUSH1 0x20 DUP2 ADD SWAP1 POP PUSH2 0x3BE7 JUMP JUMPDEST DUP7 DUP4 LT ISZERO PUSH2 0x3C29 JUMPI DUP5 DUP10 ADD MLOAD PUSH2 0x3C25 PUSH1 0x1F DUP10 AND DUP3 PUSH2 0x3202 JUMP JUMPDEST DUP4 SSTORE POP JUMPDEST PUSH1 0x1 PUSH1 0x2 DUP9 MUL ADD DUP9 SSTORE POP POP POP JUMPDEST POP POP POP POP POP POP JUMP JUMPDEST PUSH1 0x0 PUSH1 0x60 DUP3 ADD SWAP1 POP PUSH2 0x3C53 PUSH1 0x0 DUP4 ADD DUP7 PUSH2 0x2AA7 JUMP JUMPDEST PUSH2 0x3C60 PUSH1 0x20 DUP4 ADD DUP6 PUSH2 0x2957 JUMP JUMPDEST PUSH2 0x3C6D PUSH1 0x40 DUP4 ADD DUP5 PUSH2 0x2957 JUMP JUMPDEST SWAP5 SWAP4 POP POP POP POP JUMP JUMPDEST PUSH32 0x4D61726B6574706C6163653A206F6E6C792073656C6C65720000000000000000 PUSH1 0x0 DUP3 ADD MSTORE POP JUMP JUMPDEST PUSH1 0x0 PUSH2 0x3CAB PUSH1 0x18 DUP4 PUSH2 0x2AB6 JUMP JUMPDEST SWAP2 POP PUSH2 0x3CB6 DUP3 PUSH2 0x3C75 JUMP JUMPDEST PUSH1 0x20 DUP3 ADD SWAP1 POP SWAP2 SWAP1 POP JUMP JUMPDEST PUSH1 0x0 PUSH1 0x20 DUP3 ADD SWAP1 POP DUP2 DUP2 SUB PUSH1 0x0 DUP4 ADD MSTORE PUSH2 0x3CDA DUP2 PUSH2 0x3C9E JUMP JUMPDEST SWAP1 POP SWAP2 SWAP1 POP JUMP JUMPDEST PUSH32 0x4D61726B6574706C6163653A206E6F7420696E20637265617465642073746174 PUSH1 0x0 DUP3 ADD MSTORE PUSH32 0x6500000000000000000000000000000000000000000000000000000000000000 PUSH1 0x20 DUP3 ADD MSTORE POP JUMP JUMPDEST PUSH1 0x0 PUSH2 0x3D3D PUSH1 0x21 DUP4 PUSH2 0x2AB6 JUMP JUMPDEST SWAP2 POP PUSH2 0x3D48 DUP3 PUSH2 0x3CE1 JUMP JUMPDEST PUSH1 0x40 DUP3 ADD SWAP1 POP SWAP2 SWAP1 POP JUMP JUMPDEST PUSH1 0x0 PUSH1 0x20 DUP3 ADD SWAP1 POP DUP2 DUP2 SUB PUSH1 0x0 DUP4 ADD MSTORE PUSH2 0x3D6C DUP2 PUSH2 0x3D30 JUMP JUMPDEST SWAP1 POP SWAP2 SWAP1 POP JUMP JUMPDEST PUSH32 0x4D61726B6574706C6163653A20696E6163746976650000000000000000000000 PUSH1 0x0 DUP3 ADD MSTORE POP JUMP JUMPDEST PUSH1 0x0 PUSH2 0x3DA9 PUSH1 0x15 DUP4 PUSH2 0x2AB6 JUMP JUMPDEST SWAP2 POP PUSH2 0x3DB4 DUP3 PUSH2 0x3D73 JUMP JUMPDEST PUSH1 0x20 DUP3 ADD SWAP1 POP SWAP2 SWAP1 POP JUMP JUMPDEST PUSH1 0x0 PUSH1 0x20 DUP3 ADD SWAP1 POP DUP2 DUP2 SUB PUSH1 0x0 DUP4 ADD MSTORE PUSH2 0x3DD8 DUP2 PUSH2 0x3D9C JUMP JUMPDEST SWAP1 POP SWAP2 SWAP1 POP JUMP JUMPDEST PUSH32 0x4D61726B6574706C6163653A20696E76616C6964206172677300000000000000 PUSH1 0x0 DUP3 ADD MSTORE POP JUMP JUMPDEST PUSH1 0x0 PUSH2 0x3E15 PUSH1 0x19 DUP4 PUSH2 0x2AB6 JUMP JUMPDEST SWAP2 POP PUSH2 0x3E20 DUP3 PUSH2 0x3DDF JUMP JUMPDEST PUSH1 0x20 DUP3 ADD SWAP1 POP SWAP2 SWAP1 POP JUMP JUMPDEST PUSH1 0x0 PUSH1 0x20 DUP3 ADD SWAP1 POP DUP2 DUP2 SUB PUSH1 0x0 DUP4 ADD MSTORE PUSH2 0x3E44 DUP2 PUSH2 0x3E08 JUMP JUMPDEST SWAP1 POP SWAP2 SWAP1 POP JUMP JUMPDEST PUSH1 0x0 PUSH1 0x40 DUP3 ADD SWAP1 POP PUSH2 0x3E60 PUSH1 0x0 DUP4 ADD DUP6 PUSH2 0x2957 JUMP JUMPDEST PUSH2 0x3E6D PUSH1 0x20 DUP4 ADD DUP5 PUSH2 0x2957 JUMP JUMPDEST SWAP4 SWAP3 POP POP POP JUMP JUMPDEST PUSH32 0x4D61726B6574706C6163653A2070726963653E30000000000000000000000000 PUSH1 0x0 DUP3 ADD MSTORE POP JUMP JUMPDEST PUSH1 0x0 PUSH2 0x3EAA PUSH1 0x14 DUP4 PUSH2 0x2AB6 JUMP JUMPDEST SWAP2 POP PUSH2 0x3EB5 DUP3 PUSH2 0x3E74 JUMP JUMPDEST PUSH1 0x20 DUP3 ADD SWAP1 POP SWAP2 SWAP1 POP JUMP JUMPDEST PUSH1 0x0 PUSH1 0x20 DUP3 ADD SWAP1 POP DUP2 DUP2 SUB PUSH1 0x0 DUP4 ADD MSTORE PUSH2 0x3ED9 DUP2 PUSH2 0x3E9D JUMP JUMPDEST SWAP1 POP SWAP2 SWAP1 POP JUMP JUMPDEST PUSH32 0x4D61726B6574706C6163653A207174793E300000000000000000000000000000 PUSH1 0x0 DUP3 ADD MSTORE POP JUMP JUMPDEST PUSH1 0x0 PUSH2 0x3F16 PUSH1 0x12 DUP4 PUSH2 0x2AB6 JUMP JUMPDEST SWAP2 POP PUSH2 0x3F21 DUP3 PUSH2 0x3EE0 JUMP JUMPDEST PUSH1 0x20 DUP3 ADD SWAP1 POP SWAP2 SWAP1 POP JUMP JUMPDEST PUSH1 0x0 PUSH1 0x20 DUP3 ADD SWAP1 POP DUP2 DUP2 SUB PUSH1 0x0 DUP4 ADD MSTORE PUSH2 0x3F45 DUP2 PUSH2 0x3F09 JUMP JUMPDEST SWAP1 POP SWAP2 SWAP1 POP JUMP JUMPDEST PUSH2 0x3F55 DUP2 PUSH2 0x27CD JUMP JUMPDEST DUP2 EQ PUSH2 0x3F60 JUMPI PUSH1 0x0 DUP1 REVERT JUMPDEST POP JUMP JUMPDEST PUSH1 0x0 DUP2 MLOAD SWAP1 POP PUSH2 0x3F72 DUP2 PUSH2 0x3F4C JUMP JUMPDEST SWAP3 SWAP2 POP POP JUMP JUMPDEST PUSH1 0x0 DUP2 MLOAD SWAP1 POP PUSH2 0x3F87 DUP2 PUSH2 0x2680 JUMP JUMPDEST SWAP3 SWAP2 POP POP JUMP JUMPDEST PUSH1 0x0 PUSH1 0xFF DUP3 AND SWAP1 POP SWAP2 SWAP1 POP JUMP JUMPDEST PUSH2 0x3FA3 DUP2 PUSH2 0x3F8D JUMP JUMPDEST DUP2 EQ PUSH2 0x3FAE JUMPI PUSH1 0x0 DUP1 REVERT JUMPDEST POP JUMP JUMPDEST PUSH1 0x0 DUP2 MLOAD SWAP1 POP PUSH2 0x3FC0 DUP2 PUSH2 0x3F9A JUMP JUMPDEST SWAP3 SWAP2 POP POP JUMP JUMPDEST PUSH1 0x0 DUP1 REVERT JUMPDEST PUSH2 0x3FD4 DUP3 PUSH2 0x2834 JUMP JUMPDEST DUP2 ADD DUP2 DUP2 LT PUSH8 0xFFFFFFFFFFFFFFFF DUP3 GT OR ISZERO PUSH2 0x3FF3 JUMPI PUSH2 0x3FF2 PUSH2 0x300B JUMP JUMPDEST JUMPDEST DUP1 PUSH1 0x40 MSTORE POP POP POP JUMP JUMPDEST PUSH1 0x0 PUSH2 0x4006 PUSH2 0x2662 JUMP JUMPDEST SWAP1 POP PUSH2 0x4012 DUP3 DUP3 PUSH2 0x3FCB JUMP JUMPDEST SWAP2 SWAP1 POP JUMP JUMPDEST PUSH1 0x0 PUSH8 0xFFFFFFFFFFFFFFFF DUP3 GT ISZERO PUSH2 0x4032 JUMPI PUSH2 0x4031 PUSH2 0x300B JUMP JUMPDEST JUMPDEST PUSH2 0x403B DUP3 PUSH2 0x2834 JUMP JUMPDEST SWAP1 POP PUSH1 0x20 DUP2 ADD SWAP1 POP SWAP2 SWAP1 POP JUMP JUMPDEST PUSH1 0x0 PUSH2 0x405B PUSH2 0x4056 DUP5 PUSH2 0x4017 JUMP JUMPDEST PUSH2 0x3FFC JUMP JUMPDEST SWAP1 POP DUP3 DUP2 MSTORE PUSH1 0x20 DUP2 ADD DUP5 DUP5 DUP5 ADD GT ISZERO PUSH2 0x4077 JUMPI PUSH2 0x4076 PUSH2 0x3FC6 JUMP JUMPDEST JUMPDEST PUSH2 0x4082 DUP5 DUP3 DUP6 PUSH2 0x280A JUMP JUMPDEST POP SWAP4 SWAP3 POP POP POP JUMP JUMPDEST PUSH1 0x0 DUP3 PUSH1 0x1F DUP4 ADD SLT PUSH2 0x409F JUMPI PUSH2 0x409E PUSH2 0x26AC JUMP JUMPDEST JUMPDEST DUP2 MLOAD PUSH2 0x40AF DUP5 DUP3 PUSH1 0x20 DUP7 ADD PUSH2 0x4048 JUMP JUMPDEST SWAP2 POP POP SWAP3 SWAP2 POP POP JUMP JUMPDEST PUSH1 0x0 DUP1 PUSH1 0x0 DUP1 PUSH1 0x0 DUP1 PUSH1 0x0 DUP1 PUSH2 0x100 DUP10 DUP12 SUB SLT ISZERO PUSH2 0x40D9 JUMPI PUSH2 0x40D8 PUSH2 0x266C JUMP JUMPDEST JUMPDEST PUSH1 0x0 PUSH2 0x40E7 DUP12 DUP3 DUP13 ADD PUSH2 0x3F63 JUMP JUMPDEST SWAP9 POP POP PUSH1 0x20 PUSH2 0x40F8 DUP12 DUP3 DUP13 ADD PUSH2 0x3F78 JUMP JUMPDEST SWAP8 POP POP PUSH1 0x40 PUSH2 0x4109 DUP12 DUP3 DUP13 ADD PUSH2 0x3F78 JUMP JUMPDEST SWAP7 POP POP PUSH1 0x60 PUSH2 0x411A DUP12 DUP3 DUP13 ADD PUSH2 0x3F78 JUMP JUMPDEST SWAP6 POP POP PUSH1 0x80 PUSH2 0x412B DUP12 DUP3 DUP13 ADD PUSH2 0x3F78 JUMP JUMPDEST SWAP5 POP POP PUSH1 0xA0 PUSH2 0x413C DUP12 DUP3 DUP13 ADD PUSH2 0x3F78 JUMP JUMPDEST SWAP4 POP POP PUSH1 0xC0 PUSH2 0x414D DUP12 DUP3 DUP13 ADD PUSH2 0x3FB1 JUMP JUMPDEST SWAP3 POP POP PUSH1 0xE0 DUP10 ADD MLOAD PUSH8 0xFFFFFFFFFFFFFFFF DUP2 GT ISZERO PUSH2 0x416E JUMPI PUSH2 0x416D PUSH2 0x2671 JUMP JUMPDEST JUMPDEST PUSH2 0x417A DUP12 DUP3 DUP13 ADD PUSH2 0x408A JUMP JUMPDEST SWAP2 POP POP SWAP3 SWAP6 SWAP9 POP SWAP3 SWAP6 SWAP9 SWAP1 SWAP4 SWAP7 POP JUMP JUMPDEST PUSH32 0x4D61726B6574706C6163653A206F6E6C79206661726D206F776E657200000000 PUSH1 0x0 DUP3 ADD MSTORE POP JUMP JUMPDEST PUSH1 0x0 PUSH2 0x41C0 PUSH1 0x1C DUP4 PUSH2 0x2AB6 JUMP JUMPDEST SWAP2 POP PUSH2 0x41CB DUP3 PUSH2 0x418A JUMP JUMPDEST PUSH1 0x20 DUP3 ADD SWAP1 POP SWAP2 SWAP1 POP JUMP JUMPDEST PUSH1 0x0 PUSH1 0x20 DUP3 ADD SWAP1 POP DUP2 DUP2 SUB PUSH1 0x0 DUP4 ADD MSTORE PUSH2 0x41EF DUP2 PUSH2 0x41B3 JUMP JUMPDEST SWAP1 POP SWAP2 SWAP1 POP JUMP JUMPDEST PUSH1 0x0 PUSH1 0x60 DUP3 ADD SWAP1 POP PUSH2 0x420B PUSH1 0x0 DUP4 ADD DUP8 PUSH2 0x2957 JUMP JUMPDEST PUSH2 0x4218 PUSH1 0x20 DUP4 ADD DUP7 PUSH2 0x2957 JUMP JUMPDEST DUP2 DUP2 SUB PUSH1 0x40 DUP4 ADD MSTORE PUSH2 0x422B DUP2 DUP5 DUP7 PUSH2 0x331B JUMP JUMPDEST SWAP1 POP SWAP6 SWAP5 POP POP POP POP POP JUMP JUMPDEST PUSH32 0x4D61726B6574706C6163653A20616D6F756E7420746F6F206C61726765000000 PUSH1 0x0 DUP3 ADD MSTORE POP JUMP JUMPDEST PUSH1 0x0 PUSH2 0x426C PUSH1 0x1D DUP4 PUSH2 0x2AB6 JUMP JUMPDEST SWAP2 POP PUSH2 0x4277 DUP3 PUSH2 0x4236 JUMP JUMPDEST PUSH1 0x20 DUP3 ADD SWAP1 POP SWAP2 SWAP1 POP JUMP JUMPDEST PUSH1 0x0 PUSH1 0x20 DUP3 ADD SWAP1 POP DUP2 DUP2 SUB PUSH1 0x0 DUP4 ADD MSTORE PUSH2 0x429B DUP2 PUSH2 0x425F JUMP JUMPDEST SWAP1 POP SWAP2 SWAP1 POP JUMP JUMPDEST PUSH1 0x0 PUSH1 0x40 DUP3 ADD SWAP1 POP PUSH2 0x42B7 PUSH1 0x0 DUP4 ADD DUP6 PUSH2 0x2AA7 JUMP JUMPDEST PUSH2 0x42C4 PUSH1 0x20 DUP4 ADD DUP5 PUSH2 0x2AA7 JUMP JUMPDEST SWAP4 SWAP3 POP POP POP JUMP JUMPDEST PUSH1 0x0 DUP2 MLOAD SWAP1 POP PUSH2 0x42DA DUP2 PUSH2 0x2981 JUMP JUMPDEST SWAP3 SWAP2 POP POP JUMP JUMPDEST PUSH1 0x0 DUP1 PUSH1 0x40 DUP4 DUP6 SUB SLT ISZERO PUSH2 0x42F7 JUMPI PUSH2 0x42F6 PUSH2 0x266C JUMP JUMPDEST JUMPDEST PUSH1 0x0 PUSH2 0x4305 DUP6 DUP3 DUP7 ADD PUSH2 0x34C6 JUMP JUMPDEST SWAP3 POP POP PUSH1 0x20 PUSH2 0x4316 DUP6 DUP3 DUP7 ADD PUSH2 0x42CB JUMP JUMPDEST SWAP2 POP POP SWAP3 POP SWAP3 SWAP1 POP JUMP INVALID LOG2 PUSH5 0x6970667358 0x22 SLT KECCAK256 PUSH3 0x8C47A6 0xD3 0xAD PREVRANDAO EXTCODESIZE 0xCF 0x4D CODESIZE BLOBHASH SELFBALANCE DUP3 0xAB 0x2F 0xDF CODESIZE 0xEB SWAP13 0xD9 SWAP2 0x2A PUSH7 0xC8DEC5EF02A370 CODESIZE PUSH5 0x736F6C6343 STOP ADDMOD SHR STOP CALLER "},"methodIdentifiers":{"agriYield()":"904dc067","confirmReceived(uint256,string)":"0c86dff9","deactivateListing(uint256)":"3b8d915f","getListing(uint256)":"107a274a","getOrder(uint256)":"d09ef241","listItem(uint256,uint256,uint256,string)":"f7f1b464","listings(uint256)":"de74e57b","nextListingId()":"aaccf1ec","nextOrderId()":"2a58b330","openDispute(uint256,string)":"36f691c4","orders(uint256)":"a85c38ef","purchase(uint256,uint256)":"70876c98","releaseFunds(uint256)":"4d68282f","resolveDispute(uint256,bool)":"34b25ee2","shipOrder(uint256,string)":"9d07a8e9","stableToken()":"a9d75b2b","updateListing(uint256,uint256,uint256)":"f6cf2a16"}}}}}